:04000000FEEF5BF0C4
:10B472001600F29C550EA76EAA0EA76E0F013F8B07
:04B48200F28C120036
:10B4870000A04100CC41140006000B003700161540
:10B49700371416C280C28200D0C2B2FED7030E0193
:10B4A7006E980EE82EFED7012EFCD7C4CFBFF0C290
:10B4B700901200036E000E026E3A0E036006D02F44
:10B4C7000E036403D0010E026E00D002C001F0012A
:10B4D7003012001200015002100310D8B406D00039
:10B4E7000E011A000E021A800E031A01C001F002A3
:10B4F700C002F003C003F012000C6E0C50016E0284
:10B507006A036A8E0E046E000E056E29EC5EF0016A
:10B51700C009F002C00AF003C00BF0120012000FBE
:10B52700501102F3CF13F0F4CF14F00F501202F3BF
:10B5370050142610501102F350142613C00FF014A4
:10B54700C010F012001200020005000200080002FD
:10B55700000F0002001200040005000400080004A8
:10B56700000F0004001200020000000300000003A7
:10B5770000030003000600040000000400030000AD
:10B587000E3D6E3BAE07D03A6C3B1ED8B03B2A014E
:10B597000E3D6E00D03AC001F03BC002F0036A8E48
:10B5A7000E046E3DC005F029EC5EF001C03AF002D2
:10B5B700C03BF003C03CF0120012003D503E103F6C
:10B5C70010D8B407D0000E3D1A000E3E1A800E3F69
:10B5D7001A00D03AC02EF03BC02FF03CC030F03DEF
:10B5E700C031F03EC032F03FC033F0E7EC67F02ED9
:10B5F700C03AF02FC03BF030C03CF01200120059A7
:10B607006E0C0E20EC62F0C00E406E000E416E9D77
:10B61700C042F09EC043F09FC044F0456A87EC7477
:10B62700F09CC054F0C00E556E000E566E5950492E
:10B63700EC5DF09CC054F0F50E556EFD0E566E593C
:10B647005049EC5DF00F0E20EC62F012008E0E11E7
:10B657006E07D0D8900C320B320A320932112A0009
:10B66700D0000E09140D6E000E0A140E6E000E0B9C
:10B67700140F6EFF0E0C14106E0D500E100F1010DD
:10B6870010D8A4E7D709C001F00AC002F00BC00325
:10B69700F011C004F0000E056E29EC5EF001C00940
:10B6A700F002C00AF003C00BF0120012000001ED17
:10B6B70051016E026A5E50011813E15F500218D8FB
:10B6C700A40FD00001BD51016E026A0001E85101CB
:10B6D7001807E10001E9510218D8A402D08A8E00A8
:10B6E700D00001EA51016E026A5E50011813E15F52
:10B6F700500218D8A412000001BC51016E026A0062
:10B7070001E851011807E10001E9510218D8A41214
:10B71700008A9E12001200FC0E0F013F170F013F17
:10B727008198CF0FF099CF10F098CF11F099CF12E1
:10B73700F0FC0E0F013F170F013F8198CF07F099DB
:10B74700CF08F098CF09F099CF0AF009501118D80F
:10B75700A4E2D720EE03F00150D9260250DA220FD7
:10B76700C0DFFF20EE02F00150D9260250DA221284
:10B77700C0DFFF20EE01F00150D9260250DA221176
:10B78700C0DFFF12001250131014101510D8B4297F
:10B79700D0010E166E07D0D8901236133614361510
:10B7A70036162A00D015BE02D0F6D700D012500E9A
:10B7B7005C13500F581450105815501158D8A00941
:10B7C700D012500E5E13500F5A1450105A155011C4
:10B7D7005A00D0D8901532143213321232162EE690
:10B7E700D700D00EC00EF00FC00FF010C010F01130
:10B7F700C011F0120001EE38F0180EEE6AE806FDEF
:10B80700E100EEAAF0320EEE6AE806FDE14E0EF612
:10B817006EB50EF76E000EF86E01EE00F010EE3802
:10B82700F00900F5CFEEFFE550E150FAE1870EF69B
:10B837006EB40EF76E000EF86E00EEDCF010EE132D
:10B84700F00900F5CFEEFFE550E150FAE1720EF690
:10B857006EB40EF76E000EF86E0900F5CF5EF009B4
:10B8670000F5CF5FF0000EF86E0001BFEF65F00046
:10B8770001EE51016E026A5E5001181EE15F50022F
:10B8870018D8A41AD00001BE51016E026A0001E85F
:10B8970051011812E10001E9510218D8A40DD08214
:10B8A700BE02D0010E01D0000E0001B66F0001B636
:10B8B70051D8B402D08A8C00D00001EB51016E023E
:10B8C7006A5E50011813E15F500218D8A4120000F5
:10B8D70001EC51016E026A0001E851011807E1000D
:10B8E70001E9510218D8A412008A9C120012000024
:10B8F7000E066E02AE07D0016C021ED8B0022A01F6
:10B907000E066E00D004AE05D0036C041ED8B0043A
:10B917002A00D003500410D8B41DD0010E056E05BF
:10B92700D0D89003360436052A00D004BE02D0F8DA
:10B93700D700D00350015C04500258D8A005D003AB
:10B9470050015E0450025A00D0D8900432033205E9
:10B957002EF0D700D00650D8B405D0016C021ED8FF
:10B96700B0022A00D001C001F002C002F01200129A
:10B9770000000E096E000E0A6E000E0B6E000E0C14
:10B987006E0550061007100810D8B42FD0010E0D01
:10B997006E07D0D89005360636073608360D2A00CA
:10B9A700D008BE02D0F6D700D0D89009360A360B99
:10B9B700360C360550015C065002580750035808EC
:10B9C700500458D8A00AD00550015E0650025A0705
:10B9D70050035A0850045A098000D0D890083207FB
:10B9E70032063205320D2EE0D700D009C001F00A29
:10B9F700C002F00BC003F00CC004F01200FC0E0FE5
:10BA0700013F17030E0F013F1398CF0BF099CF0C8F
:10BA1700F098CF0DF099CF0EF098CF0FF099CF1087
:10BA2700F0FC0E0F013F17030E0F013F1398CF03D2
:10BA3700F099CF04F098CF05F099CF06F098CF078B
:10BA4700F099CF08F005500D18D8A4D8D720EE01EB
:10BA5700F00150D9260250DA220DC0DFFF20EE0296
:10BA6700F00150D9260250DA220EC0DFFF01C0D9FB
:10BA7700FF02C0DAFF10C0DFFF20EE03F00150D94C
:10BA8700260250DA220BC0DFFF1200576E0DD0548A
:10BA970050800F08D05450C00F05D05450940F0257
:10BAA700D05450D40F586E0ED05750010AD8B4EF67
:10BAB700D7030AD8B4EFD7010AD8B4EFD7070AD803
:10BAC700B4EFD700D0585020EC62F015D055C0F62F
:10BAD700FF56C0F7FFF86A0E0EF76403D00800F5AB
:10BAE7005005D0F6CFE9FFF7CFEAFFEF50B0EC6291
:10BAF700F0554A562A00D055C0F6FF56C0F7FFF852
:10BB07006A0E0EF76403D00800F55005D0F6CFE9AA
:10BB1700FFF7CFEAFFEF500009D8A4D8D7120003E8
:10BB2700AE17D001C007F002C008F003C009F00744
:10BB37001E081E091E072A000E08220922000E07EA
:10BB470024016E000E0820026E800E0920036E008D
:10BB5700D006AE17D004C007F005C008F006C0092C
:10BB6700F0071E081E091E072A000E0822092200D8
:10BB77000E0724046E000E0820056E800E092006AD
:10BB87006E00D0000E011A000E021A800E031A0072
:10BB97000E041A000E051A800E061A0450015C05E1
:10BBA70050025806500358D8B002D0D8901200D887
:10BBB7008012001200000E0C6E0AAE07D0096C0A44
:10BBC7001ED8B00A2A010E0C6E00D008AE07D007A7
:10BBD7006C081ED8B0082A010E0C1A00D0000E0EF1
:10BBE7006E000E0D6E09500A10D8B421D0010E0B4D
:10BBF7006E05D0D89009360A360B2A00D00ABE0245
:10BC0700D0F8D700D0D8900D360E360950075C0A09
:10BC1700500858D8A006D00950075E0A50085A0D98
:10BC27008000D0D8900A3209320B2EECD700D00C06
:10BC370050D8B405D00D6C0E1ED8B00E2A00D00D0A
:10BC4700C007F00EC008F0120012000450D8B40567
:10BC5700D0015002100310D8A40ED0000E016E00C0
:10BC67000E026E000E036E120006D0042AD890034F
:10BC7700320232013200D0000E0114066E000E02AD
:10BC870014076EFE0E0314086E065007100810D82E
:10BC9700B40ED0EBD70CD0042A010E0126000E02F9
:10BCA70022000E0322D89003320232013200D00064
:10BCB7000E0114066E000E0214076EFF0E03140821
:10BCC7006E065007100810D8B408D0E5D706D00480
:10BCD70006D89001360236033600D002BE04D002E1
:10BCE7000E0460F5D700D004B002D0029E00D0D871
:10BCF700900432045003120550D8B402D0038E00CA
:10BD0700D001C001F002C002F003C003F01200121C
:10BD17000040C044F0456A466A3F34443601E34573
:10BD27008044504B6E4B50D8A407D0000E3E6E0097
:10BD37000E3F6E000E406E120043C044F0456A4647
:10BD47006A4234443601E3458044504C6E4C50D827
:10BD5700A407D0000E3E6E000E3F6E000E406E121E
:10BD670000000E486E000E496E000E4A6E4C508958
:10BD77000F4B5E40C04CF043504C1A800E4C163FA0
:10BD87008EFF0E3E16FF0E3F16000E4016428EFF28
:10BD97000E4116FF0E4216000E4316180E476E0090
:10BDA700D0D890483649364A3641503E5C42503FDB
:10BDB7005843504058D8A007D041503E5E42503FAC
:10BDC7005A4350405A4880D8903E363F364036470F
:10BDD7002EE7D700D048C001F049C002F04AC0039F
:10BDE700F04BC004F04CC005F029EC5EF001C03EFA
:10BDF700F002C03FF003C040F012001200000E54E2
:10BE07006EF20E556EFE0E566E010E49EC5DF07B1E
:10BE1700EC64F0AEC050F0AFC051F091EC61F0505F
:10BE2700C059F051C05AF0000E546E59C055F05A1F
:10BE3700C056F0020E49EC5DF0C00E406E000E4198
:10BE47006EC50E426EFD0E436EE4C044F0E5C0457C
:10BE5700F0E6C046F0E7C047F0E2C048F0E3C0496B
:10BE6700F087EC74F0000E546EC00E556E000E563F
:10BE77006E030E49EC5DF0C00E406E000E416EA3DE
:10BE87000E426EFF0E436E5EC044F05FC045F0E8A1
:10BE9700C046F0E9C047F0B2C048F0B3C049F087E8
:10BEA700EC74F0000E546EC00E556E000E566E0404
:10BEB7000E49EC5DF0C00E406E000E416EC30E429F
:10BEC7006EFF0E436EDFC044F0E0C045F0E1C046B0
:10BED700F0000E486EDF0E476E87EC74F00A0E54C2
:10BEE7006EC00E556E000E566E040E49EC5DF012D4
:10BEF700002DC02FF0306A316A2C342F3601E33021
:10BF0700802F50396E3950D8A409D0000E2B6E00FF
:10BF17000E2C6E000E2D6E000E2E6E1200170E2FB9
:10BF27006E2BC030F02CC031F02DC032F02F2833EB
:10BF37006E04D0D890323231323032332EFAD730C5
:10BF470050346E2C8EFF0E2B16FF0E2C16000E2D66
:10BF5700162B50356E2C50366E2D50376E386A8E34
:10BF67000E395E39AE17D03950800A8F0FD8B00A14
:10BF7700D0000E2B6E000E2C6E000E2D6E000E2EB6
:10BF87006E120000D0D89038323732363235323917
:10BF97003EF9D719D0170E396411D0000E2B6E0059
:10BFA7000E2C6E000E2D6E000E2E6E120007D0D8CE
:10BFB700903536363637363836390600D03950D8C8
:10BFC700B402D0F5D700D03450D8B409D0381E37D2
:10BFD7001E361E356C000E36223722382200D03529
:10BFE700C02BF036C02CF037C02DF038C02EF01221
:10BFF70000120017C01BF01C6A1D6A16341B36019D
:10C00700E31C801B501E6E1E50D8A407D0000E15CF
:10C017006E000E166E000E176E12001AC01BF01C73
:10C027006A1D6A19341B3601E31C801B50236E23DB
:10C0370050D8A407D0000E156E000E166E000E170E
:10C047006E120023507B0F1E2617C023F01A5023B1
:10C057001A800E2316168E198EFF0E1816FF0E194C
:10C0670016000E1A16000E1F6E000E206E000E210F
:10C077006E070E226E00D015A007D018501F261984
:10C087005020221A50212200D0D89017321632158C
:10C0970032D890183619361A36222EEDD700D00925
:10C0A7000E226E00D015A007D018501F2619502059
:10C0B700221A50212200D0D890173216321532D8C2
:10C0C70090213220321F32222EEDD700D01FC0011F
:10C0D700F020C002F021C003F01EC004F023C00509
:10C0E700F029EC5EF001C015F002C016F003C0178E
:10C0F700F012001200000E066E20EE02F00150D979
:10C10700260250DA225A0EDF60120020EE01F001FB
:10C1170050D9260250DA225A0EDF60120020EE03B1
:10C12700F00150D9260250DA22240EDF6402D01221
:10C1370000120020EE02F00150D9260250DA22DF69
:10C1470050096E20EE01F00150D9260250DA22DFA5
:10C1570050086E0350D8B402D0F29C00D0000E3FB6
:10C16700BB010E076E0750D8A403D03AEC5AF00073
:10C17700D0000E3FBF010E056E0550D8B407D000A2
:10C187000E91BE010E066E0F013F9F00D0FC0E0FF1
:10C19700013F170F013F8198CF0AF099CF0BF0208D
:10C1A700EE03F00150D9260250DA22DF500A6EFC66
:10C1B7000E0F013F170F013F810AC098FF0BC0996F
:10C1C700FF08C098FF09C099FF0550D8B40DD00FDC
:10C1D700013F8F0650D8B402D0918E00D00750D8B7
:10C1E700B409D03AEC5AF006D00750D8A403D00FC0
:10C1F700013F9B00D00350D8B41200F28C120012FA
:10C207000093909392939493969398939A8A908A93
:10C21700928A948A968A988A9A0F0E046E480EE834
:10C227002EFED7042EFCD70F0E046E480EE82EFE06
:10C23700D7042EFCD70F0E046E480EE82EFED70447
:10C247002EFCD70F0E046E480EE82EFED7042EFCE8
:10C25700D70F0E046E480EE82EFED7042EFCD70F1C
:10C267000E046E480EE82EFED7042EFCD7010E05ED
:10C277006E1FD021D08A908A928A848A868A988A69
:10C287009A8A908A928A848A868A888A9A030EE88A
:10C297002EFED700F08A908A928A848A868A988AA4
:10C2A7009A0F0E046E480EE82EFED7042EFCD70513
:10C2B7002A030E0564DFD78A908A928A848A968A2F
:10C2C700988A9A8A908A928A848A968A888A9A030E
:10C2D7000EE82EFED700F08A908A928A848A968A80
:10C2E700988A9A0F0E046E480EE82EFED7042EFC8D
:10C2F700D7280E056E055020EC62F0100E056E056E
:10C307005020EC62F0010E056E055020EC62F00F34
:10C317000E056E055020EC62F0120069D0880E40C1
:10C327006E000E416EF40E426EFF0E436E5F0E44BA
:10C337006EFE0E456E87EC74F079D0880E406E0065
:10C347000E416EF40E426EFF0E436E0B0E446EFEF0
:10C357000E456E87EC74F06AD0880E406E000E4171
:10C367006EF40E426EFF0E436E350E446EFE0E45A2
:10C377006E87EC74F05BD0880E406E000E416EF451
:10C387000E426EFF0E436E890E446EFE0E456E879B
:10C39700EC74F04CD0880E406E000E416EF40E42E5
:10C3A7006EFF0E436E4A0E446EFE0E456E87EC74AA
:10C3B700F03DD0880E406E000E416EF40E426EFFC7
:10C3C7000E436E740E446EFE0E456E87EC74F02EAF
:10C3D700D0880E406E000E416EF40E426EFF0E4383
:10C3E7006E200E446EFE0E456E87EC74F01FD05023
:10C3F700C052F051C053F05350000AD8A417D0527E
:10C4070050000AD8B48BD7010AD8B497D7030AD8F3
:10C41700B4A3D7010AD8B4AFD7070AD8B4BBD7019A
:10C427000AD8B4C7D7030AD8B4D3D700D0880E50D8
:10C437006E000E516E12001200036E8A988A9A01DE
:10C447006A03AE01D0012A010E01168A500118FEB7
:10C457000B01188A6E03C001F0060E026ED8900118
:10C4670032022EFCD7010E011601468A500118FD33
:10C477000B01188A6E03C001F0050E026ED89001F9
:10C4870032022EFCD7010E0116014601468A5001E1
:10C4970018FB0B01188A6E03C001F0013A0F0E0159
:10C4A70016010E01160146014601468A500118F78A
:10C4B7000B01188A6E030EE82EFED700F08A880358
:10C4C7000EE82EFED700F08A9803C001F0D890013D
:10C4D70032D8900132D8900132010E01168A5001EC
:10C4E70018FE0B01188A6E03C001F0D8900132D8EC
:10C4F700900132010E011601468A500118FD0B0109
:10C50700188A6E03C001F0D8900132010E0116019E
:10C517004601468A500118FB0B01188A6E03C001B9
:10C52700F0010E01160146014601468A500118F72F
:10C537000B01188A6E030EE82EFED700F08A8803D7
:10C547000EE82EFED700F08A980F0E016E480EE80F
:10C557002EFED7012EFCD71200036E8A988A8A0115
:10C567006A03AE01D0012A010E01168A500118FE96
:10C577000B01188A6E03C001F0060E026ED89001F7
:10C5870032022EFCD7010E011601468A500118FD12
:10C597000B01188A6E03C001F0050E026ED89001D8
:10C5A70032022EFCD7010E0116014601468A5001C0
:10C5B70018FB0B01188A6E03C001F0013A0F0E0138
:10C5C70016010E01160146014601468A500118F769
:10C5D7000B01188A6E030EE82EFED700F08A880337
:10C5E7000EE82EFED700F08A9803C001F0D890011C
:10C5F70032D8900132D8900132010E01168A5001CB
:10C6070018FE0B01188A6E03C001F0D8900132D8CA
:10C61700900132010E011601468A500118FD0B01E7
:10C62700188A6E03C001F0D8900132010E0116017D
:10C637004601468A500118FB0B01188A6E03C00198
:10C64700F0010E01160146014601468A500118F70E
:10C657000B01188A6E030EE82EFED700F08A8803B6
:10C667000EE82EFED700F08A98030EE82EFED700BC
:10C67700F00F0E016E480EE82EFED7012EFCD712E2
:10C6870000033404340C6E0C50D8A409D0000E01FA
:10C697006E000E026E000E036E000E046E12000690
:10C6A7003407340B6E0B50D8A409D0000E016E006E
:10C6B7000E026E000E036E000E046E1200038EFF54
:10C6C7000E0116FF0E0216FF0E0316000E041606C5
:10C6D7008EFF0E0416FF0E0516FF0E0616000E0738
:10C6E70016000E076E000E086E000E096E000E0A89
:10C6F7006E7F0E0C5E0B50A00F0C5E200E0B6E00B3
:10C70700D0D8900736083609360A360450015C053A
:10C717005002580650035807500458D8A00AD004AE
:10C7270050015E0550025A0650035A0750045A0733
:10C737008000D0D89001360236033604360B2EE03F
:10C74700D700D00CAE17D00C50800A9F0FD8B00A74
:10C75700D0000E016E000E026E000E036E000E0476
:10C767006E120000D0D8900A320932083207320C14
:10C777003EF9D717D01F0E0C6411D0000E016E00C2
:10C787000E026E000E036E000E046E120007D0D864
:10C79700900736083609360A360C0600D00C50D8F2
:10C7A700A4F6D707C001F008C002F009C003F00AD9
:10C7B700C004F0120003C007F0086A096A023407D0
:10C7C7003601E3088007500F6E0F50D8A409D00038
:10C7D7000E016E000E026E000E036E000E046E1246
:10C7E7000006C007F0086A096A0534073601E3083E
:10C7F7008007500E6E0E50D8A409D0000E016E00AF
:10C807000E026E000E036E000E046E1200028EFF03
:10C817000E0116FF0E0216000E0316058EFF0E04FC
:10C8270016FF0E0516000E0616000E0A6E000E0BFA
:10C837006E000E0C6E000E0D6E7F0E0F5E0E509882
:10C847000F0F5E180E0E6ED8900A360B360C360D8B
:10C85700360450015C0550025806500358D8A0070B
:10C86700D00450015E0550025A0650035A0A80D878
:10C87700900136023603360E2EE6D700D00FAE17DC
:10C88700D00F50800A970FD8B00AD0000E016E0063
:10C897000E026E000E036E000E046E120000D0D85A
:10C8A700900D320C320B320A320F3EF9D717D017E0
:10C8B7000E0F6411D0000E016E000E026E000E0303
:10C8C7006E000E046E120007D0D8900A360B360C95
:10C8D700360D360F0600D00F50D8A4F6D70AC00180
:10C8E700F00BC002F00CC003F00DC004F01200D82A
:10C8F7000E016E000E026E8FEC5BF00001D9510F36
:10C907000B0001FB6F0001D9390F0B0F0B0001FA68
:10C917006F0001DA510F0B0001F96F0001DA390FCF
:10C927000B0F0B0001F86F0001DB510F0B0001F536
:10C937006F0001DB390F0B0F0B0001F46FD40E01F1
:10C947006E000E026E02EC5DF00001D5510F0B0078
:10C9570001F36F0001D5390F0B0F0B0001F26F00C8
:10C9670001D6510F0B0001F76F0001D6390F0B0FDE
:10C977000B0001F66FD4C0F1F00001D7510F0B0087
:10C9870001F06F0001D7390F0B0F0B0001EF6F009C
:10C9970001FA510A0D0001FB51F3240001B26F00A7
:10C9A70001000EF4200001B36F0001F8510A0D00D9
:10C9B70001F951F3240001E86F0001000EF4200093
:10C9C70001E96F0001F4510A0D0001F551F3245EEE
:10C9D7006E0001000EF4205F6E0001F2510A0D0097
:10C9E70001F351F3240001E46F0001000EF420006D
:10C9F70001E56FF1C0AEF00001AF6B0001F6510A1F
:10CA07000D0001F751F3240001E66F0001000EF459
:10CA1700200001E76F0001EF510A0D0001F051F30B
:10CA2700240001E26F0001000EF4200001E36F1201
:10CA370000000E066E20EE02F00150D9260250DAF1
:10CA470022130EDF60120020EE02F00150D92602F9
:10CA570050DA22DF50D8B4120020EE01F00150D98D
:10CA6700260250DA22320EDF60120020EE01F001BA
:10CA770050D9260250DA22DF50D8B4120020EE0334
:10CA8700F00150D9260250DA22990EDF6402D01243
:10CA970000120020EE03F00150D9260250DA22DFFF
:10CAA70050076E20EE01F00150D9260250DA22DF3E
:10CAB700500A6E20EE02F00150D9260250DA22DF2A
:10CAC700500B6E0350D8B402D0F29C00D0000E3F3A
:10CAD700BB010E096E0950D8A403D03AEC5AF000F6
:10CAE700D0000E3FBF010E056E0550D8B407D00029
:10CAF7000E91BE010E066E0F013F9F00D0FC0E0F78
:10CB0700013F170F013F8198CF0CF099CF0DF0012E
:10CB1700C0D9FF02C0DAFFDF500D6EFC0E0F013FD8
:10CB270017030E0F013F1307C098FF08C099FF0AAC
:10CB3700C098FF0BC099FF0CC098FF0DC099FF0567
:10CB470050D8B40DD00F013F8F0650D8B402D09102
:10CB57008E00D00950D8B409D03AEC5AF006D00963
:10CB670050D8A403D00F013F9B00D00350D8B41274
:10CB770000F29C120012009B8E9B9CD388D38AD311
:10CB87008CD390D3920F013F8F0F013F8BCD86FD42
:10CB97000E926E000E936E94680F014869F70E0FA0
:10CBA70001496F2F0EC26E390EC16E1AEC67F00481
:10CBB700EC61F0010E20EC62F00C0E20EC62F0FF4D
:10CBC7000E5D6E8A0EE82EFED75D2EFCD700D0FFD5
:10CBD7000E5D6E8A0EE82EFED75D2EFCD700D0FFC5
:10CBE7000E5D6E8A0EE82EFED75D2EFCD700D0FFB5
:10CBF7000E5D6E8A0EE82EFED75D2EFCD700D0FFA5
:10CC07000E5D6E8A0EE82EFED75D2EFCD700D0FF94
:10CC17000E5D6E8A0EE82EFED75D2EFCD700D0FF84
:10CC27000E5D6E8A0EE82EFED75D2EFCD700D0FF74
:10CC37000E5D6E8A0EE82EFED75D2EFCD700D00162
:10CC47000E20EC62F000D002EC5FF05AEC5BF03B98
:10CC5700EC5CF069EC66F080B002D0010E01D00008
:10CC67000E0001B96F0001B951D8B403D02AEC6E98
:10CC7700F000D082B802D0010E01D0000E0001B83A
:10CC87006F0001B851D8B403D0C9EC68F000D08068
:10CC9700B402D0010E01D0000E0001BA6F0001BA34
:10CCA70051D8B403D0E9EC6AF000D080B602D001C5
:10CCB7000E01D0000E0001BB6F0001BB51D8B4C3F9
:10CCC700D724EC71F0C0D700EF00F04DEC5AF0001C
:10CCD70001BF5180EC5AF009C015F00AC016F00BDD
:10CCE700C017F01F0E186E050E196E3E0E1A6EFD58
:10CCF700EC5FF015C0DCF016C0DDF017C0DEF00009
:10CD07000E186E200E196E410E1A6EDCC015F0DD7E
:10CD1700C016F0DEC017F0FDEC5FF015C02BF01663
:10CD2700C02CF017C02DF07CEC5FF02BC03AF02C34
:10CD3700C03BF0C3EC5AF03AC03EF03BC03FF03C7A
:10CD4700C040F0000E416E200E426E410E436E8CC5
:10CD5700EC5EF03EC053F03FC054F040C055F0DFEA
:10CD6700C02EF0E0C02FF0E1C030F09A0E316E997E
:10CD77000E326E3E0E336EE7EC67F02EC04DF02F8D
:10CD8700C04EF030C04FF09A0E016E990E026E3E03
:10CD97000E036EDFC004F0E0C005F0E1C006F093BB
:10CDA700EC5DF0D8B015D0DFC02EF0E0C02FF0E179
:10CDB700C030F09A0E316E990E326EBE0E336EE7AA
:10CDC700EC67F02EC050F02FC051F030C052F00782
:10CDD700D0000E506E000E516E000E526E00D053F2
:10CDE700C001F054C002F055C003F050C004F05128
:10CDF700C005F052C006F093EC5DF0D8B002D089C0
:10CE07008212004DC001F04EC002F04FC003F05334
:10CE1700C004F054C005F055C006F093EC5DF0D89F
:10CE2700B002D0899212008992120012003AEC5A8D
:10CE3700F0A380B2C007F0B3C008F0000E0A6E0A74
:10CE47000E096EDEEC5DF007500001FA6F0001FA83
:10CE5700510A0DF35000080001B2250001FB6F00D5
:10CE670001FA51100DF3500001FB250001D96FE8BD
:10CE7700C007F0E9C008F0000E0A6E0A0E096EDE60
:10CE8700EC5DF007500001F86F0001F8510A0DF34F
:10CE97005000080001E8250001F96F0001F8511062
:10CEA7000DF3500001F9250001DA6F5EC007F05F4E
:10CEB700C008F0000E0A6E0A0E096EDEEC5DF00780
:10CEC700500001F46F0001F4510A0DF35000085EA1
:10CED700240001F56F0001F451100DF3500001F526
:10CEE700250001DB6FE2C007F0E3C008F0000E0A7F
:10CEF7006E0A0E096EDEEC5DF007500001EF6F0061
:10CF070001EF510A0DF35000080001E2250001F07E
:10CF17006F0001EF51100DF3500001F0250001D70C
:10CF27006FE6C007F0E7C008F0000E0A6E0A0E09A8
:10CF37006EDEEC5DF007500001F66F0001F6510A56
:10CF47000DF35000080001E6250001F76F0001F618
:10CF570051100DF3500001F7250001D66FE4C0070B
:10CF6700F0E5C008F0000E0A6E0A0E096EDEEC5DF1
:10CF7700F007500001F26F0001F2510A0DF3500063
:10CF8700080001E4250001F36F0001F251100DF3D1
:10CF9700500001F3250001D56FAEC0F1F0AEC0D44B
:10CFA700F0D80E016E000E026E010E036E7EEC606D
:10CFB700F0D40E016E000E026E010E036E1CEC65BE
:10CFC700F00F013F8F120030C034F0356A366A2FF8
:10CFD70034343601E335803450396E33C034F0359C
:10CFE7006A366A3234343601E335803450386E3964
:10CFF70050D8B40BD03850395CD8B00ED039500067
:10D00700083824346E180E346407D031C02EF0323D
:10D01700C02FF033C030F012003850D8B40BD039DD
:10D0270050385CD8B00ED0385000083924346E1808
:10D037000E346407D02EC02EF02FC02FF030C03032
:10D04700F01200060E376E30AE02D0378E00D033A6
:10D05700BE378C2F8EFF0E2E16FF0E2F16000E30AA
:10D0670016328EFF0E3116FF0E3216000E331638AB
:10D0770050395CD8B01ED0D8903136323633363876
:10D087000639503818D8B40FD0370637C034F007F0
:10D097000E3416D8B408D0EFD706D0D89030322F38
:10D0A700322E32392A00D038503918D8B424D0F566
:10D0B700D722D03950385CD8B01ED0D8902E362F12
:10D0C700363036390639503818D8B40FD0370637C6
:10D0D700C034F0070E3416D8B408D0EFD706D0D82E
:10D0E70090333232323132382A00D038503918D89A
:10D0F700B402D0F5D700D037AE0CD0FF0E2E1AFFF2
:10D107000E2F1AFF0E301A010E2E26000E2F2200A8
:10D117000E302237AC0DD0FF0E311AFF0E321AFF38
:10D127000E331A010E3126000E3222000E33220072
:10D13700D0000E376E2E5031262F5032223050330A
:10D147002233AE0FD0FF0E311AFF0E321AFF0E3305
:10D157001A010E3126000E3222000E3322010E373D
:10D167006E00D031C001F032C002F033C003F03995
:10D17700C004F037C005F029EC5EF001C02EF002C4
:10D18700C02FF003C030F012001200010E20EC6235
:10D19700F0000E5A6E000E546E5B0E556EFF0E5663
:10D1A7006E010E49EC5DF0000E546E1C0E556EFFBD
:10D1B7000E566E020E49EC5DF0000E546EB30E551E
:10D1C7006EFE0E566E030E49EC5DF0000E546EC8EF
:10D1D7000E556EFE0E566E040E49EC5DF0030E54AE
:10D1E7006EF50E556EFD0E566E040E49EC5DF00F92
:10D1F7000E20EC62F0000E0001B16F000EB06F0060
:10D2070001B1BF0AD00001B15106E11E0E0001B005
:10D217005DD8B0B0D001D0AED0EA0E596EC30EE8DB
:10D227002EFED7592EFCD700F080B402D0010E0194
:10D23700D0000E0001BA6F0001BA51D8B411D00066
:10D247000E0001B16F000EB06F010E5A6E0F0E5433
:10D257006EF50E556EFD0E566E040E49EC5DF00030
:10D26700D080B002D0010E01D0000E0001B96F00CE
:10D2770001B951D8B411D0000E0001B16F000EB042
:10D287006F000E5A6E030E546EF50E556EFD0E5658
:10D297006E040E49EC5DF000D080BA02D0010E0199
:10D2A700D0000E0001B76F0001B751D8B458D05A5B
:10D2B70004D8A460D0000E0001E36F140EE26F00E3
:10D2C7000E0001E76F0B0EE66F000E0001AF6F0057
:10D2D7000EAE6F000E0001E56F060EE46F000E5FE5
:10D2E7006E170E5E6E000E0001E96F3A0EE86F00D2
:10D2F7000E0001B36F000EB26F000E0001BF6F6624
:10D307000E0001DF6FCA0E0001E06F410E0001E160
:10D317006F000E0001DC6FA00E0001DD6F410E00F3
:10D3270001DE6F140E0001ED6F000E0001BD6F16D8
:10D337000E0001EA6F000E0001BC6F170E0001EE30
:10D347006F000E0001BE6F170E0001EB6F3B0E0062
:10D3570001EC6F1AEC67F00ED002D00CD000D000B1
:10D3670001B04BB12B0001B1BF57D70001B151023A
:10D37700E14CD700D00C0E20EC62F012002D6E6D40
:10D387000E2D64A0D0000E126E030E116E000E0A51
:10D397006E0A0E096E000E046E640E036E2DC00138
:10D3A700F0026A7BEC5CF001C007F002C008F0DE17
:10D3B700EC5DF0090E07240F6E000E0820106E9327
:10D3C700EC5AF0570E0F24F66EFD0E1020F76E097B
:10D3D70000F5CF18F00900F5CF19F00A00F5CF1ABC
:10D3E700F0000E0A6E640E096E2DC007F0086ADEA3
:10D3F700EC5DF0120E07240F6E000E0820106E0071
:10D407000E126E030E116E93EC5AF0570E0F24F6A0
:10D417006EFD0E1020F76E0900F5CF15F00900F527
:10D42700CF16F00A00F5CF17F0FDEC5FF015C02A14
:10D43700F016C02BF017C02CF0000E126E030E1161
:10D447006E000E046E0A0E036E2DC001F0026A7B99
:10D45700EC5CF001C00FF002C010F093EC5AF057EB
:10D467000E0F24F66EFD0E1020F76E0900F5CF188B
:10D47700F00900F5CF19F00A00F5CF1AF02AC01508
:10D48700F02BC016F02CC017F0FDEC5FF015C0278D
:10D49700F016C028F017C029F027C015F028C016CD
:10D4A700F029C017F0000E186E000E196E3F0E1A05
:10D4B7006EFDEC5FF015C024F016C025F017C026EE
:10D4C700F0120062D00A0E2D645FD0000E126E03B8
:10D4D7000E116E000E046E0A0E036E2DC001F002CF
:10D4E7006A7BEC5CF001C00FF002C010F093EC5ABD
:10D4F700F0570E0F24F66EFD0E1020F76E0900F59B
:10D50700CF18F00900F5CF19F00A00F5CF1AF0008F
:10D517000E0A6E0A0E096E2DC007F0086ADEEC5D72
:10D52700F0090E07240F6E000E0820106E000E1271
:10D537006E030E116E93EC5AF0570E0F24F66EFD24
:10D547000E1020F76E0900F5CF15F00900F5CF167C
:10D55700F00A00F5CF17F0FDEC5FF015C02AF016C2
:10D56700C02BF017C02CF02AC015F02BC016F02CDA
:10D57700C017F0000E186E000E196E3F0E1A6EFDE2
:10D58700EC5FF098D7120000D02D50030D570EF323
:10D5970024F66EFD0EF420F76E0900F5CF15F0099D
:10D5A70000F5CF16F00A00F5CF17F0000E186E0041
:10D5B7000E196E3F0E1A6EFDEC5FF015C024F016C3
:10D5C700C025F017C026F012001200010E20EC62F1
:10D5D700F0DFC05AF0E0C05BF0E1C05CF0000E5431
:10D5E7006E070E556EFF0E566E010E49EC5DF0008C
:10D5F7000E546E460E556EFF0E566E020E49EC5DCA
:10D60700F0000E546EE10E556EFD0E566E030E4978
:10D61700EC5DF0C00E406E000E416E310E426EFFA3
:10D627000E436EDFC044F0E0C045F0E1C046F000B5
:10D637000E486EDF0E476E87EC74F0000E546EC016
:10D647000E556E000E566E040E49EC5DF00D0E542D
:10D657006EF50E556EFD0E566E040E49EC5DF00F1D
:10D667000E20EC62F0000E0001B16F000EB06F00EB
:10D6770001B1BF0AD00001B15106E11E0E0001B091
:10D687005DD8B0E1D001D0DFD0EA0E596EC30EE805
:10D697002EFED7592EFCD700F080B602D0010E011E
:10D6A700D0000E0001BB6F0001BB51D8B452D000AF
:10D6B7000E0001B16F000EB06F5AC001F05BC002DF
:10D6C700F05CC003F0660E046E040E056E420E0693
:10D6D7006E93EC5DF0D8B014D05AC02EF05BC02F1B
:10D6E700F05CC030F0CD0E316ECC0E326E3D0E3395
:10D6F7006EE7EC67F02EC05AF02FC05BF030C05CCD
:10D70700F00C0E20EC62F0C00E406E000E416EE68B
:10D717000E426EFF0E436E5AC044F05BC045F05C8C
:10D72700C046F087EC74F00D0E546EC00E556E00B7
:10D737000E566E040E49EC5DF00D0E546EF50E5547
:10D747006EFD0E566E040E49EC5DF00F0E20EC6276
:10D75700F000D082B802D0010E01D0000E0001B84F
:10D767006F0001B851D8B452D0000E0001B16F005C
:10D777000EB06F000E016E000E026E000E036E5AA1
:10D78700C004F05BC005F05CC006F093EC5DF0D818
:10D79700B014D05AC03AF05BC03BF05CC03CF0CD4F
:10D7A7000E3D6ECC0E3E6E3D0E3F6EE1EC5AF03AEA
:10D7B700C05AF03BC05BF03CC05CF00C0E20EC6242
:10D7C700F0C00E406E000E416EEC0E426EFF0E432F
:10D7D7006E5AC044F05BC045F05CC046F087EC74FD
:10D7E700F00D0E546EC00E556E000E566E040E49A7
:10D7F700EC5DF00D0E546EF50E556EFD0E566E0473
:10D807000E49EC5DF00F0E20EC62F000D080BA02FA
:10D81700D0010E01D0000E0001B76F0001B751D83B
:10D82700B407D05AC0DFF05BC0E0F05CC0E1F00B9A
:10D83700D00001B04BB12B0001B1BF26D70001B119
:10D847005102E11BD700D00C0E20EC62F012002A27
:10D857006E2AAEFED02A6C2A50800A120FD8A092E8
:10D86700D0000E126E030E116E000E0A6E0A0E091C
:10D877006E000E046E640E036E2A50016E026A017A
:10D88700BE02067BEC5CF001C007F002C008F0DEC8
:10D89700EC5DF0090E07240F6E000E0820106E9342
:10D8A700EC5AF0570E0F24F66EFD0E1020F76E0996
:10D8B70000F5CF18F00900F5CF19F00A00F5CF1AD7
:10D8C700F0000E0A6E640E096E2A50076E086A078A
:10D8D700BE0806DEEC5DF0120E07240F6E000E0880
:10D8E70020106E000E126E030E116E93EC5AF05755
:10D8F7000E0F24F66EFD0E1020F76E0900F5CF15FA
:10D90700F00900F5CF16F00A00F5CF17F0FDEC5F30
:10D91700F015C027F016C028F017C029F027C0154A
:10D92700F028C016F029C017F0000E126E030E1172
:10D937006E000E046E0A0E036E2A50016E026A0113
:10D94700BE02067BEC5CF001C00FF002C010F09342
:10D95700EC5AF0570E0F24F66EFD0E1020F76E09E5
:10D9670000F5CF18F00900F5CF19F00A00F5CF1A26
:10D97700F0FDEC5FF015C024F016C025F017C026A7
:10D98700F0120054D02A50800A750FD8A04FD0004B
:10D997000E0A6E0A0E096E2A50076E086A07BE083D
:10D9A70006DEEC5DF0090E07240F6E000E0820104E
:10D9B7006E000E126E030E116E93EC5AF0570E0F97
:10D9C70024F66EFD0E1020F76E0900F5CF15F0094D
:10D9D70000F5CF16F00A00F5CF17F0000E126E0310
:10D9E7000E116E000E046E0A0E036E2A50016E02AF
:10D9F7006A01BE02067BEC5CF001C00FF002C010AA
:10DA0700F093EC5AF0570E0F24F66EFD0E1020F728
:10DA17006E0900F5CF18F00900F5CF19F00A00F5E7
:10DA2700CF1AF0FDEC5FF0A6D7120000D02A500302
:10DA37000D570EF324F66EFD0EF420F76E0900F570
:10DA4700CF24F00900F5CF25F00A00F5CF26F01214
:10DA5700002A50800A120FD8A092D0000E126E032F
:10DA67000E116E000E0A6E0A0E096E000E046E6429
:10DA77000E036E2A50016E026A01BE02067BEC5C41
:10DA8700F001C007F002C008F0DEEC5DF0090E07F8
:10DA9700240F6E000E0820106E93EC5AF07E0E0FC6
:10DAA70024F66EFD0E1020F76E0900F5CF18F00969
:10DAB70000F5CF19F00A00F5CF1AF0000E0A6E64D0
:10DAC7000E096E2A50076E086A07BE0806DEEC5D6F
:10DAD700F0120E07240F6E000E0820106E000E12B3
:10DAE7006E030E116E93EC5AF07E0E0F24F66EFD48
:10DAF7000E1020F76E0900F5CF15F00900F5CF16C7
:10DB0700F00A00F5CF17F0FDEC5FF015C027F0160F
:10DB1700C028F017C029F027C015F028C016F02933
:10DB2700C017F0000E126E030E116E000E046E0A7F
:10DB37000E036E2A50016E026A01BE02067BEC5C80
:10DB4700F001C00FF002C010F093EC5AF07E0E0FF8
:10DB570024F66EFD0E1020F76E0900F5CF18F009B8
:10DB670000F5CF19F00A00F5CF1AF0FDEC5FF015BC
:10DB7700C024F016C025F017C026F0120054D02A92
:10DB870050800A750FD8A04FD0000E0A6E0A0E09F2
:10DB97006E2A50076E086A07BE0806DEEC5DF009BC
:10DBA7000E07240F6E000E0820106E000E126E0373
:10DBB7000E116E93EC5AF07E0E0F24F66EFD0E10CA
:10DBC70020F76E0900F5CF15F00900F5CF16F00A1A
:10DBD70000F5CF17F0000E126E030E116E000E0443
:10DBE7006E0A0E036E2A50016E026A01BE02067BA0
:10DBF700EC5CF001C00FF002C010F093EC5AF07E1D
:10DC07000E0F24F66EFD0E1020F76E0900F5CF18E3
:10DC1700F00900F5CF19F00A00F5CF1AF0FDEC5F17
:10DC2700F0A6D7120000D02A50030D7E0EF324F67B
:10DC37006EFD0EF420F76E0900F5CF24F00900F50C
:10DC4700CF25F00A00F5CF26F012001200010E20B2
:10DC5700EC62F0000E546EDD0E556EFE0E566E0130
:10DC67000E49EC5DF0AEC050F0AFC051F091EC61E1
:10DC7700F050C0A0F051C0A1F0000E546EA0C055E6
:10DC8700F0A1C056F0020E49EC5DF0C00E406E00E8
:10DC97000E416EC50E426EFD0E436EE4C044F0E5C4
:10DCA700C045F0E6C046F0E7C047F0E2C048F0E301
:10DCB700C049F087EC74F0000E546EC00E556E002C
:10DCC7000E566E030E49EC5DF0C00E406E000E411D
:10DCD7006E920E426EFF0E436E5EC044F05FC0450B
:10DCE700F0E8C046F0E9C047F087EC74F0000E5446
:10DCF7006EC00E556E000E566E040E49EC5DF0AE0A
:10DD0700C0A7F0E4C0A2F0E6C0A3F0E2C0A4F05EB2
:10DD1700C0A5F0E8C0A6F0000E0001A96F000EA88C
:10DD27006F0F0E20EC62F0000E546EF50E556EFD6F
:10DD37000E566E020E49EC5DF0000E0001B16F0049
:10DD47000EB06F0001B1BF0AD00001B15106E11E4C
:10DD57000E0001B05DD8B070D201D06ED2C00E40B7
:10DD67006E000E416EF10E426EFF0E436EA7C04469
:10DD7700F0456A87EC74F0EA0E5A6EC30EE82EFE81
:10DD8700D75A2EFCD700F080B602D0010E01D00082
:10DD97000E0001BB6F0001BB51D8B4C1D0000E000B
:10DDA70001B16F000EB06F0001A8510001A911D891
:10DDB700A425D0060E0001A76103D00001A72B0000
:10DDC700D00C0E20EC62F0000E546EA7C050F0513C
:10DDD7006A91EC61F050C055F051C056F0020E49FF
:10DDE700EC5DF0000E546EF50E556EFD0E566E028C
:10DDF7000E49EC5DF00F0E20EC62F091D0020E00A0
:10DE070001A8190001A911D8A416D01F0E0001A25C
:10DE17006103D00001A22B00D0000E00019C6FBE51
:10DE27000E00019D6FFF0E00019E6FA2C09FF003C1
:10DE37000E03EC5BF074D0040E0001A8190001A9D1
:10DE470011D8A416D00C0E0001A36103D00001A3C2
:10DE57002B00D0030E00019C6FBE0E00019D6FFFCB
:10DE67000E00019E6FA3C09FF0030E03EC5BF057FB
:10DE7700D0060E0001A8190001A911D8A416D06375
:10DE87000E0001A46103D00001A42B00D0060E00F0
:10DE9700019C6FBE0E00019D6FFF0E00019E6FA4D7
:10DEA700C09FF0030E03EC5BF03AD0080E0001A808
:10DEB700190001A911D8A416D0170E0001A56103F6
:10DEC700D00001A52B00D0000E00019C6FBE0E00F4
:10DED700019D6FFF0E00019E6FA5C09FF0040E030A
:10DEE700EC5BF01DD00A0E0001A8190001A911D89A
:10DEF700A416D03B0E0001A66103D00001A62B009B
:10DF0700D0030E00019C6FBE0E00019D6FFF0E0037
:10DF1700019E6FA6C09FF0040E03EC5BF000D0805B
:10DF2700B402D0010E01D0000E0001BA6F0001BA91
:10DF370051D8B43CD00001A9BF08D00001A9510BAA
:10DF4700E10A0E0001A85DD8B006D0020E0001A8B4
:10DF570027000EA92300D0000E0001B16F000EB0FC
:10DF67006FA8C05AF0A9C05BF0D8905A365B36024A
:10DF77000E5A26000E5B22200E5A24D96E010E5B24
:10DF870020DA6EDF50546EF50E556EFD0E566ED8C4
:10DF9700900001A835D96E0001A935DA6E200ED997
:10DFA70026010EDA22DF5049EC5DF000D080B00286
:10DFB700D0010E01D0000E0001B96F0001B951D890
:10DFC700B43CD00001A9BF0ED00001A95105E10260
:10DFD7000E0001A85DD8A006D00001FE0EA827FFFD
:10DFE7000EA92300D0000E0001B16F000EB06FA87C
:10DFF700C05AF0A9C05BF0D8905A365B36020E5A69
:10E0070026000E5B22200E5A24D96E010E5B20DA01
:10E017006EDF50546EF50E556EFD0E566ED890009D
:10E0270001A835D96E0001A935DA6E200ED926016F
:10E037000EDA22DF5049EC5DF000D082B802D00141
:10E047000E01D0000E0001B86F0001B851D8B4C45A
:10E05700D0000E0001B16F000EB06F0001A8510093
:10E0670001A911D8A426D00001A7510001D8B403F3
:10E07700D00001A70700D00C0E20EC62F0000E5470
:10E087006EA7C050F0516A91EC61F050C055F05145
:10E09700C056F0020E49EC5DF0000E546EF50E55B9
:10E0A7006EFD0E566E020E49EC5DF00F0E20EC620F
:10E0B700F093D0020E0001A8190001A911D8A416E7
:10E0C700D0010E0001A26503D00001A20700D00015
:10E0D7000E00019C6FBE0E00019D6FFF0E00019E9A
:10E0E7006FA2C09FF0030E03EC5BF076D0040E0026
:10E0F70001A8190001A911D8A416D0010E0001A387
:10E107006503D00001A30700D0030E00019C6FBE7A
:10E117000E00019D6FFF0E00019E6FA3C09FF003CD
:10E127000E03EC5BF059D0060E0001A8190001A9F7
:10E1370011D8A416D0140E0001A46503D00001A4C1
:10E147000700D0060E00019C6FBE0E00019D6FFFF9
:10E157000E00019E6FA4C09FF0030E03EC5BF03C22
:10E16700D0080E0001A8190001A911D8A417D000E2
:10E1770001A5510001D8B403D00001A50700D000C4
:10E187000E00019C6FBE0E00019D6FFF0E00019EE9
:10E197006FA5C09FF0040E03EC5BF01ED00A0E00C3
:10E1A70001A8190001A911D8A417D00001A6510090
:10E1B70001D8B403D00001A60700D0030E00019CCC
:10E1C7006FBE0E00019D6FFF0E00019E6FA6C09FE0
:10E1D700F0040E03EC5BF000D080BA02D0010E0110
:10E1E700D0000E0001B76F0001B751D8B41AD0A7FD
:10E1F700C0AEF00001AF6BA2C0E4F00001E56BA375
:10E20700C0E6F00001E76BA4C0E2F00001E36BA5F4
:10E21700C05EF05F6AA6C0E8F00001E96B1AEC6720
:10E22700F00BD00001B04BB12B0001B1BF97D50067
:10E2370001B15102E18CD500D00C0E20EC62F01236
:10E2470000010E20EC62F0000E546EF60E556EFDC6
:10E257000E566E010E49EC5DF0C00E406E000E4189
:10E267006EB40E426EFF0E436EEEC044F0456ABEBA
:10E27700C046F0476A87EC74F0000E546EC00E5526
:10E287006E000E566E020E49EC5DF0C00E406E0039
:10E297000E416ED10E426EFF0E436EEBC044F04549
:10E2A7006AECC046F0476A87EC74F00B0E546EC0F8
:10E2B7000E556E000E566E020E49EC5DF0000E54C0
:10E2C7006E9E0E556EFE0E566E030E49EC5DF0C047
:10E2D7000E406E000E416EB40E426EFF0E436EEDA1
:10E2E700C044F0456ABDC046F0476A87EC74F00049
:10E2F7000E546EC00E556E000E566E040E49EC5D40
:10E30700F0C00E406E000E416ED10E426EFF0E43FE
:10E317006EEAC044F0456ABCC046F0476A87EC74B1
:10E32700F00B0E546EC00E556E000E566E040E495D
:10E33700EC5DF0EDC0A0F0BDC0A1F0EAC0A2F0BC5A
:10E34700C0A3F0EEC0A4F0BEC0A5F0EBC0A6F0ECF1
:10E35700C0A7F0000E0001A96F000EA86F0F0E20D6
:10E36700EC62F0050E546EF50E556EFD0E566E02FC
:10E377000E49EC5DF0000E0001B16F000EB06F00AA
:10E3870001B1BF0AD00001B15106E11E0E0001B074
:10E397005DD8B0B5D201D0B3D2EA0E5A6EC30EE83B
:10E3A7002EFED75A2EFCD700F080B602D0010E0100
:10E3B700D0000E0001BB6F0001BB51D8B4ECD000F8
:10E3C7000E0001B16F000EB06F0001A8510001A946
:10E3D70011D8A416D0170E0001A46103D00001A420
:10E3E7002B00D0050E00019C6FBE0E00019D6FFF34
:10E3F7000E00019E6FA4C09FF0020E03EC5BF0CBF2
:10E40700D0020E0001A8190001A911D8A416D03B0B
:10E417000E0001A56103D00001A52B00D0080E0056
:10E42700019C6FBE0E00019D6FFF0E00019E6FA540
:10E43700C09FF0020E03EC5BF0AED0040E0001A803
:10E44700190001A911D8A416D0170E0001A661035F
:10E45700D00001A62B00D00F0E00019C6FBE0E004E
:10E46700019D6FFF0E00019E6FA6C09FF0020E0375
:10E47700EC5BF091D0060E0001A8190001A911D894
:10E48700A416D03B0E0001A76103D00001A72B0003
:10E49700D0120E00019C6FBE0E00019D6FFF0E0093
:10E4A700019E6FA7C09FF0020E03EC5BF074D008CB
:10E4B7000E0001A8190001A911D8A416D0170E0043
:10E4C70001A06103D00001A02B00D0050E00019C24
:10E4D7006FBE0E00019D6FFF0E00019E6FA0C09FD3
:10E4E700F0040E03EC5BF057D00A0E0001A81900E8
:10E4F70001A911D8A416D03B0E0001A16103D000D9
:10E5070001A12B00D0080E00019C6FBE0E00019DDB
:10E517006FFF0E00019E6FA1C09FF0040E03EC5B1E
:10E52700F03AD00C0E0001A8190001A911D8A416C1
:10E53700D0170E0001A26103D00001A22B00D00F5B
:10E547000E00019C6FBE0E00019D6FFF0E00019E25
:10E557006FA2C09FF0040E03EC5BF01DD00E0E00FF
:10E5670001A8190001A911D8A416D03B0E0001A3D8
:10E577006103D00001A32B00D0120E00019C6FBED7
:10E587000E00019D6FFF0E00019E6FA3C09FF00458
:10E597000E03EC5BF000D080B402D0010E01D00076
:10E5A7000E0001BA6F0001BA51D8B43CD00001A9DE
:10E5B700BF08D00001A9510BE10E0E0001A85DD8DC
:10E5C700B006D0020E0001A827000EA92300D00034
:10E5D7000E0001B16F000EB06FA8C05AF0A9C05B62
:10E5E700F0D8905A365B36020E5A26000E5B220090
:10E5F7000E5A24D96E010E5B20DA6EDF50546EF589
:10E607000E556EFD0E566ED8900001A835D96E00D6
:10E6170001A935DA6E000ED926010EDA22DF50493C
:10E62700EC5DF000D080B002D0010E01D0000E00EA
:10E6370001B96F0001B951D8B43CD00001A9BF0E90
:10E64700D00001A95105E1020E0001A85DD8A0067E
:10E65700D00001FE0EA827FF0EA92300D0000E0050
:10E6670001B16F000EB06FA8C05AF0A9C05BF0D817
:10E67700905A365B36020E5A26000E5B22000E5A5F
:10E6870024D96E010E5B20DA6EDF50546EF50E55FD
:10E697006EFD0E566ED8900001A835D96E0001A9FF
:10E6A70035DA6E000ED926010EDA22DF5049EC5D0D
:10E6B700F000D082B802D0010E01D0000E0001B8E0
:10E6C7006F0001B851D8B4F4D0000E0001B16F004B
:10E6D7000EB06F0001A8510001A911D8A417D000EE
:10E6E70001A4510001D8B403D00001A40700D0054C
:10E6F7000E00019C6FBE0E00019D6FFF0E00019E74
:10E707006FA4C09FF0020E03EC5BF0D2D0020E00A4
:10E7170001A8190001A911D8A417D00001A551001B
:10E7270001D8B403D00001A50700D0080E00019C52
:10E737006FBE0E00019D6FFF0E00019E6FA5C09F6B
:10E74700F0020E03EC5BF0B4D0040E0001A8190030
:10E7570001A911D8A417D00001A6510001D8B4030C
:10E76700D00001A60700D00F0E00019C6FBE0E005F
:10E77700019D6FFF0E00019E6FA6C09FF0020E0362
:10E78700EC5BF096D0060E0001A8190001A911D87C
:10E79700A417D00001A7510001D8B403D00001A7E6
:10E7A7000700D0120E00019C6FBE0E00019D6FFF87
:10E7B7000E00019E6FA7C09FF0020E03EC5BF0787E
:10E7C700D0080E0001A8190001A911D8A417D0007C
:10E7D70001A0510001D8B403D00001A00700D00563
:10E7E7000E00019C6FBE0E00019D6FFF0E00019E83
:10E7F7006FA0C09FF0040E03EC5BF05AD00A0E0026
:10E8070001A8190001A911D8A417D00001A151002E
:10E8170001D8B403D00001A10700D0080E00019C65
:10E827006FBE0E00019D6FFF0E00019E6FA1C09F7E
:10E83700F0040E03EC5BF03CD00C0E0001A81900AD
:10E8470001A911D8A417D00001A2510001D8B4031F
:10E85700D00001A20700D00F0E00019C6FBE0E0072
:10E86700019D6FFF0E00019E6FA2C09FF0040E0373
:10E87700EC5BF01ED00E0E0001A8190001A911D8FB
:10E88700A417D00001A3510001D8B403D00001A3FD
:10E897000700D0120E00019C6FBE0E00019D6FFF96
:10E8A7000E00019E6FA3C09FF0040E03EC5BF00007
:10E8B700D080BA02D0010E01D0000E0001B76F0060
:10E8C70001B751D8B411D0A0C0EDF0A1C0BDF0A2DE
:10E8D700C0EAF0A3C0BCF0A4C0EEF0A5C0BEF0A68D
:10E8E700C0EBF0A7C0ECF00BD00001B04BB12B0090
:10E8F70001B1BF52D50001B15102E147D500D00C9B
:10E907000E20EC62F01200440E0001726F000E0040
:10E9170001736F67EF7EF0250E00018519D8B40AE1
:10E92700D040C0D9FF41C0DAFF85C0DFFF404A4170
:10E937002A67EF7EF0000E0001846F000E836F00E0
:10E947000E0001876F000E866F0FD00001868708C3
:10E95700D00001868105D00001878702D00001869B
:10E9670085424A432A01D014D042C0F6FF43C0F77C
:10E97700FF0800F550200AD8B4EBD7030AD8B4EB48
:10E98700D70E0AD8B4E2D71D0AD8B4E8D701D0EC1D
:10E99700D7000186A703D00001869500D042C0F6B4
:10E9A700FF43C0F7FF0800F5505DEC5AF0D8A038D8
:10E9B700D0000E0001846F000E836F00D083C00F5C
:10E9C700F084C010F0000E126E0A0E116E93EC5A0E
:10E9D700F00FC083F010C084F0D00E4A6EFF0E4BCC
:10E9E7006E42C0F6FF43C0F7FF0800F5504C6E4D6E
:10E9F7006A4A504C264B504D224C50000183274DFC
:10EA07005000018423424A432A42C0F6FF43C0F71D
:10EA1700FF0800F5505DEC5AF0D8A01BD0CFD719EE
:10EA2700D042C0F6FF43C0F7FF0800F5502A0AD8C6
:10EA3700A410D072C0D9FF73C0DAFFDECF83F0DD38
:10EA4700CF84F0020E00017227000E7323424A435F
:10EA57002A00D042C0F6FF43C0F7FF0800F5502E4A
:10EA67000AD8A44DD00001878D424A432A42C0F6F6
:10EA7700FF43C0F7FF0800F5502A0AD8A410D07248
:10EA8700C0D9FF73C0DAFFDECF81F0DDCF82F0029D
:10EA97000E00017227000E7323424A432A32D10027
:10EAA7000E0001826F000E816F1ED081C00FF082B1
:10EAB700C010F0000E126E0A0E116E93EC5AF0425F
:10EAC700C0F6FF43C0F7FF0800F5500F26000E10F1
:10EAD70022D00E0F240001816FFF0E10200001824B
:10EAE7006F424A432A00D042C0F6FF43C0F7FF08EF
:10EAF70000F5505DEC5AF0D8A004D1D7D702D10069
:10EB07000E0001826F000E816F00018789FAD077AE
:10EB1700EF7EF00001878520D10001868D1DD10091
:10EB270001868B0001868F18D172C0D9FF73C0DAB6
:10EB3700FFDECF6EF0DDCF6FF0020E00017227000F
:10EB47000E732300016E5100016F11D8A407D0DFA7
:10EB57000E00016E6FFF0E00016F6F00D0000E00F8
:10EB670001716F000E706F04D00001704B712B00A4
:10EB7700D00001705100016E254A6E0001715100ED
:10EB8700016F214B6E4AC0F6FF4BC0F7FFF86A0EC4
:10EB97000EF76403D00800F55005D0F6CFE9FFF76C
:10EBA700CFEAFFEF500009D8B402D0DED700D0007B
:10EBB70001815100018211D8B40FD00001705100BA
:10EBC70001815D0001715100018259D8B005D081E2
:10EBD700C070F082C071F000D00001835100017055
:10EBE7005D0001845100017159D8B009D00001704E
:10EBF700510001835F000171510001845B06D00061
:10EC07000E0001846F000E836F00D0000186A70BF2
:10EC1700D032D009D040C0D9FF41C0DAFF200EDF83
:10EC27006E404A412A00D000018307D8A08407001C
:10EC3700018329F0E100018429D8B41DD0EBD71B4B
:10EC4700D06EC0F6FF6FC0F7FFF86A40C0D9FF412A
:10EC5700C0DAFF0E0EF76403D00800F55005D0F6B2
:10EC6700CFE9FFF7CFEAFFEF50DF6E00016E4B6F82
:10EC77002B404A412A00D000017007D8A071070035
:10EC8700017029DEE100017129D8A4DAD7000186D5
:10EC9700B70CD067EF7EF009D040C0D9FF41C0DA8A
:10ECA700FF200EDF6E404A412A00D000018307D8BB
:10ECB700A0840700018329F0E100018429D8B46703
:10ECC700EF7EF0EAD767EF7EF072C0D9FF73C0DA44
:10ECD700FFDF500001856F020E00017227000E73DF
:10ECE7002300D0850E00016E6F000E00016F6F00CC
:10ECF7000E0001716F010E706F5AD7C00E000186AA
:10ED0700132BD042C0F6FF43C0F7FF424A432A08FD
:10ED170000F5CF85F000018551000AD8B477EF7E62
:10ED2700F0580AD8B4FCD63B0AD8B4CED7070AD8CD
:10ED3700B413D0020AD8B4EDD60F0AD8B40DD00652
:10ED47000AD8B4EAD61C0AD8B4EFD6060AD8B4D57E
:10ED5700D70D0AD8B4E6D6C5D7070E00018715D850
:10ED6700B4C5EF7AF0000187A906D0000E00018232
:10ED77006F060E816F00D072C0D9FF73C0DAFFDE55
:10ED8700CF7AF0DECF7BF0DDCF7CF0030E0001728F
:10ED970027000E732300017CAF12D07AC001F07BED
:10EDA700C002F07CC003F06EEC5AF001C07AF002AA
:10EDB700C07BF003C07CF0030E0001861300D00077
:10EDC7000E0001796F000E786F00017A5100017B08
:10EDD7001100017C11D8B48DD0820E4A6EFF0E4B04
:10EDE7006E7AC04CF07BC04DF07CC04EF07DC04FBA
:10EDF700F0100E05D0D8904F324E324D324C32E8DB
:10EE07002EF9D74C504A240001786F000E4B200092
:10EE170001796F00017807D8A0790778C00FF079DA
:10EE2700C010F0000E126E030E116E93EC5AF00F25
:10EE3700C078F010C079F078C007F079C008F0000A
:10EE47000E0A6E0A0E096EDEEC5DF007C078F00858
:10EE5700C079F0000179AF05D000017807D8A07913
:10EE67000700D00001785100082BEC6CF024C07427
:10EE7700F025C075F026C076F074C015F075C01681
:10EE8700F076C017F07AC018F07BC019F07CC01A72
:10EE9700F0FDEC5FF015C074F016C075F017C07682
:10EEA700F074C001F075C002F076C003F0000E04E4
:10EEB7006E800E056E3F0E066E93EC5DF0D8B005C2
:10EEC700D000017807D8A0790714D074C001F07575
:10EED700C002F076C003F0000E046E200E056E41EE
:10EEE7000E066E93EC5DF0D8A004D00001784B7944
:10EEF7002B00D0000182BF08D0000182511EE10D16
:10EF07000E0001815DD8B019D07AC02EF07BC02FDA
:10EF1700F07CC030F000018151C2EC69F024C031AF
:10EF2700F025C032F026C033F0E7EC67F02EC07A48
:10EF3700F02FC07BF030C07CF000D0000179BF0813
:10EF4700D00001795128E10A0E0001785DD8B0237D
:10EF5700D000017A5100017B1100017C11D8B477F0
:10EF6700D07AC02BF07BC02CF07CC02DF07CEC5FFE
:10EF7700F02B502C102D102E10D8A469D000017939
:10EF8700BF66D00001795107E1020E0001785DD814
:10EF9700B002D05DD000D074C001F075C002F07629
:10EFA700C003F0700E046E890E056E400E066E9358
:10EFB700EC5DF0D8B003D00001F70E02D00001F8E5
:10EFC7000E7827FF0E792300D0000178512BEC6CC7
:10EFD700F024C074F025C075F026C076F017D07AFB
:10EFE700C001F07BC002F07CC003F074C004F07570
:10EFF700C005F076C006F044EC63F001C07DF00276
:10F00700C07EF003C07FF004C080F017D07AC00143
:10F01700F07BC002F07CC003F074C004F075C0053B
:10F02700F076C006F0DEEC63F001C07DF002C07E32
:10F03700F003C07FF004C080F000D0000E00017A1A
:10F047006F000E00017B6F000E00017C6F34D07AD9
:10F05700C02BF07BC02CF07CC02DF07CEC5FF02B3C
:10F06700C07DF02CC07EF02DC07FF02EC080F07ADE
:10F07700C03AF07BC03BF07CC03CF07DC009F07E1D
:10F08700C00AF07FC00BF080C00CF02AEC5BF009DF
:10F09700C03DF00AC03EF00BC03FF0E1EC5AF03A39
:10F0A700C07AF03BC07BF03CC07CF0000E000179D9
:10F0B7006F000E786F00D0010E0001856F0A0E00F9
:10F0C700018519D8B422D001D020D0000185510480
:10F0D7000D2F0EF324F66EFD0EF420F76E0900F5E2
:10F0E7005000017D5D0900F55000017E590900F5CA
:10F0F7005000017F590900F55000018059D8A0053B
:10F10700D001D003D00001852BD9D785C04AF04B59
:10F117006A4ABE4B06000181514A26000182514BC3
:10F1270022000178514A26000179514B224A5000AA
:10F1370001835F4B500001845B000187B706D00055
:10F1470001815100018211D8B405D000018307D88D
:10F15700A0840700D0030E000186154A6E000E003A
:10F167000187154B6E4A504B10D8B405D000018368
:10F1770007D8A0840700D0000186A548D0030E0059
:10F187000186154A6E000E000187154B6E4A504BDB
:10F1970010D8B417D0000186B105D0000E00016465
:10F1A7006F2B0E04D0000E0001646F2D0E636F00ED
:10F1B700D040C0D9FF41C0DAFF63C0DFFF404A41FA
:10F1C7002A00D0000186A116D040C0D9FF41C0DA7D
:10F1D700FF200EDF6E404A412A0DD040C0D9FF41C3
:10F1E700C0DAFF300EDF6E404A412A00018307D89C
:10F1F700A0840700D0000184BF9ED000018451ED98
:10F20700E100018305D8A097D0E8D795D000018603
:10F21700A70FD01AD00DD040C0D9FF41C0DAFF20C8
:10F227000EDF6E404A412A00018307D8A0840700F9
:10F23700D0000184BF09D000018451EDE1000183B2
:10F2470005D8A002D0E8D700D0030E000186154AE2
:10F257006E000E000187154B6E4A504B10D8B4153F
:10F26700D0000186B105D0000E0001666F2B0E0499
:10F27700D0000E0001666F2D0E656F00D040C0D91B
:10F28700FF41C0DAFF65C0DFFF09D0000186A15347
:10F29700D040C0D9FF41C0DAFF200E4BD0404A41D1
:10F2A7002A4AD07DC001F07EC002F07FC003F08003
:10F2B700C004F000018551040D2F0EF324F66EFDF6
:10F2C7000EF420F76E0900F5CF05F00900F5CF061B
:10F2D700F00900F5CF07F00A00F5CF08F0BCEC5CA9
:10F2E700F001C074F002C075F003C076F004C07777
:10F2F700F074C00EF075C00FF076C010F077C01133
:10F30700F00A0E126E000E136E000E146E000E152C
:10F317006EC6EC5BF00EC074F00FC075F010C076CF
:10F32700F011C077F000017451300F40C0D9FF4190
:10F33700C0DAFFDF6EB3D70001850700018529D842
:10F34700B40FD0AFD70DD040C0D9FF41C0DAFF30DE
:10F357000EDF6E404A412A00017807D8A0790700DE
:10F36700D0000179BF07D000017951EDE1000178A4
:10F3770005D8B0E9D7000182BF0CD0000182510542
:10F38700E1090E0001815DD8A004D0080E000185B7
:10F397006F03D081C085F000D00001855100018145
:10F3A7005F000E000185BFFF0E0001825B00018533
:10F3B700510001D8A403D0000187A709D040C0D9C4
:10F3C700FF41C0DAFF2E0EDF6E404A412A00D0000F
:10F3D7000185512BEC6CF024C060F025C061F0264C
:10F3E700C062F07AC018F07BC019F07CC01AF060D8
:10F3F700C015F061C016F062C017F0FDEC5FF015A4
:10F40700C02BF016C02CF017C02DF07CEC5FF02B52
:10F41700C07DF02CC07EF02DC07FF02EC080F07331
:10F42700D07DC001F07EC002F07FC003F080C00431
:10F43700F000018551040D2F0EF324F66EFD0EF436
:10F4470020F76E0900F5CF05F00900F5CF06F009A2
:10F4570000F5CF07F00A00F5CF08F0BCEC5CF0012F
:10F46700C074F002C075F003C076F004C077F07482
:10F47700C00EF075C00FF076C010F077C011F00A1B
:10F487000E126E000E136E000E146E000E156EC671
:10F49700EC5BF00EC074F00FC075F010C076F01181
:10F4A700C077F000017451300F40C0D9FF41C0DA76
:10F4B700FFDF6E404A412A7DC00EF07EC00FF07F0D
:10F4C700C010F080C011F000018551040D2F0EF31C
:10F4D70024F66EFD0EF420F76E0900F5CF12F00941
:10F4E70000F5CF13F00900F5CF14F00A00F5CF159A
:10F4F700F0C6EC5BF00EC07DF00FC07EF010C07F51
:10F50700F011C080F000D00001850700018529D8DF
:10F51700B40FD086D70DD040C0D9FF41C0DAFF3035
:10F527000EDF6E404A412A00018107D8A0820700FA
:10F53700D00001815100018211D8A4EDD7000186C6
:10F54700A7C2D3000184BFBFD30001845106E100E5
:10F55700018305D8B002D0B7D300D040C0D9FF414E
:10F56700C0DAFF200EDF6E404A412A00018307D828
:10F57700A084070001835100018411D8B4A4D3EDFE
:10F58700D7A2D3C00E000186154A6E000E00018770
:10F59700154B6E4A504B10D8A423D072C0D9FF73B5
:10F5A700C0DAFFDECF7DF0DDCF7EF00001000E7EFA
:10F5B700BFFF0E7F6F806F020E00017227000E7370
:10F5C70023000180AF22D0030E00018613000180C3
:10F5D7001F7F1F7E1F7D6D000E7E237F23802315D7
:10F5E700D072C0D9FF73C0DAFFDECF4AF0DDCF4B50
:10F5F700F04AC07DF04BC07EF000017F6B806B024C
:10F607000E00017227000E732300D0000181510004
:10F61700018211D8A490D000017D5100017E110014
:10F62700017F1100018011D8A486D00001814B828F
:10F637002B82D000D0010E0001856F0A0E000185D4
:10F6470019D8B489D001D087D000018551040D2F76
:10F657000EF324F66EFD0EF420F76E0900F5500048
:10F66700017D5D0900F55000017E590900F5500044
:10F67700017F590900F55000018059D8A06CD001CD
:10F68700D06AD00001852BD9D766D0010E0001853D
:10F697006F080E00018519D8B45ED001D05CD00088
:10F6A700018551040DA50EF324F66EFD0EF420F727
:10F6B7006E0900F55000017D5D0900F55000017EDF
:10F6C700590900F55000017F590900F550000180E4
:10F6D70059D8A041D001D03FD00001852BD9D73BC5
:10F6E700D0010E0001856F0C0E00018519D8B433C7
:10F6F700D001D031D000018551040DFF0EF324F65F
:10F707006EFC0EF420F76E0900F55000017D5D09CF
:10F7170000F55000017E590900F55000017F590995
:10F7270000F55000018059D8A016D001D014D000A0
:10F7370001852BD9D710D000018651C00B000AD8FC
:10F74700B479D7400AD8B4CCD7C00AD8B49ED7402A
:10F757000AD8B470D700D0800E000185BF7F0E4A4B
:10F767006E000181510001855D00018251800A4AC6
:10F7770058D8B003D081C085F017D00001825180DE
:10F787000A4A6E000185510001815D800E000185E6
:10F79700BF7F0E4A58D8B008D000018551000181BB
:10F7A7006F826B81BF820700D00001835100018403
:10F7B70011D8B411D0030E000186154A6E000E0051
:10F7C7000187154B6E4A504B10D8B405D000018302
:10F7D70007D8A0840700D0000187AD1DD0000183A2
:10F7E700510001815D00018251800A4A6E00018447
:10F7F70051800A4A58D8B009D000018151000183CD
:10F807005F000182510001845B06D0000E00018475
:10F817006F000E836F00D0C40E4A6E080E4B6E86C3
:10F82700C04CF087C04DF04A504C164B504D164017
:10F837000E4C180FE1080E4D18D8A40BD000018309
:10F847005100018411D8B42FD000018307D8A084B8
:10F85700072AD0C00E4A6E080E4B6E86C04CF08742
:10F86700C04DF04A504C164B504D16800E4C181B8D
:10F87700E1080E4D18D8A417D0000184BF0ED000A0
:10F8870001845105E1030E0001835DD8A006D00075
:10F8970001FE0E8327FF0E842306D0000E0001848D
:10F8A7006F000E836F00D0800E000185BF7F0E4A68
:10F8B7006E000183510001855D00018451800A4A71
:10F8C70058D8B00BD0000185510001835F000E00AE
:10F8D7000185BFFF0E0001845B06D0000E00018486
:10F8E7006F000E836F00D0000186A56AD0030E005B
:10F8F7000186154A6E000E000187154B6E4A504B64
:10F9070010D8B409D040C0D9FF41C0DAFF2D0E0B83
:10F91700D0404A412A3BD0000186A107D040C0D938
:10F92700FF41C0DAFF200EDF6EF3D7C00E4A6E0824
:10F937000E4B6E86C04CF087C04DF04A504C164BAC
:10F94700504D16800E4C1822E1080E4D18D8A41EF3
:10F95700D040C0D9FF41C0DAFF300EDF6E404A41C8
:10F967002A000186BB05D0000E0001686F780E04DF
:10F97700D0000E0001686F580E676F00D040C0D9E5
:10F98700FF41C0DAFF67C0DFFFC3D700D0000183A4
:10F997005100018411D8B469D140C0D9FF41C0DA00
:10F9A700FF300EDF6E404A412A00018307D8A0844A
:10F9B700070001835100018411D8B457D1EDD75501
:10F9C700D10001835100018411D8B417D0000186FA
:10F9D700B714D040C0D9FF41C0DAFF200EDF6E4018
:10F9E7004A412A00018307D8A084070001835100F8
:10F9F700018411D8B402D0EDD700D0030E000186E0
:10FA0700154A6E000E000187154B6E4A504B10D8F1
:10FA1700B409D040C0D9FF41C0DAFF2D0E0BD0404A
:10FA27004A412A0BD0000186A108D040C0D9FF4126
:10FA3700C0DAFF200EDF6EF3D700D0C00E4A6E0883
:10FA47000E4B6E86C04CF087C04DF04A504C164B9B
:10FA5700504D16400E4C180BE1080E4D18D8A40750
:10FA6700D040C0D9FF41C0DAFF300EDF6EFBD0C0F7
:10FA77000E4A6E080E4B6E86C04CF087C04DF04A9A
:10FA8700504C164B504D16800E4C1803E1080E4D86
:10FA970018D8A4EBD040C0D9FF41C0DAFF300EDF41
:10FAA7006E404A412A000186BB05D0000E00016A5C
:10FAB7006F780E04D0000E00016A6F580E696F0050
:10FAC700D040C0D9FF41C0DAFF69C0DFFFCBD0CD3E
:10FAD700D0B3D000D081C04AF082C04BF0D8904A52
:10FAE700364B36D8904A364B362F0E4A24F66EFDE3
:10FAF7000E4B20F76E0900F5CF05F00900F5CF068C
:10FB0700F00900F5CF07F00A00F5CF08F07DC00136
:10FB1700F07EC002F07FC003F080C004F0BCEC5C54
:10FB2700F001C00EF002C00FF003C010F004C011C6
:10FB3700F00A0E126E000E136E000E146E000E15F4
:10FB47006EC6EC5BF00E5074D07DC001F07EC00233
:10FB5700F07FC003F080C004F081C04AF082C04B40
:10FB6700F0D8904A364B36D8904A364B36A50E4ACF
:10FB770024F66EFD0E4B20F76E0900F5CF05F00950
:10FB870000F5CF06F00900F5CF07F00A00F5CF081A
:10FB9700F0BCEC5CF001500F0B00016D6F000186AB
:10FBA700BB05D0810E00016B6FFF0E04D0700E00F5
:10FBB700016B6FFF0E00016C6F00D000016D5101EA
:10FBC7000D6BC04AF06CC04BF0F3504A26F4504B13
:10FBD700224AC0F6FF4BC0F7FF0800F5CF85F03C7F
:10FBE700D07DC001F07EC002F07FC003F080C0046A
:10FBF700F081C04AF082C04BF0D8904A364B36D8D5
:10FC0700904A364B36FF0E4A24F66EFC0E4B20F711
:10FC17006E0900F5CF05F00900F5CF06F00900F5EC
:10FC2700CF07F00A00F5CF08F0BCEC5CF0015007F5
:10FC37000B300F0001856F10D000018651C00B00FB
:10FC47000AD8B448D7400AD8B4CBD7C00AD8B47CAE
:10FC5700D7400AD8B43FD700D040C0D9FF41C0DA57
:10FC6700FF85C0DFFF404A412A00D000018107D845
:10FC7700A0820700018129E0E100018229D8A4DCE4
:10FC8700D7000186A720D0000184BF1DD0000184C2
:10FC97005106E100018305D8B002D015D000D0404D
:10FCA700C0D9FF41C0DAFF200EDF6E404A412A006B
:10FCB700018307D8A084070001835100018411D86C
:10FCC700B402D0EDD700D042C0F6FF43C0F7FF42E1
:10FCD7004A432A0800F5CF85F000018551D8B403BF
:10FCE700D08FEF74F000D040C0D9FF41C0DAFF00D9
:10FCF7000EDF6E1200120000010000000800000075
:10FD0700400000000002000000100000008000001A
:10FD170000000400000020000000000100000008AF
:10FD27000000004000000000010000000A00000081
:10FD370064000000E803000010270000A08601000F
:10FD470040420F008096980000E1F50500CA9A3BF3
:10FD570000803FCDCC3DD7233C12833AB7D138C67C
:10FD67002737388635C0D633CC2B32708930E7DB5E
:10FD77002EE53C1E42A20D00803F00204100C842F4
:10FD8700007A44401C4650C34724744997184BBC1B
:10FD9700BE4C6B6E4E03155079AD60F3497101008F
:10FDA700000010000000000100000010000000002B
:10FDB70001000000100000000001000000102530C5
:10FDC70032752F253032752F2530327520202020AF
:10FDD700202020202020202020002020202020203C
:10FDE70020202020202020202020202020200052FA
:10FDF7006965676F202020202020202020202020D8
:10FE0700202020004C756E657320202020202020A4
:10FE170020202020202020200053616261646F2071
:10FE270020202020202020202020202020004D617D
:10FE3700727465732020202020202020202020207D
:10FE47002020004A75657665732020202020202019
:10FE57002020202020202000446F6D696E676F20CE
:10FE670020202020202020202020202000566965E7
:10FE7700726E657320202020202020202020202043
:10FE870020004D696572636F6C6573202020202008
:10FE970020202020202000496C756D696E61636900
:10FEA7006F6E20202020202020202000706F7220DD
:10FEB7006465666563746F3F202020202020202022
:10FEC700002020204E6F20202020202020202020CE
:10FED70053692020200050726F6772616D2064653E
:10FEE7006C2072656C6F6A2020200056656E746105
:10FEF7006E61207072696E636970616C20202000EA
:10FF070050726F6772616D6163696F6E20646520FF
:10FF17006C6120200069636961722061206C6F73D6
:10FF27002076616C6F726573200054656D70657221
:10FF370061747572613A20252E316625634300543A
:10FF4700656D70657261747572612064656C20619E
:10FF570067756100BF457374612073656775726F5C
:10FF6700206465207265696E00303132333435366E
:10FF7700373839414243444546003031323334350E
:10FF87003637383961626364656600253032753A01
:10FF97002530327520202020202020002530327582
:10FFA7003A253032753A25303275202000496E697E
:10FFB7006320253032753A253032750054413A2096
:10FFC700252E316625634320200046696E202530A3
:10FFD70032753A2530327500286E756C6C2900250C
:10FFE700302E316600252E3166002564002573000A
:01FFF7000009
:08FFF800AEF718FFF3F8FFF16A
:020000040001F9
:01000000FF00
:00000001FF
