:0400000021EF5EF09E
:10BA5000F29C550EA76EAA0EA76E0F013F8BF28CBB
:10BA6000120000A0416604421400060017000B00FB
:10BA70003A0017173B3BC280C28200D0C2B2FED749
:10BA8000030E016E980EE82EFED7012EFCD7C4CF10
:10BA900086F0C2901200036E000E026E3A0E036032
:10BAA00006D02F0E036403D0010E026E00D002C038
:10BAB00001F0013012001200015002100310D8B43E
:10BAC00006D0000E011A000E021A800E031A01C0E1
:10BAD00001F002C002F003C003F012000C6E0C5023
:10BAE000016E026A036A8E0E046E000E056E40EC53
:10BAF00061F001C009F002C00AF003C00BF01200AF
:10BB000012000F501102F3CF13F0F4CF14F00F50C6
:10BB10001202F350142610501102F350142613C0D1
:10BB20000FF014C010F01200120002000500020015
:10BB3000080002000F0002001200040005000400CB
:10BB4000080004000F0004001200020000000300BF
:10BB500000000300030003000600040000000400CE
:10BB60000300000E3D6E3BAE07D03A6C3B1ED8B0D2
:10BB70003B2A010E3D6E00D03AC001F03BC002F0FE
:10BB8000036A8E0E046E3DC005F040EC61F001C00A
:10BB90003AF002C03BF003C03CF0120012003D50EE
:10BBA0003E103F10D8B407D0000E3D1A000E3E1ACA
:10BBB000800E3F1A00D03AC02EF03BC02FF03CC0A0
:10BBC00030F03DC031F03EC032F03FC033F02CECDD
:10BBD00069F02EC03AF02FC03BF030C03CF01200AC
:10BBE00012008E0E116E07D0D8900C320B320A3232
:10BBF0000932112A00D0000E09140D6E000E0A142D
:10BC00000E6E000E0B140F6EFF0E0C14106E0D5006
:10BC10000E100F101010D8A4E7D709C001F00AC009
:10BC200002F00BC003F011C004F0000E056E40ECF2
:10BC300061F001C009F002C00AF003C00BF012006D
:10BC4000120001EE38F0080EEE6AE806FDE100EEA3
:10BC500060F0430EEE6AE806FDE12A0EF66EBB0EBA
:10BC6000F76E000EF86E01EE00F010EE38F00900ED
:10BC7000F5CFEEFFE550E150FAE1620EF66EBA0E36
:10BC8000F76E000EF86E00EEDFF010EE14F0090013
:10BC9000F5CFEEFFE550E150FAE1000EF86E00013D
:10BCA00002EF6BF0FC0E0F013F170F013F8198CFA1
:10BCB0000FF099CF10F098CF11F099CF12F0FC0E41
:10BCC0000F013F170F013F8198CF07F099CF08F080
:10BCD00098CF09F099CF0AF009501118D8A4E2D7EB
:10BCE00020EE03F00150D9260250DA220FC0DFFF08
:10BCF00020EE02F00150D9260250DA2212C0DFFFF6
:10BD000020EE01F00150D9260250DA2211C0DFFFE7
:10BD100012001250131014101510D8B429D0010EAF
:10BD2000166E07D0D8901236133614361536162AEA
:10BD300000D015BE02D0F6D700D012500E5C1350C2
:10BD40000F581450105815501158D8A009D012503F
:10BD50000E5E13500F5A1450105A1550115A00D03D
:10BD6000D8901532143213321232162EE6D700D084
:10BD70000EC00EF00FC00FF010C010F011C011F087
:10BD800012000001EF51016E026A0001E951011831
:10BD900014E10001EA510218D8A40FD00001F151BA
:10BDA000016E026A0001ED51011807E10001EE5138
:10BDB0000218D8A402D08A8E00D000018251016EF0
:10BDC000026A0001E951011814E10001EA51021868
:10BDD000D8A4120000018451016E026A0001ED51E5
:10BDE000011807E10001EE510218D8A412008A9E42
:10BDF00012001200000E066E02AE07D0016C021E89
:10BE0000D8B0022A010E066E00D004AE05D0036C35
:10BE1000041ED8B0042A00D003500410D8B41DD09A
:10BE2000010E056E05D0D89003360436052A00D0E1
:10BE300004BE02D0F8D700D00350015C0450025871
:10BE4000D8A005D00350015E0450025A00D0D8900B
:10BE500004320332052EF0D700D00650D8B405D0F6
:10BE6000016C021ED8B0022A00D001C001F002C04D
:10BE700002F0120012000001F051016E026A00018E
:10BE8000E95101181FE10001EA510218D8A41AD0A3
:10BE90000001F251016E026A0001ED51011812E138
:10BEA0000001EE510218D8A40DD082BE02D0010EBE
:10BEB00001D0000E00017C6F00017C51D8B402D08B
:10BEC0008A8C00D000018351016E026A0001E951A1
:10BED000011814E10001EA510218D8A4120000016F
:10BEE0008551016E026A0001ED51011807E1000160
:10BEF000EE510218D8A412008A9C12001200000E03
:10BF0000096E000E0A6E000E0B6E000E0C6E0550D0
:10BF1000061007100810D8B42FD0010E0D6E07D0F0
:10BF2000D89005360636073608360D2A00D008BEEA
:10BF300002D0F6D700D0D89009360A360B360C3628
:10BF40000550015C06500258075003580850045829
:10BF5000D8A00AD00550015E0650025A0750035A75
:10BF60000850045A098000D0D890083207320632AF
:10BF700005320D2EE0D700D009C001F00AC002F052
:10BF80000BC003F00CC004F01200FC0E0F013F17B1
:10BF9000030E0F013F1398CF0BF099CF0CF098CF01
:10BFA0000DF099CF0EF098CF0FF099CF10F0FC0E56
:10BFB0000F013F17030E0F013F1398CF03F099CFE6
:10BFC00004F098CF05F099CF06F098CF07F099CFFD
:10BFD00008F005500D18D8A4D8D720EE01F0015074
:10BFE000D9260250DA220DC0DFFF20EE02F0015008
:10BFF000D9260250DA220EC0DFFF01C0D9FF02C0ED
:10C00000DAFF10C0DFFF20EE03F00150D926025006
:10C01000DA220BC0DFFF12005A6E0DD05750800F8E
:10C0200008D05750C00F05D05750940F02D057502A
:10C03000D40F5B6E0ED05A50010AD8B4EFD7030A62
:10C04000D8B4EFD7010AD8B4EFD7070AD8B4EFD7DE
:10C0500000D05B50BDEC64F015D058C0F6FF59C05D
:10C06000F7FFF86A0E0EF76403D00800F55005D00C
:10C07000F6CFE9FFF7CFEAFFEF504DEC65F0584AF5
:10C08000592A00D058C0F6FF59C0F7FFF86A0E0EC3
:10C09000F76403D00800F55005D0F6CFE9FFF7CFDD
:10C0A000EAFFEF500009D8A4D8D712003CAE17D051
:10C0B0003AC040F03BC041F03CC042F0401E411E3F
:10C0C000421E402A000E41224222000E40243A6EB7
:10C0D000000E41203B6E800E42203C6E00D03FAEF1
:10C0E00017D03DC040F03EC041F03FC042F0401E7E
:10C0F000411E421E402A000E41224222000E4024D0
:10C100003D6E000E41203E6E800E42203F6E00D0FC
:10C11000000E3A1A000E3B1A800E3C1A000E3D1A11
:10C12000000E3E1A800E3F1A3D503A5C3E503B587E
:10C130003F503C58D8B002D0D8901200D88012009E
:10C140001200000E0C6E0AAE07D0096C0A1ED8B0A1
:10C150000A2A010E0C6E00D008AE07D0076C081E2C
:10C16000D8B0082A010E0C1A00D0000E0E6E000E78
:10C170000D6E09500A10D8B421D0010E0B6E05D0F7
:10C18000D89009360A360B2A00D00ABE02D0F8D75A
:10C1900000D0D8900D360E360950075C0A5008586A
:10C1A000D8A006D00950075E0A50085A0D8000D06A
:10C1B000D8900A3209320B2EECD700D00C50D8B4EC
:10C1C00005D00D6C0E1ED8B00E2A00D00DC007F0A1
:10C1D0000EC008F01200120018EC67F074C053F0A3
:10C1E00075C054F02EEC64F053C05CF054C05DF0A8
:10C1F000000E576E5CC058F05DC059F0020E0CEC9A
:10C2000060F0870E436E000E446E690E456EFE0EA2
:10C21000466EE7C047F0E8C048F0EBC049F0ECC01C
:10C220004AF0E5C04BF0E6C04CF0FFEC77F0000EB2
:10C23000576E870E586E000E596E030E0CEC60F0B0
:10C24000870E436E000E446E850E456EFE0E466EE2
:10C25000E9C047F0EAC048F0EDC049F0EEC04AF04E
:10C2600078C04BF079C04CF0FFEC77F0000E576EC1
:10C27000870E586E000E596E040E0CEC60F0120022
:10C280000450D8B405D0015002100310D8A40ED029
:10C29000000E016E000E026E000E036E120006D03C
:10C2A000042AD89003320232013200D0000E011469
:10C2B000066E000E0214076EFE0E0314086E065082
:10C2C00007100810D8B40ED0EBD70CD0042A010EFA
:10C2D0000126000E0222000E0322D8900332023201
:10C2E000013200D0000E0114066E000E0214076E1B
:10C2F000FF0E0314086E065007100810D8B408D0BB
:10C30000E5D706D00406D89001360236033600D0B1
:10C3100002BE04D0020E0460F5D700D004B002D0F3
:10C32000029E00D0D8900432045003120550D8B4B5
:10C3300002D0038E00D001C001F002C002F003C0A1
:10C3400003F01200120040C044F0456A466A3F34D0
:10C35000443601E3458044504B6E4B50D8A407D07F
:10C36000000E3E6E000E3F6E000E406E120043C087
:10C3700044F0456A466A4234443601E345804450FD
:10C380004C6E4C50D8A407D0000E3E6E000E3F6E8F
:10C39000000E406E1200000E486E000E496E000E38
:10C3A0004A6E4C50890F4B5E40C04CF043504C1AC3
:10C3B000800E4C163F8EFF0E3E16FF0E3F16000EEF
:10C3C0004016428EFF0E4116FF0E4216000E431617
:10C3D000180E476E00D0D890483649364A3641503C
:10C3E0003E5C42503F5843504058D8A007D041507F
:10C3F0003E5E42503F5A4350405A4880D8903E36A5
:10C400003F364036472EE7D700D048C001F049C03C
:10C4100002F04AC003F04BC004F04CC005F040EC01
:10C4200061F001C03EF002C03FF003C040F01200D6
:10C4300012002DC02FF0306A316A2C342F3601E300
:10C4400030802F50396E3950D8A409D0000E2B6E91
:10C45000000E2C6E000E2D6E000E2E6E1200170EAA
:10C460002F6E2BC030F02CC031F02DC032F02F28B1
:10C47000336E04D0D890323231323032332EFAD784
:10C480003050346E2C8EFF0E2B16FF0E2C16000E25
:10C490002D162B50356E2C50366E2D50376E386A57
:10C4A0008E0E395E39AE17D03950800A8F0FD8B052
:10C4B0000AD0000E2B6E000E2C6E000E2D6E000E9C
:10C4C0002E6E120000D0D8903832373236323532E4
:10C4D000393EF9D719D0170E396411D0000E2B6EE2
:10C4E000000E2C6E000E2D6E000E2E6E120007D068
:10C4F000D8903536363637363836390600D039508A
:10C50000D8B402D0F5D700D03450D8B409D0381EF2
:10C51000371E361E356C000E36223722382200D0E8
:10C5200035C02BF036C02CF037C02DF038C02EF0BF
:10C530001200120017C01BF01C6A1D6A16341B364D
:10C5400001E31C801B501E6E1E50D8A407D0000EA5
:10C55000156E000E166E000E176E12001AC01BF03C
:10C560001C6A1D6A19341B3601E31C801B50236EA4
:10C570002350D8A407D0000E156E000E166E000EC4
:10C58000176E120023507B0F1E2617C023F01A507F
:10C59000231A800E2316168E198EFF0E1816FF0E04
:10C5A0001916000E1A16000E1F6E000E206E000ED9
:10C5B000216E070E226E00D015A007D018501F263E
:10C5C000195020221A50212200D0D890173216324A
:10C5D0001532D890183619361A36222EEDD700D0DB
:10C5E000090E226E00D015A007D018501F26195032
:10C5F00020221A50212200D0D8901732163215323C
:10C60000D890213220321F32222EEDD700D01FC009
:10C6100001F020C002F021C003F01EC004F023C0CE
:10C6200005F040EC61F001C015F002C016F003C047
:10C6300017F012001200000E066E20EE02F00150FC
:10C64000D9260250DA225A0EDF60120020EE01F0E5
:10C650000150D9260250DA225A0EDF60120020EE75
:10C6600003F00150D9260250DA22240EDF6402D0F2
:10C670001200120020EE02F00150D9260250DA22F8
:10C68000DF50096E20EE01F00150D9260250DA2267
:10C69000DF50086E0350D8B402D0F29C00D0000ED8
:10C6A0003FBB010E076E0750D8A403D028EC5DF005
:10C6B00000D0000E3FBF010E056E0550D8B407D064
:10C6C000000E91BE010E066E0F013F9F00D0FC0EC2
:10C6D0000F013F170F013F8198CF0AF099CF0BF060
:10C6E00020EE03F00150D9260250DA22DF500A6E04
:10C6F000FC0E0F013F170F013F810AC098FF0BC0CE
:10C7000099FF08C098FF09C099FF0550D8B40DD013
:10C710000F013F8F0650D8B402D0918E00D0075041
:10C72000D8B409D028EC5DF006D00750D8A403D0C7
:10C730000F013F9B00D00350D8B41200F28C1200BE
:10C74000120093909392939493969398939A8A90CD
:10C750008A928A948A968A988A9A0F0E046E480E54
:10C76000E82EFED7042EFCD70F0E046E480EE82EDE
:10C77000FED7042EFCD70F0E046E480EE82EFED70F
:10C78000042EFCD70F0E046E480EE82EFED7042EA2
:10C79000FCD70F0E046E480EE82EFED7042EFCD7F1
:10C7A0000F0E046E480EE82EFED7042EFCD7010EA5
:10C7B000056E1FD021D08A908A928A848A868A98B0
:10C7C0008A9A8A908A928A848A868A888A9A030EAA
:10C7D000E82EFED700F08A908A928A848A868A9808
:10C7E0008A9A0F0E046E480EE82EFED7042EFCD750
:10C7F000052A030E0564DFD78A908A928A848A9676
:10C800008A988A9A8A908A928A848A968A888A9A48
:10C81000030EE82EFED700F08A908A928A848A96C8
:10C820008A988A9A0F0E046E480EE82EFED7042EC0
:10C83000FCD7280E056E0550BDEC64F0100E056E99
:10C840000550BDEC64F0010E056E0550BDEC64F0C2
:10C850000F0E056E0550BDEC64F0120069D0C00EDD
:10C86000436E000E446EF40E456EFF0E466E0A0EC9
:10C87000476EFF0E486EFFEC77F079D0C00E436E26
:10C88000000E446EF40E456EFF0E466EB60E476EF9
:10C89000FE0E486EFFEC77F06AD0C00E436E000EBD
:10C8A000446EF40E456EFF0E466EE00E476EFE0EB1
:10C8B000486EFFEC77F05BD0C00E436E000E446E06
:10C8C000F40E456EFF0E466E340E476EFF0E486E38
:10C8D000FFEC77F04CD0C00E436E000E446EF40EA9
:10C8E000456EFF0E466EF50E476EFE0E486EFFEC6F
:10C8F00077F03DD0C00E436E000E446EF40E456ED0
:10C90000FF0E466E1F0E476EFF0E486EFFEC77F06F
:10C910002ED0C00E436E000E446EF40E456EFF0E18
:10C92000466ECB0E476EFE0E486EFFEC77F01FD0C2
:10C9300053C055F054C056F05650000AD8A417D032
:10C940005550000AD8B48BD7010AD8B497D7030A38
:10C95000D8B4A3D7010AD8B4AFD7070AD8B4BBD785
:10C96000010AD8B4C7D7030AD8B4D3D700D0C00EB1
:10C97000536E000E546E12001200036E8A988A9A4B
:10C98000016A03AE01D0012A010E01168A50011876
:10C99000FE0B01188A6E03C001F0060E026ED890DD
:10C9A0000132022EFCD7010E011601468A500118F1
:10C9B000FD0B01188A6E03C001F0050E026ED890BF
:10C9C0000132022EFCD7010E0116014601468A50A3
:10C9D0000118FB0B01188A6E03C001F0013A0F0E1B
:10C9E0000116010E01160146014601468A50011842
:10C9F000F70B01188A6E030EE82EFED700F08A8826
:10CA0000030EE82EFED700F08A9803C001F0D890FC
:10CA10000132D8900132D8900132010E01168A50AD
:10CA20000118FE0B01188A6E03C001F0D890013284
:10CA3000D8900132010E011601468A500118FD0BF3
:10CA400001188A6E03C001F0D8900132010E011660
:10CA5000014601468A500118FB0B01188A6E03C07B
:10CA600001F0010E01160146014601468A500118E7
:10CA7000F70B01188A6E030EE82EFED700F08A88A5
:10CA8000030EE82EFED700F08A980F0E016E480EB6
:10CA9000E82EFED7012EFCD71200036E8A988A8AF0
:10CAA000016A03AE01D0012A010E01168A50011855
:10CAB000FE0B01188A6E03C001F0060E026ED890BC
:10CAC0000132022EFCD7010E011601468A500118D0
:10CAD000FD0B01188A6E03C001F0050E026ED8909E
:10CAE0000132022EFCD7010E0116014601468A5082
:10CAF0000118FB0B01188A6E03C001F0013A0F0EFA
:10CB00000116010E01160146014601468A50011820
:10CB1000F70B01188A6E030EE82EFED700F08A8804
:10CB2000030EE82EFED700F08A9803C001F0D890DB
:10CB30000132D8900132D8900132010E01168A508C
:10CB40000118FE0B01188A6E03C001F0D890013263
:10CB5000D8900132010E011601468A500118FD0BD2
:10CB600001188A6E03C001F0D8900132010E01163F
:10CB7000014601468A500118FB0B01188A6E03C05A
:10CB800001F0010E01160146014601468A500118C6
:10CB9000F70B01188A6E030EE82EFED700F08A8884
:10CBA000030EE82EFED700F08A98030EE82EFED77B
:10CBB00000F00F0E016E480EE82EFED7012EFCD7B6
:10CBC0001200033404340C6E0C50D8A409D0000EAB
:10CBD000016E000E026E000E036E000E046E120057
:10CBE000063407340B6E0B50D8A409D0000E016E2A
:10CBF000000E026E000E036E000E046E1200038E15
:10CC0000FF0E0116FF0E0216FF0E0316000E04168D
:10CC1000068EFF0E0416FF0E0516FF0E0616000EFA
:10CC20000716000E076E000E086E000E096E000E4D
:10CC30000A6E7F0E0C5E0B50A00F0C5E200E0B6E6A
:10CC400000D0D8900736083609360A360450015C01
:10CC5000055002580650035807500458D8A00AD06F
:10CC60000450015E0550025A0650035A0750045AF8
:10CC7000078000D0D89001360236033604360B2EDA
:10CC8000E0D700D00CAE17D00C50800A9F0FD8B060
:10CC90000AD0000E016E000E026E000E036E000E32
:10CCA000046E120000D0D8900A32093208320732DE
:10CCB0000C3EF9D717D01F0E0C6411D0000E016E78
:10CCC000000E026E000E036E000E046E120007D0FE
:10CCD000D8900736083609360A360C0600D00C50B4
:10CCE000D8A4F6D707C001F008C002F009C003F0CD
:10CCF0000AC004F0120003C007F0086A096A02348F
:10CD0000073601E3088007500F6E0F50D8A409D0F2
:10CD1000000E016E000E026E000E036E000E046E19
:10CD2000120006C007F0086A096A0534073601E3F5
:10CD3000088007500E6E0E50D8A409D0000E016E68
:10CD4000000E026E000E036E000E046E1200028EC4
:10CD5000FF0E0116FF0E0216000E0316058EFF0EC3
:10CD60000416FF0E0516000E0616000E0A6E000EC3
:10CD70000B6E000E0C6E000E0D6E7F0E0F5E0E50D1
:10CD8000980F0F5E180E0E6ED8900A360B360C36C2
:10CD90000D360450015C0550025806500358D8A0C7
:10CDA00007D00450015E0550025A0650035A0A800B
:10CDB000D8900136023603360E2EE6D700D00FAEDD
:10CDC00017D00F50800A970FD8B00AD0000E016E0E
:10CDD000000E026E000E036E000E046E120000D0F4
:10CDE000D8900D320C320B320A320F3EF9D717D0E1
:10CDF000170E0F6411D0000E016E000E026E000EB1
:10CE0000036E000E046E120007D0D8900A360B365F
:10CE10000C360D360F0600D00F50D8A4F6D70AC036
:10CE200001F00BC002F00CC003F00DC004F01200C2
:10CE30009F0E016E000E026E52EC5EF00001A051DA
:10CE40000F0B0001FF6F0001A0390F0B0F0B00014A
:10CE5000FE6F0001A1510F0B0001FD6F0001A13910
:10CE60000F0B0F0B0001FC6F0001A2510F0B000113
:10CE7000F96F0001A2390F0B0F0B0001F86F9B0E29
:10CE8000016E000E026EC5EC5FF000019C510F0BAD
:10CE90000001F76F00019C390F0B0F0B0001F66FBB
:10CEA00000019D510F0B0001FB6F00019D390F0B1D
:10CEB0000F0B0001FA6F9BC0F5F000019E510F0BA4
:10CEC0000001F46F00019E390F0B0F0B0001F36F8F
:10CED0000001FE510A0D0001FF51F3240001786F9B
:10CEE0000001000EF4200001796F0001FC510A0DD1
:10CEF0000001FD51F3240001ED6F0001000EF4204C
:10CF00000001EE6F0001F8510A0D0001F951F32400
:10CF10000001E96F0001000EF4200001EA6F00013A
:10CF2000F6510A0D0001F751F3240001E76F0001EB
:10CF3000000EF4200001E86FF5C074F00001756B7D
:10CF40000001FA510A0D0001FB51F3240001EB6FBF
:10CF50000001000EF4200001EC6F0001F3510A0DF6
:10CF60000001F451F3240001E56F0001000EF420EC
:10CF70000001E66F1200000E066E20EE02F0015076
:10CF8000D9260250DA22130EDF60120020EE02F0E2
:10CF90000150D9260250DA22DF50D8B4120020EE18
:10CFA00001F00150D9260250DA22320EDF60120061
:10CFB00020EE01F00150D9260250DA22DF50D8B419
:10CFC000120020EE03F00150D9260250DA22990E09
:10CFD000DF6402D01200120020EE03F00150D926C7
:10CFE0000250DA22DF50076E20EE01F00150D92600
:10CFF0000250DA22DF500A6E20EE02F00150D926EC
:10D000000250DA22DF500B6E0350D8B402D0F29CEB
:10D0100000D0000E3FBB010E096E0950D8A403D00A
:10D0200028EC5DF000D0000E3FBF010E056E0550EC
:10D03000D8B407D0000E91BE010E066E0F013F9FBF
:10D0400000D0FC0E0F013F170F013F8198CF0CF06D
:10D0500099CF0DF001C0D9FF02C0DAFFDF500D6E8D
:10D06000FC0E0F013F17030E0F013F1307C098FF7F
:10D0700008C099FF0AC098FF0BC099FF0CC098FF29
:10D080000DC099FF0550D8B40DD00F013F8F065049
:10D09000D8B402D0918E00D00950D8B409D028EC71
:10D0A0005DF006D00950D8A403D00F013F9B00D0FB
:10D0B0000350D8B41200F29C1200120028EC5DF06C
:10D0C000A38078C007F079C008F0000E0A6E0A0E3F
:10D0D000096EA1EC60F007500001FE6F0001FE51E7
:10D0E0000A0DF3500008000178250001FF6F0001D0
:10D0F000FE51100DF3500001FF250001A06FEDC09F
:10D1000007F0EEC008F0000E0A6E0A0E096EA1ECE0
:10D1100060F007500001FC6F0001FC510A0DF35054
:10D1200000080001ED250001FD6F0001FC51100D0C
:10D13000F3500001FD250001A16FE9C007F0EAC02E
:10D1400008F0000E0A6E0A0E096EA1EC60F007509E
:10D150000001F86F0001F8510A0DF35000080001BA
:10D16000E9250001F96F0001F851100DF35000019D
:10D17000F9250001A26FE5C007F0E6C008F0000E37
:10D180000A6E0A0E096EA1EC60F007500001F36F01
:10D190000001F3510A0DF35000080001E5250001DC
:10D1A000F46F0001F351100DF3500001F42500015C
:10D1B0009E6FEBC007F0ECC008F0000E0A6E0A0E7E
:10D1C000096EA1EC60F007500001FA6F0001FA51FE
:10D1D0000A0DF35000080001EB250001FB6F000170
:10D1E000FA51100DF3500001FB2500019D6FE7C0BF
:10D1F00007F0E8C008F0000E0A6E0A0E096EA1ECF6
:10D2000060F007500001F66F0001F6510A0DF3506F
:10D2100000080001E7250001F76F0001F651100D2D
:10D22000F3500001F72500019C6F74C0F5F074C045
:10D230009BF09F0E016E000E026E010E036E1BEC42
:10D2400063F09B0E016E000E026E010E036EBBECCE
:10D2500067F00F013F8F120030C034F0356A366A34
:10D260002F34343601E335803450396E33C034F016
:10D27000356A366A3234343601E335803450386EDC
:10D280003950D8B40BD03850395CD8B00ED03950A2
:10D2900000083824346E180E346407D031C02EF0E4
:10D2A00032C02FF033C030F012003850D8B40BD059
:10D2B0003950385CD8B00ED0385000083924346E5C
:10D2C000180E346407D02EC02EF02FC02FF030C0BF
:10D2D00030F01200060E376E30AE02D0378E00D01E
:10D2E00033BE378C2F8EFF0E2E16FF0E2F16000E1C
:10D2F0003016328EFF0E3116FF0E3216000E331628
:10D300003850395CD8B01ED0D890313632363336EA
:10D31000380639503818D8B40FD0370637C034F033
:10D32000070E3416D8B408D0EFD706D0D8903032D4
:10D330002F322E32392A00D038503918D8B424D0A0
:10D34000F5D722D03950385CD8B01ED0D8902E36C0
:10D350002F363036390639503818D8B40FD0370642
:10D3600037C034F0070E3416D8B408D0EFD706D043
:10D37000D890333232323132382A00D0385039180E
:10D38000D8B402D0F5D700D037AE0CD0FF0E2E1A8D
:10D39000FF0E2F1AFF0E301A010E2E26000E2F221E
:10D3A000000E302237AC0DD0FF0E311AFF0E321AAC
:10D3B000FF0E331A010E3126000E3222000E3322E8
:10D3C00000D0000E376E2E5031262F5032223050B2
:10D3D000332233AE0FD0FF0E311AFF0E321AFF0E7A
:10D3E000331A010E3126000E3222000E3322010EB6
:10D3F000376E00D031C001F032C002F033C003F00C
:10D4000039C004F037C005F040EC61F001C02EF0E7
:10D4100002C02FF003C030F0120012003BEC5DF0B0
:10D42000000186516EEC5DF009C015F00AC016F0DF
:10D430000BC017F01F0E186E050E196E3E0E1A6EF9
:10D440009AEC62F015C0DFF016C0E0F017C0E1F012
:10D45000000E186E200E196E410E1A6EDFC015F008
:10D46000E0C016F0E1C017F09AEC62F015C02BF0A6
:10D4700016C02CF017C02DF019EC62F02BC03AF05A
:10D480002CC03BF0B1EC5DF03AC03EF03BC03FF049
:10D490003CC040F0000E416E200E426E410E436EC5
:10D4A000A3EC61F03EC04DF03FC04EF040C04FF0E5
:10D4B0000001E2514D1809E10001E3514E1805E168
:10D4C0000001E4514F18D8B498D09A0E3A6E990ED4
:10D4D0003B6E3E0E3C6E4DC031F04EC032F04FC040
:10D4E00033F0E2C001F0E3C002F0E4C003F05CEC12
:10D4F0005DF001C02EF002C02FF003C030F02CEC24
:10D5000069F02EC03DF02FC03EF030C03FF056EC29
:10D5100060F0D8A026D0000E3A6E000E3B6E000ED2
:10D520003C6E4DC031F04EC032F04FC033F0E2C01F
:10D5300001F0E3C002F0E4C003F05CEC5DF001C078
:10D540002EF002C02FF003C030F02CEC69F02EC09A
:10D550003DF02FC03EF030C03FF056EC60F0D8A058
:10D560004CD09A0E3A6E990E3B6E3E0E3C6EE2C067
:10D5700031F0E3C032F0E4C033F04DC001F04EC0F2
:10D5800002F04FC003F05CEC5DF001C02EF002C071
:10D590002FF003C030F02CEC69F02EC03DF02FC00E
:10D5A0003EF030C03FF056EC60F0D8A028D0000E1E
:10D5B0003A6E000E3B6E000E3C6EE2C031F0E3C0EE
:10D5C00032F0E4C033F04DC001F04EC002F04FC065
:10D5D00003F05CEC5DF001C02EF002C02FF003C040
:10D5E00030F02CEC69F02EC03DF02FC03EF030C082
:10D5F0003FF056EC60F0D8B002D0898212008992D8
:10D60000120012009B8E9B9CD388D38AD38CD3901C
:10D61000D3920F013F8F0F013F8BCD86FD0E926E8F
:10D62000000E936E94680F014869F70E0F01496F61
:10D630002F0EC26E390EC16E5EEC68F0A1EC63F085
:10D64000010EBDEC64F00C0EBDEC64F0FF0E0001A9
:10D65000DE6F8A0EE82EFED7DE2FFCD700D0FF0E3D
:10D660000001DE6F8A0EE82EFED7DE2FFCD700D039
:10D67000FF0E0001DE6F8A0EE82EFED7DE2FFCD7EC
:10D6800000D0FF0E0001DE6F8A0EE82EFED7DE2FDF
:10D69000FCD700D0FF0E0001DE6F8A0EE82EFED709
:10D6A000DE2FFCD700D0FF0E0001DE6F8A0EE82EC1
:10D6B000FED7DE2FFCD700D0FF0E0001DE6F8A0EF2
:10D6C000E82EFED7DE2FFCD700D0FF0E0001DE6F64
:10D6D0008A0EE82EFED7DE2FFCD700D0010EBDEC5F
:10D6E00064F000D0ECEC60F0C1EC5EF03BEC5FF07D
:10D6F0000EEC6AF0870E436E000E446EEF0E456E20
:10D70000FF0E466E86C047F0486AFFEC77F0000EC9
:10D71000576E870E586E000E596E010E0CEC60F0BD
:10D7200080B002D0010E01D0000E00017F6F000119
:10D730007F51D8B403D051EC70F000D082B802D041
:10D74000010E01D0000E00017E6F00017E51D8B4A1
:10D7500017D0870E436E000E446EEF0E456EFF0E1F
:10D76000466E86C047F0486AFFEC77F0000E576EB1
:10D77000870E586E000E596E040E0CEC60F000D04F
:10D7800080B402D0010E01D0000E0001806F0001B4
:10D790008051D8B403D01DEC6DF000D080B602D01B
:10D7A000010E01D0000E0001816F00018151D8B43B
:10D7B00003D08DEC73F000D080BA02D0010E01D0FE
:10D7C000000E00017D6F00017D51D8B48BD7010E92
:10D7D000BDEC64F0000E576E880E586EFF0E596E49
:10D7E000020E0CEC60F07ED700EF00F02D6E6D0E97
:10D7F0002D64A0D0000E126E030E116E000E0A6E84
:10D800000A0E096E000E046E640E036E2DC001F048
:10D81000026AFAEC5EF001C007F002C008F0A1EC69
:10D8200060F0090E07240F6E000E0820106E81ECC8
:10D830005DF01B0E0F24F66EFE0E1020F76E090031
:10D84000F5CF18F00900F5CF19F00A00F5CF1AF05E
:10D85000000E0A6E640E096E2DC007F0086AA1EC76
:10D8600060F0120E07240F6E000E0820106E000EDE
:10D87000126E030E116E81EC5DF01B0E0F24F66E1E
:10D88000FE0E1020F76E0900F5CF15F00900F5CF58
:10D8900016F00A00F5CF17F09AEC62F015C02AF0E6
:10D8A00016C02BF017C02CF0000E126E030E116E76
:10D8B000000E046E0A0E036E2DC001F0026AFAEC2F
:10D8C0005EF001C00FF002C010F081EC5DF01B0EA5
:10D8D0000F24F66EFE0E1020F76E0900F5CF18F03B
:10D8E0000900F5CF19F00A00F5CF1AF02AC015F09B
:10D8F0002BC016F02CC017F09AEC62F015C027F080
:10D9000016C028F017C029F027C015F028C016F05F
:10D9100029C017F0000E186E000E196E3F0E1A6E19
:10D920009AEC62F015C024F016C025F017C026F05E
:10D93000120062D00A0E2D645FD0000E126E030E2C
:10D94000116E000E046E0A0E036E2DC001F0026A05
:10D95000FAEC5EF001C00FF002C010F081EC5DF057
:10D960001B0E0F24F66EFE0E1020F76E0900F5CF89
:10D9700018F00900F5CF19F00A00F5CF1AF0000EE3
:10D980000A6E0A0E096E2DC007F0086AA1EC60F05D
:10D99000090E07240F6E000E0820106E000E126E86
:10D9A000030E116E81EC5DF01B0E0F24F66EFE0E61
:10D9B0001020F76E0900F5CF15F00900F5CF16F02D
:10D9C0000A00F5CF17F09AEC62F015C02AF016C0E5
:10D9D0002BF017C02CF02AC015F02BC016F02CC06D
:10D9E00017F0000E186E000E196E3F0E1A6E9AECAC
:10D9F00062F098D7120000D02D50030D1B0EF324B7
:10DA0000F66EFE0EF420F76E0900F5CF15F0090052
:10DA1000F5CF16F00A00F5CF17F0000E186E000EC5
:10DA2000196E3F0E1A6E9AEC62F015C024F016C003
:10DA300025F017C026F012001200E2C05DF0E3C02E
:10DA40005EF0E4C05FF0000E576E490E586EFF0E98
:10DA5000596E010E0CEC60F0000E576E730E586E8E
:10DA6000FF0E596E020E0CEC60F0000E576EA10E08
:10DA7000586EFE0E596E030E0CEC60F0870E436E6E
:10DA8000000E446E5E0E456EFF0E466EE2C047F01D
:10DA9000E3C048F0E4C049F0000E4B6EDF0E4A6E62
:10DAA000FFEC77F0000E576E870E586E000E596E21
:10DAB000040E0CEC60F00D0E576EB50E586EFE0E97
:10DAC000596E040E0CEC60F00E0EBDEC64F0000E0E
:10DAD0000001776F000E766F000177BF0AD000015A
:10DAE000775106E11E0E0001765DD8B0D7D001D087
:10DAF000D5D0EA0E5C6EC30EE82EFED75C2EFCD7A6
:10DB000000F080B602D0010E01D0000E0001816F3E
:10DB100000018151D8B44DD0000E0001776F000E86
:10DB2000766F5DC03AF05EC03BF05FC03CF0660EC1
:10DB30003D6E040E3E6E420E3F6E56EC60F0D8B065
:10DB400015D05DC02EF05EC02FF05FC030F0CD0E5E
:10DB5000316ECC0E326E3D0E336E2CEC69F02EC061
:10DB60005DF02FC05EF030C05FF000D0870E436ED6
:10DB7000000E446EDE0E456EFF0E466E5DC047F031
:10DB80005EC048F05FC049F0FFEC77F00D0E576EB5
:10DB9000870E586E000E596E040E0CEC60F00D0EE0
:10DBA000576EB50E586EFE0E596E040E0CEC60F0FA
:10DBB00000D082B802D0010E01D0000E00017E6FAD
:10DBC00000017E51D8B44DD0000E0001776F000ED9
:10DBD000766F000E3A6E000E3B6E000E3C6E5DC01E
:10DBE0003DF05EC03EF05FC03FF056EC60F0D8B054
:10DBF00015D05DC03AF05EC03BF05FC03CF0CD0E8A
:10DC00003D6ECC0E3E6E3D0E3F6ECFEC5DF03AC0E9
:10DC10005DF03BC05EF03CC05FF000D0870E436E0D
:10DC2000000E446EEA0E456EFF0E466E5DC047F074
:10DC30005EC048F05FC049F0FFEC77F00D0E576E04
:10DC4000870E586E000E596E040E0CEC60F00D0E2F
:10DC5000576EB50E586EFE0E596E040E0CEC60F049
:10DC600000D080BA02D0010E01D0000E00017D6FFD
:10DC700000017D51D8B407D05DC0E2F05EC0E3F092
:10DC80005FC0E4F00BD00001764B772B000177BF2B
:10DC900030D70001775102E125D700D00C0EBDEC42
:10DCA00064F012002A6E2AAEFED02A6C2A50800A36
:10DCB000120FD8A092D0000E126E030E116E000E3D
:10DCC0000A6E0A0E096E000E046E640E036E2A5070
:10DCD000016E026A01BE0206FAEC5EF001C007F0B6
:10DCE00002C008F0A1EC60F0090E07240F6E000ED0
:10DCF0000820106E81EC5DF01B0E0F24F66EFE0EF8
:10DD00001020F76E0900F5CF18F00900F5CF19F0D3
:10DD10000A00F5CF1AF0000E0A6E640E096E2A5042
:10DD2000076E086A07BE0806A1EC60F0120E072411
:10DD30000F6E000E0820106E000E126E030E116E94
:10DD400081EC5DF01B0E0F24F66EFE0E1020F76EB8
:10DD50000900F5CF15F00900F5CF16F00A00F5CF50
:10DD600017F09AEC62F015C027F016C028F017C023
:10DD700029F027C015F028C016F029C017F0000EB2
:10DD8000126E030E116E000E046E0A0E036E2A5000
:10DD9000016E026A01BE0206FAEC5EF001C00FF0ED
:10DDA00002C010F081EC5DF01B0E0F24F66EFE0E2B
:10DDB0001020F76E0900F5CF18F00900F5CF19F023
:10DDC0000A00F5CF1AF09AEC62F015C024F016C0E4
:10DDD00025F017C026F0120054D02A50800A750F83
:10DDE000D8A04FD0000E0A6E0A0E096E2A50076E98
:10DDF000086A07BE0806A1EC60F0090E07240F6E42
:10DE0000000E0820106E000E126E030E116E81ECD3
:10DE10005DF01B0E0F24F66EFE0E1020F76E09004B
:10DE2000F5CF15F00900F5CF16F00A00F5CF17F081
:10DE3000000E126E030E116E000E046E0A0E036EBB
:10DE40002A50016E026A01BE0206FAEC5EF001C0C1
:10DE50000FF002C010F081EC5DF01B0E0F24F66E87
:10DE6000FE0E1020F76E0900F5CF18F00900F5CF6F
:10DE700019F00A00F5CF1AF09AEC62F0A6D712005A
:10DE800000D02A50030D1B0EF324F66EFE0EF42074
:10DE9000F76E0900F5CF24F00900F5CF25F00A0050
:10DEA000F5CF26F012002A50800A120FD8A092D087
:10DEB000000E126E030E116E000E0A6E0A0E096E2F
:10DEC000000E046E640E036E2A50016E026A01BEDB
:10DED0000206FAEC5EF001C007F002C008F0A1EC07
:10DEE00060F0090E07240F6E000E0820106E81EC02
:10DEF0005DF0420E0F24F66EFE0E1020F76E090044
:10DF0000F5CF18F00900F5CF19F00A00F5CF1AF097
:10DF1000000E0A6E640E096E2A50076E086A07BE6C
:10DF20000806A1EC60F0120E07240F6E000E082008
:10DF3000106E000E126E030E116E81EC5DF0420E3B
:10DF40000F24F66EFE0E1020F76E0900F5CF15F0C7
:10DF50000900F5CF16F00A00F5CF17F09AEC62F041
:10DF600015C027F016C028F017C029F027C015F0FB
:10DF700028C016F029C017F0000E126E030E116EA5
:10DF8000000E046E0A0E036E2A50016E026A01BE74
:10DF90000206FAEC5EF001C00FF002C010F081EC56
:10DFA0005DF0420E0F24F66EFE0E1020F76E090093
:10DFB000F5CF18F00900F5CF19F00A00F5CF1AF0E7
:10DFC0009AEC62F015C024F016C025F017C026F0B8
:10DFD000120054D02A50800A750FD8A04FD0000EDE
:10DFE0000A6E0A0E096E2A50076E086A07BE0806F6
:10DFF000A1EC60F0090E07240F6E000E0820106ED1
:10E00000000E126E030E116E81EC5DF0420E0F24B5
:10E01000F66EFE0E1020F76E0900F5CF15F0090020
:10E02000F5CF16F00A00F5CF17F0000E126E030EB2
:10E03000116E000E046E0A0E036E2A50016E026A03
:10E0400001BE0206FAEC5EF001C00FF002C010F053
:10E0500081EC5DF0420E0F24F66EFE0E1020F76E7E
:10E060000900F5CF18F00900F5CF19F00A00F5CF37
:10E070001AF09AEC62F0A6D7120000D02A50030DD5
:10E08000420EF324F66EFE0EF420F76E0900F5CF73
:10E0900024F00900F5CF25F00A00F5CF26F0120094
:10E0A0001200000E576E9C0E586EFF0E596E010E38
:10E0B0000CEC60F074C0D4F0E7C0D5F0EBC0D6F043
:10E0C000E5C0D7F0E9C0D8F0EDC0D9F0000E0001EE
:10E0D000DB6F000EDA6F0E0EBDEC64F0000E576EB3
:10E0E000B50E586EFE0E596E020E0CEC60F0000E6E
:10E0F0000001776F000E766F000177BF0AD0000134
:10E10000775106E11E0E0001765DD8B002D301D032
:10E1100000D3EA0E5C6EC30EE82EFED75C2EFCD751
:10E1200000F080B602D0010E01D0000E0001816F18
:10E1300000018151D8B410D1000E0001776F000E9C
:10E14000766F0001DA510001DB11D8A41FD0060E52
:10E150000001D46103D00001D42B00D0000E576E13
:10E16000D4C053F0546A2EEC64F053C058F054C03D
:10E1700059F0020E0CEC60F0000E576EB50E586EA2
:10E18000FE0E596E020E0CEC60F0E6D0020E00019D
:10E19000DA190001DB11D8A427D01F0E0001D561C8
:10E1A00003D00001D52B00D0870E436E000E446EC5
:10E1B000B80E456EFF0E466ED5C047F0486AFFECBC
:10E1C00077F0000E576E870E586E000E596E030ED4
:10E1D0000CEC60F0000E576EB50E586EFE0E596EC8
:10E1E000030E0CEC60F0B8D0040E0001DA19000147
:10E1F000DB11D8A427D00C0E0001D66103D000019A
:10E20000D62B00D0870E436E000E446EB80E456EBE
:10E21000FF0E466ED6C047F0486AFFEC77F0030E5B
:10E22000576E870E586E000E596E030E0CEC60F0A0
:10E23000030E576EB50E586EFE0E596E030E0CECA3
:10E2400060F08AD0060E0001DA190001DB11D8A4B3
:10E2500027D0630E0001D76103D00001D72B00D077
:10E26000870E436E000E446EB80E456EFF0E466E6E
:10E27000D7C047F0486AFFEC77F0060E576E870E5E
:10E28000586E000E596E030E0CEC60F0060E576EC1
:10E29000B50E586EFE0E596E030E0CEC60F05CD09D
:10E2A000080E0001DA190001DB11D8A427D0170EDF
:10E2B0000001D86103D00001D82B00D0870E436E37
:10E2C000000E446EB80E456EFF0E466ED8C047F085
:10E2D000486AFFEC77F0000E576E870E586E000EFE
:10E2E000596E040E0CEC60F0000E576EB50E586EB1
:10E2F000FE0E596E040E0CEC60F02ED00A0E0001DA
:10E30000DA190001DB11D8A427D03B0E0001D96136
:10E3100003D00001D92B00D0870E436E000E446E4F
:10E32000B80E456EFF0E466ED9C047F0486AFFEC46
:10E3300077F0030E576E870E586E000E596E040E5E
:10E340000CEC60F0030E576EB50E586EFE0E596E53
:10E35000040E0CEC60F000D080B402D0010E01D0AD
:10E36000000E0001806F00018051D8B43CD0000144
:10E37000DBBF08D00001DB510BE10A0E0001DA5DC2
:10E38000D8B006D0020E0001DA27000EDB2300D041
:10E39000000E0001776F000E766FDAC05CF0DBC014
:10E3A0005DF0D8905C365D36020E5C26000E5D2274
:10E3B000200E5C24D96E010E5D20DA6EDF50576EA0
:10E3C000B50E586EFE0E596ED8900001DA35D96E32
:10E3D0000001DB35DA6E200ED926010EDA22DF507D
:10E3E0000CEC60F000D080B002D0010E01D0000E25
:10E3F00000017F6F00017F51D8B43CD00001DBBF2A
:10E400000ED00001DB5105E1020E0001DA5DD8A05B
:10E4100006D00001FE0EDA27FF0EDB2300D0000E2F
:10E420000001776F000E766FDAC05CF0DBC05DF044
:10E43000D8905C365D36020E5C26000E5D22200E02
:10E440005C24D96E010E5D20DA6EDF50576EB50E7A
:10E45000586EFE0E596ED8900001DA35D96E000163
:10E46000DB35DA6E200ED926010EDA22DF500CECF5
:10E4700060F000D082B802D0010E01D0000E000181
:10E480007E6F00017E51D8B413D1000E0001776F6A
:10E49000000E766F0001DA510001DB11D8A420D004
:10E4A0000001D4510001D8B403D00001D40700D03A
:10E4B000000E576ED4C053F0546A2EEC64F053C073
:10E4C00058F054C059F0020E0CEC60F0000E576E7C
:10E4D000B50E586EFE0E596E020E0CEC60F0E8D0D0
:10E4E000020E0001DA190001DB11D8A427D0010EB9
:10E4F0000001D56503D00001D50700D0870E436E1B
:10E50000000E446EB80E456EFF0E466ED5C047F045
:10E51000486AFFEC77F0000E576E870E586E000EBB
:10E52000596E030E0CEC60F0000E576EB50E586E6F
:10E53000FE0E596E030E0CEC60F0BAD0040E000112
:10E54000DA190001DB11D8A427D0010E0001D6652D
:10E5500003D00001D60700D0870E436E000E446E34
:10E56000B80E456EFF0E466ED6C047F0486AFFEC07
:10E5700077F0030E576E870E586E000E596E030E1D
:10E580000CEC60F0030E576EB50E586EFE0E596E11
:10E59000030E0CEC60F08CD0060E0001DA190001BD
:10E5A000DB11D8A427D0140E0001D76503D00001D9
:10E5B000D70700D0870E436E000E446EB80E456E2E
:10E5C000FF0E466ED7C047F0486AFFEC77F0060EA4
:10E5D000576E870E586E000E596E030E0CEC60F0ED
:10E5E000060E576EB50E586EFE0E596E030E0CECED
:10E5F00060F05ED0080E0001DA190001DB11D8A42A
:10E6000028D00001D8510001D8B403D00001D807A8
:10E6100000D0870E436E000E446EB80E456EFF0E9E
:10E62000466ED8C047F0486AFFEC77F0000E576E90
:10E63000870E586E000E596E040E0CEC60F0000E42
:10E64000576EB50E586EFE0E596E040E0CEC60F04F
:10E650002FD00A0E0001DA190001DB11D8A428D04E
:10E660000001D9510001D8B403D00001D90700D06E
:10E67000870E436E000E446EB80E456EFF0E466E5A
:10E68000D9C047F0486AFFEC77F0030E576E870E4B
:10E69000586E000E596E040E0CEC60F0030E576EAF
:10E6A000B50E586EFE0E596E040E0CEC60F000D0E4
:10E6B00080BA02D0010E01D0000E00017D6F000172
:10E6C0007D51D8B41BD0D4C074F00001756BD5C097
:10E6D000E7F00001E86BD6C0EBF00001EC6BD7C0AF
:10E6E000E5F00001E66BD8C0E9F00001EA6BD9C0A3
:10E6F000EDF00001EE6B5EEC68F00BD00001764BA4
:10E70000772B000177BF05D50001775102E1FAD4DC
:10E7100000D00C0EBDEC64F01200000E576EE40E3B
:10E72000586EFF0E596E010E0CEC60F0870E436EB2
:10E73000000E446EAE0E456EFF0E466EF0C047F002
:10E74000486AF2C049F04A6AFFEC77F0000E576E53
:10E75000870E586E000E596E020E0CEC60F0870E9C
:10E76000436E000E446EBD0E456EFF0E466E83C0B6
:10E7700047F0486A85C049F04A6AFFEC77F00B0E13
:10E78000576E870E586E000E596E020E0CEC60F03C
:10E79000000E576ECB0E586EFF0E596E030E0CEC2A
:10E7A00060F0870E436E000E446EAE0E456EFF0E97
:10E7B000466EEFC047F0486AF1C049F04A6AFFEC84
:10E7C00077F0000E576E870E586E000E596E040ECD
:10E7D0000CEC60F0870E436E000E446EBD0E456E6D
:10E7E000FF0E466E82C047F0486A84C049F04A6A0C
:10E7F000FFEC77F00B0E576E870E586E000E596EB9
:10E80000040E0CEC60F0EFC0D4F0F1C0D5F082C083
:10E81000D6F084C0D7F0F0C0D8F0F2C0D9F083C0F1
:10E82000DAF085C0DBF0000E0001DD6F000EDC6F5A
:10E830000E0EBDEC64F0050E576EB50E586EFE0E52
:10E84000596E020E0CEC60F0000E0001776F000EA6
:10E85000766F000177BF0AD00001775106E11E0EE6
:10E860000001765DD8B0C7D301D0C5D3EA0E5C6E87
:10E87000C30EE82EFED75C2EFCD700F080B602D087
:10E88000010E01D0000E0001816F00018151D8B44A
:10E8900074D1000E0001776F000E766F0001DC511D
:10E8A0000001DD11D8A427D0170E0001D86103D0D4
:10E8B0000001D82B00D0870E436E000E446EB80EB8
:10E8C000456EFF0E466ED8C047F0486AFFEC77F001
:10E8D000050E576E870E586E000E596E020E0CEC28
:10E8E00060F0050E576EB50E586EFE0E596E020E94
:10E8F0000CEC60F042D1020E0001DC190001DD11C8
:10E90000D8A427D03B0E0001D96103D00001D92B38
:10E9100000D0870E436E000E446EB80E456EFF0E9B
:10E92000466ED9C047F0486AFFEC77F0080E576E84
:10E93000870E586E000E596E020E0CEC60F0080E39
:10E94000576EB50E586EFE0E596E020E0CEC60F04E
:10E9500014D1040E0001DC190001DD11D8A427D068
:10E96000030E0001DA6103D00001DA2B00D0870E1C
:10E97000436E000E446EB80E456EFF0E466EDAC052
:10E9800047F0486AFFEC77F00F0E576E870E586E0F
:10E99000000E596E020E0CEC60F00F0E576EB50EA5
:10E9A000586EFE0E596E020E0CEC60F0E6D0060EAC
:10E9B0000001DC190001DD11D8A427D03B0E0001B5
:10E9C000DB6103D00001DB2B00D0870E436E000E0D
:10E9D000446EB80E456EFF0E466EDBC047F0486AC7
:10E9E000FFEC77F0120E576E870E586E000E596EC0
:10E9F000020E0CEC60F0120E576EB50E586EFE0E45
:10EA0000596E020E0CEC60F0B8D0080E0001DC1953
:10EA10000001DD11D8A427D0170E0001D46103D066
:10EA20000001D42B00D0870E436E000E446EB80E4A
:10EA3000456EFF0E466ED4C047F0486AFFEC77F093
:10EA4000050E576E870E586E000E596E040E0CECB4
:10EA500060F0050E576EB50E586EFE0E596E040E20
:10EA60000CEC60F08AD00A0E0001DC190001DD1107
:10EA7000D8A427D03B0E0001D56103D00001D52BCF
:10EA800000D0870E436E000E446EB80E456EFF0E2A
:10EA9000466ED5C047F0486AFFEC77F0080E576E17
:10EAA000870E586E000E596E040E0CEC60F0080EC6
:10EAB000576EB50E586EFE0E596E040E0CEC60F0DB
:10EAC0005CD00C0E0001DC190001DD11D8A427D0A8
:10EAD0000B0E0001D66103D00001D62B00D0870EAB
:10EAE000436E000E446EB80E456EFF0E466ED6C0E5
:10EAF00047F0486AFFEC77F00F0E576E870E586E9E
:10EB0000000E596E040E0CEC60F00F0E576EB50E31
:10EB1000586EFE0E596E040E0CEC60F02ED00E0EE8
:10EB20000001DC190001DD11D8A427D03B0E000143
:10EB3000D76103D00001D72B00D0870E436E000EA3
:10EB4000446EB80E456EFF0E466ED7C047F0486A59
:10EB5000FFEC77F0120E576E870E586E000E596E4E
:10EB6000040E0CEC60F0120E576EB50E586EFE0ED1
:10EB7000596E040E0CEC60F000D080B402D0010E8F
:10EB800001D0000E0001806F00018051D8B43CD04C
:10EB90000001DDBF08D00001DD510BE10E0E0001C8
:10EBA000DC5DD8B006D0020E0001DC27000EDD23AC
:10EBB00000D0000E0001776F000E766FDCC05CF0B5
:10EBC000DDC05DF0D8905C365D36020E5C26000E2E
:10EBD0005D22000E5C24D96E010E5D20DA6EDF50DE
:10EBE000576EB50E586EFE0E596ED8900001DC358A
:10EBF000D96E0001DD35DA6E000ED926010EDA225B
:10EC0000DF500CEC60F000D080B002D0010E01D0DB
:10EC1000000E00017F6F00017F51D8B43CD000018D
:10EC2000DDBF0ED00001DD5105E1020E0001DC5D0B
:10EC3000D8A006D00001FE0EDC27FF0EDD2300D099
:10EC4000000E0001776F000E766FDCC05CF0DDC057
:10EC50005DF0D8905C365D36020E5C26000E5D22BB
:10EC6000000E5C24D96E010E5D20DA6EDF50576E07
:10EC7000B50E586EFE0E596ED8900001DC35D96E77
:10EC80000001DD35DA6E000ED926010EDA22DF50E2
:10EC90000CEC60F000D082B802D0010E01D0000E62
:10ECA00000017E6F00017E51D8B47CD1000E0001BE
:10ECB000776F000E766F0001DC510001DD11D8A4E2
:10ECC00028D00001D8510001D8B403D00001D807E2
:10ECD00000D0870E436E000E446EB80E456EFF0ED8
:10ECE000466ED8C047F0486AFFEC77F0050E576EC5
:10ECF000870E586E000E596E020E0CEC60F0050E79
:10ED0000576EB50E586EFE0E596E020E0CEC60F08A
:10ED100049D1020E0001DC190001DD11D8A428D070
:10ED20000001D9510001D8B403D00001D90700D0A7
:10ED3000870E436E000E446EB80E456EFF0E466E93
:10ED4000D9C047F0486AFFEC77F0080E576E870E7F
:10ED5000586E000E596E020E0CEC60F0080E576EE5
:10ED6000B50E586EFE0E596E020E0CEC60F01AD104
:10ED7000040E0001DC190001DD11D8A428D0000127
:10ED8000DA510001D8B403D00001DA0700D0870EB1
:10ED9000436E000E446EB80E456EFF0E466EDAC02E
:10EDA00047F0486AFFEC77F00F0E576E870E586EEB
:10EDB000000E596E020E0CEC60F00F0E576EB50E81
:10EDC000586EFE0E596E020E0CEC60F0EBD0060E83
:10EDD0000001DC190001DD11D8A428D00001DB51AD
:10EDE0000001D8B403D00001DB0700D0870E436ECA
:10EDF000000E446EB80E456EFF0E466EDBC047F047
:10EE0000486AFFEC77F0120E576E870E586E000EB0
:10EE1000596E020E0CEC60F0120E576EB50E586E65
:10EE2000FE0E596E020E0CEC60F0BCD0080E000114
:10EE3000DC190001DD11D8A428D00001D451000153
:10EE4000D8B403D00001D40700D0870E436E000E63
:10EE5000446EB80E456EFF0E466ED4C047F0486A49
:10EE6000FFEC77F0050E576E870E586E000E596E48
:10EE7000040E0CEC60F0050E576EB50E586EFE0ECB
:10EE8000596E040E0CEC60F08DD00A0E0001DC19F6
:10EE90000001DD11D8A428D00001D5510001D8B45B
:10EEA00003D00001D50700D0870E436E000E446EDC
:10EEB000B80E456EFF0E466ED5C047F0486AFFECAF
:10EEC00077F0080E576E870E586E000E596E040EBE
:10EED0000CEC60F0080E576EB50E586EFE0E596EB3
:10EEE000040E0CEC60F05ED00C0E0001DC19000189
:10EEF000DD11D8A428D00001D6510001D8B403D028
:10EF00000001D60700D0870E436E000E446EB80E87
:10EF1000456EFF0E466ED6C047F0486AFFEC77F0AC
:10EF20000F0E576E870E586E000E596E040E0CECC5
:10EF300060F00F0E576EB50E586EFE0E596E040E31
:10EF40000CEC60F02FD00E0E0001DC190001DD1179
:10EF5000D8A428D00001D7510001D8B403D00001B3
:10EF6000D70700D0870E436E000E446EB80E456E74
:10EF7000FF0E466ED7C047F0486AFFEC77F0120EDE
:10EF8000576E870E586E000E596E040E0CEC60F032
:10EF9000120E576EB50E586EFE0E596E040E0CEC26
:10EFA00060F000D080BA02D0010E01D0000E000146
:10EFB0007D6F00017D51D8B413D0D4C0EFF0D5C01F
:10EFC000F1F0D6C082F0D7C084F0D8C0F0F0D9C03C
:10EFD000F2F0DAC083F0DBC085F05EEC68F00BD0B5
:10EFE0000001764B772B000177BF40D400017751A9
:10EFF00002E135D400D00C0EBDEC64F01200470ED7
:10F000000001A86F000E0001A96FE1EF7EF0250E50
:10F010000001BF19D8B40AD043C0D9FF44C0DAFFF9
:10F02000BFC0DFFF434A442AE1EF7EF0000E00013B
:10F03000BC6F000EBB6F000E0001B76F000EB66F05
:10F0400006D00001B685454A462A01D00BD045C0FE
:10F05000F6FF46C0F7FF0800F550300AD8B4F1D7E4
:10F0600001D0F5D745C0F6FF46C0F7FF0800F550C0
:10F070004BEC5DF0D8A038D0000E0001BC6F000E44
:10F08000BB6F00D0BBC00FF0BCC010F0000E126E02
:10F090000A0E116E81EC5DF00FC0BBF010C0BCF029
:10F0A000D00E4D6EFF0E4E6E45C0F6FF46C0F7FF08
:10F0B0000800F5504F6E506A4D504F264E5050226A
:10F0C0004F500001BB2750500001BC23454A462A3F
:10F0D00045C0F6FF46C0F7FF0800F5504BEC5DF069
:10F0E000D8A002D0CFD700D045C0F6FF46C0F7FF6A
:10F0F0000800F5502E0AD8A434D00001B78D454A37
:10F10000462A000E0001BE6F000EBD6F1ED0BDC0AE
:10F110000FF0BEC010F0000E126E0A0E116E81ECE0
:10F120005DF045C0F6FF46C0F7FF0800F5500F261A
:10F13000000E1022D00E0F240001BD6FFF0E102014
:10F140000001BE6F454A462A00D045C0F6FF46C0C2
:10F15000F7FF0800F5504BEC5DF0D8A0DDD0D7D715
:10F16000DBD0000E0001BE6F000EBD6F0001B7893D
:10F17000D3D0F1EF7EF00001B785EAD0A8C0D9FF67
:10F18000A9C0DAFFDECFA6F0DDCFA7F0020E0001A6
:10F19000A827000EA9230001A6510001A711D8A499
:10F1A00007D0D70E0001A66FFF0E0001A76F00D099
:10F1B000000E0001AB6F000EAA6F04D00001AA4B35
:10F1C000AB2B00D00001AA510001A6254D6E000115
:10F1D000AB510001A7214E6E4DC0F6FF4EC0F7FFA8
:10F1E000F86A0E0EF76403D00800F55005D0F6CF8C
:10F1F000E9FFF7CFEAFFEF500009D8B402D0DED71D
:10F2000000D00001BD510001BE11D8B40FD00001E3
:10F21000AA510001BD5D0001AB510001BE59D8B03B
:10F2200005D0BDC0AAF0BEC0ABF000D00001BB51FC
:10F230000001AA5D0001BC510001AB59D8B009D052
:10F240000001AA510001BB5F0001AB510001BC5B92
:10F250000FD0000E0001BC6F000EBB6F09D043C081
:10F26000D9FF44C0DAFF200EDF6E434A442A00D0A3
:10F270000001BB07D8A0BC070001BB29F0E10001D9
:10F28000BC29D8B41DD0EBD71BD0A6C0F6FFA7C0B1
:10F29000F7FFF86A43C0D9FF44C0DAFF0E0EF764E7
:10F2A00003D00800F55005D0F6CFE9FFF7CFEAFF0D
:10F2B000EF50DF6E0001A64BA72B434A442A00D033
:10F2C0000001AA07D8A0AB070001AA29DEE10001CE
:10F2D000AB29D8B4E1EF7EF0D8D7E1EF7EF0A8C03B
:10F2E000D9FFA9C0DAFFDF500001BF6F020E000195
:10F2F000A827000EA92300D0BF0E0001A66F000EA4
:10F300000001A76F000E0001AB6F010EAA6F79D745
:10F31000C00E0001B6131CD045C0F6FF46C0F7FF73
:10F32000454A462A0800F5CFBFF00001BF51000A48
:10F33000D8B4F1EF7EF0630AD8B4D1D7050AD8B4B7
:10F340001AD7150AD8B41AD7060AD8B4E1D7D4D731
:10F35000070E0001B715D8B4B0D30001B7A906D085
:10F36000000E0001BE6F060EBD6F00D0A8C0D9FF11
:10F37000A9C0DAFFDECFB8F0DECFB9F0DDCFBAF04A
:10F38000030E0001A827000EA9230001BAAF12D076
:10F39000B8C001F0B9C002F0BAC003F05CEC5DF097
:10F3A00001C0B8F002C0B9F003C0BAF0030E00010A
:10F3B000B61300D0000E0001B56F000EB46F00014F
:10F3C000B8510001B9110001BA11D8B48DD0820E24
:10F3D0004D6EFF0E4E6EB8C04FF0B9C050F0BAC0BF
:10F3E00051F0BBC052F0100E05D0D89052325132BD
:10F3F00050324F32E82EF9D74F504D240001B46FF0
:10F40000000E4E200001B56F0001B407D8A0B5076B
:10F41000B4C00FF0B5C010F0000E126E030E116EE6
:10F4200081EC5DF00FC0B4F010C0B5F0B4C007F0CF
:10F43000B5C008F0000E0A6E0A0E096EA1EC60F06D
:10F4400007C0B4F008C0B5F00001B5AF05D00001A9
:10F45000B407D8A0B50700D00001B451000852ECA1
:10F460006EF024C0B0F025C0B1F026C0B2F0B0C03C
:10F4700015F0B1C016F0B2C017F0B8C018F0B9C09E
:10F4800019F0BAC01AF09AEC62F015C0B0F016C0CC
:10F49000B1F017C0B2F0B0C03AF0B1C03BF0B2C0AA
:10F4A0003CF0000E3D6E800E3E6E3F0E3F6E56EC01
:10F4B00060F0D8B005D00001B407D8A0B50714D0CB
:10F4C000B0C03AF0B1C03BF0B2C03CF0000E3D6EAF
:10F4D000200E3E6E410E3F6E56EC60F0D8A004D078
:10F4E0000001B44BB52B00D00001BEBF08D0000115
:10F4F000BE511EE10D0E0001BD5DD8B019D0B8C0DF
:10F500002EF0B9C02FF0BAC030F00001BD51F6ECBA
:10F510006BF024C031F025C032F026C033F02CEC63
:10F5200069F02EC0B8F02FC0B9F030C0BAF000D0EA
:10F530000001B5BF08D00001B55128E10A0E000155
:10F54000B45DD8B023D00001B8510001B911000159
:10F55000BA11D8B477D0B8C02BF0B9C02CF0BAC06B
:10F560002DF019EC62F02B502C102D102E10D8A479
:10F5700069D00001B5BF66D00001B55107E1020EA8
:10F580000001B45DD8B002D05DD000D0B0C03AF078
:10F59000B1C03BF0B2C03CF0700E3D6E890E3E6EC5
:10F5A000400E3F6E56EC60F0D8B003D00001F70E6D
:10F5B00002D00001F80EB427FF0EB52300D00001E1
:10F5C000B45152EC6EF024C0B0F025C0B1F026C0AA
:10F5D000B2F017D0B8C001F0B9C002F0BAC003F061
:10F5E000B0C004F0B1C005F0B2C006F0E1EC65F0C7
:10F5F00001C0ACF002C0ADF003C0AEF004C0AFF08B
:10F6000017D0B8C001F0B9C002F0BAC003F0B0C062
:10F6100004F0B1C005F0B2C006F07BEC66F001C0AA
:10F62000ACF002C0ADF003C0AEF004C0AFF000D04B
:10F63000000E0001B86F000E0001B96F000E00014E
:10F64000BA6F34D0B8C02BF0B9C02CF0BAC02DF0CE
:10F6500019EC62F02BC0ACF02CC0ADF02DC0AEF0B8
:10F660002EC0AFF0B8C03AF0B9C03BF0BAC03CF021
:10F67000ACC009F0ADC00AF0AEC00BF0AFC00CF0EA
:10F68000F1EC5DF009C03DF00AC03EF00BC03FF068
:10F69000CFEC5DF03AC0B8F03BC0B9F03CC0BAF076
:10F6A000000E0001B56F000EB46F00D0010E000116
:10F6B000BF6F0A0E0001BF19D8B422D001D020D0EC
:10F6C0000001BF51040DF30EF324F66EFD0EF4207D
:10F6D000F76E0900F5500001AC5D0900F55000011E
:10F6E000AD590900F5500001AE590900F55000016F
:10F6F000AF59D8A005D001D003D00001BF2BD9D776
:10F70000BFC04DF04E6A4DBE4E060001BD514D26A4
:10F710000001BE514E220001B4514D260001B551E9
:10F720004E224D500001BB5F4E500001BC5B0001FA
:10F73000BD510001BE11D8B405D00001BB07D8A04F
:10F74000BC0700D0030E0001B6154D6E000E00017F
:10F75000B7154E6E4D504E10D8B405D00001BB0702
:10F76000D8A0BC0700D00001B6A53CD0030E000114
:10F77000B6154D6E000E0001B7154E6E4D504E1071
:10F78000D8B416D043C0D9FF44C0DAFF2D0EDF6EC7
:10F79000434A442A0DD043C0D9FF44C0DAFF300E9B
:10F7A000DF6E434A442A0001BB07D8A0BC0700D043
:10F7B0000001BCBF80D00001BC51EDE10001BB05E0
:10F7C000D8A079D0E8D777D00DD043C0D9FF44C0B6
:10F7D000DAFF200EDF6E434A442A0001BB07D8A09F
:10F7E000BC0700D00001BCBF07D00001BC51EDE157
:10F7F0000001BB05D8B0E9D7030E0001B6154D6E68
:10F80000000E0001B7154E6E4D504E10D8B453D0B7
:10F8100043C0D9FF44C0DAFF2D0E4BD0434A442ADF
:10F820004AD0ACC001F0ADC002F0AEC003F0AFC032
:10F8300004F00001BF51040DF30EF324F66EFD0E2B
:10F84000F420F76E0900F5CF05F00900F5CF06F0BA
:10F850000900F5CF07F00A00F5CF08F07FEC5FF064
:10F8600001C0B0F002C0B1F003C0B2F004C0B3F008
:10F87000B0C00EF0B1C00FF0B2C010F0B3C011F0C4
:10F880000A0E126E000E136E000E146E000E156E30
:10F8900089EC5EF00EC0B0F00FC0B1F010C0B2F055
:10F8A00011C0B3F00001B051300F43C0D9FF44C0C4
:10F8B000DAFFDF6EB3D70001BF070001BF29D8B45C
:10F8C0000FD0AFD70DD043C0D9FF44C0DAFF300E00
:10F8D000DF6E434A442A0001B407D8A0B50700D020
:10F8E0000001B5BF07D00001B551EDE10001B4053D
:10F8F000D8B0E9D70001BEBF0CD00001BE5105E170
:10F90000090E0001BD5DD8A004D0080E0001BF6F34
:10F9100003D0BDC0BFF000D00001BF510001BD5FEA
:10F92000000E0001BFBFFF0E0001BE5B0001BF5112
:10F930000001D8B409D043C0D9FF44C0DAFF2E0E6D
:10F94000DF6E434A442A00D00001BF5152EC6EF0F2
:10F9500024C0A3F025C0A4F026C0A5F0B8C018F0BC
:10F96000B9C019F0BAC01AF0A3C015F0A4C016F0BF
:10F97000A5C017F09AEC62F015C02BF016C02CF061
:10F9800017C02DF019EC62F02BC0ACF02CC0ADF01C
:10F990002DC0AEF02EC0AFF073D0ACC001F0ADC042
:10F9A00002F0AEC003F0AFC004F00001BF51040D7F
:10F9B000F30EF324F66EFD0EF420F76E0900F5CF7A
:10F9C00005F00900F5CF06F00900F5CF07F00A00B1
:10F9D000F5CF08F07FEC5FF001C0B0F002C0B1F0ED
:10F9E00003C0B2F004C0B3F0B0C00EF0B1C00FF06D
:10F9F000B2C010F0B3C011F00A0E126E000E136EFA
:10FA0000000E146E000E156E89EC5EF00EC0B0F0A4
:10FA10000FC0B1F010C0B2F011C0B3F00001B0518E
:10FA2000300F43C0D9FF44C0DAFFDF6E434A442A97
:10FA3000ACC00EF0ADC00FF0AEC010F0AFC011F012
:10FA40000001BF51040DF30EF324F66EFD0EF420F9
:10FA5000F76E0900F5CF12F00900F5CF13F0090099
:10FA6000F5CF14F00A00F5CF15F089EC5EF00EC06A
:10FA7000ACF00FC0ADF010C0AEF011C0AFF000D0D0
:10FA80000001BF070001BF29D8B40FD086D70DD021
:10FA900043C0D9FF44C0DAFF300EDF6E434A442A28
:10FAA0000001BD07D8A0BE0700D00001BD51000174
:10FAB000BE11D8B486D1ECD784D1A8C0D9FFA9C0D3
:10FAC000DAFFDECF4DF0DDCF4EF04DC0ACF04EC0D2
:10FAD000ADF00001AE6BAF6B020E0001A827000E67
:10FAE000A9230001BD510001BE11D8A40ED0000110
:10FAF000AC510001AD110001AE110001AF11D8A44D
:10FB000004D00001BD4BBE2B00D0010E0001BF6F21
:10FB10000A0E0001BF19D8B422D001D020D00001B4
:10FB2000BF51040DF30EF324F66EFD0EF420F76EB4
:10FB30000900F5500001AC5D0900F5500001AD5918
:10FB40000900F5500001AE590900F5500001AF5908
:10FB5000D8A005D001D003D00001BF2BD9D7800E8B
:10FB60000001BFBF7F0E4D6E0001BD510001BF5DA2
:10FB70000001BE51800A4D58D8B003D0BDC0BFF0BF
:10FB800017D00001BE51800A4D6E0001BF51000127
:10FB9000BD5D800E0001BFBF7F0E4D58D8B008D0AC
:10FBA0000001BF510001BD6FBE6BBDBFBE0700D0DD
:10FBB0000001BB510001BC11D8B411D0030E0001EB
:10FBC000B6154D6E000E0001B7154E6E4D504E101D
:10FBD000D8B405D00001BB07D8A0BC0700D00001F5
:10FBE000B7AD1DD00001BB510001BD5D0001BE518C
:10FBF000800A4D6E0001BC51800A4D58D8B009D022
:10FC00000001BD510001BB5F0001BE510001BC5BA2
:10FC100006D0000E0001BC6F000EBB6F00D0800E3E
:10FC20000001BFBF7F0E4D6E0001BB510001BF5DE3
:10FC30000001BC51800A4D58D8B00BD00001BF5113
:10FC40000001BB5F000E0001BFBFFF0E0001BC5BE7
:10FC500006D0000E0001BC6F000EBB6F00D000018B
:10FC6000B6A52FD0030E0001B6154D6E000E000193
:10FC7000B7154E6E4D504E10D8B409D043C0D9FFC1
:10FC800044C0DAFF2D0EDF6E434A442A00D0000143
:10FC9000BB510001BC11D8B487D043C0D9FF44C0C8
:10FCA000DAFF300EDF6E434A442A0001BB07D8A0BA
:10FCB000BC070001BB510001BC11D8B475D0EDD711
:10FCC00073D00001BB510001BC11D8B414D043C0A3
:10FCD000D9FF44C0DAFF200EDF6E434A442A0001F8
:10FCE000BB07D8A0BC070001BB510001BC11D8B4B0
:10FCF00002D0EDD700D0030E0001B6154D6E000EF8
:10FD00000001B7154E6E4D504E10D8B44DD043C0C3
:10FD1000D9FF44C0DAFF2D0EDF6E43D045D0BDC001
:10FD20004DF0BEC04EF0D8904D364E36D8904D3680
:10FD30004E36F30E4D24F66EFD0E4E20F76E090082
:10FD4000F5CF05F00900F5CF06F00900F5CF07F073
:10FD50000A00F5CF08F0ACC001F0ADC002F0AEC0B3
:10FD600003F0AFC004F07FEC5FF001C00EF002C002
:10FD70000FF003C010F004C011F00A0E126E000E56
:10FD8000136E000E146E000E156E89EC5EF00E50B0
:10FD9000300F0001BF6F43C0D9FF44C0DAFFBFC0BE
:10FDA000DFFF434A442A00D00001BD07D8A0BE07A8
:10FDB0000001BD29B4E10001BE29D8B402D0AFD7FB
:10FDC00000D045C0F6FF46C0F7FF454A462A080066
:10FDD000F5CFBFF00001BF51D8B403D007EF78F0E2
:10FDE00000D043C0D9FF44C0DAFF000EDF6E12001E
:10FDF000120000010000000A00000064000000E89A
:10FE000003000010270000A086010040420F008080
:10FE100096980000E1F50500CA9A3B00803FCDCCE2
:10FE20003DD7233C12833AB7D138C62737388635B9
:10FE3000C0D633CC2B32708930E7DB2EE53C1E4236
:10FE4000A20D00803F00204100C842007A44401CBF
:10FE50004650C34724744997184BBCBE4C6B6E4E3A
:10FE600003155079AD60F34971253032752F253077
:10FE700032752F2530327520202020202020202090
:10FE80002020202000253032753A253032753A2561
:10FE900030327520202020202020202020202020EB
:10FEA0000020202020202020202020202020202072
:10FEB0002020202020004C756E65732020202020FB
:10FEC0002020202020202020202000536162616417
:10FED0006F202020202020202020202020202000F3
:10FEE0004D61727465732020202020202020202066
:10FEF00020202020004A7565766573202020202070
:10FF000020202020202020202000446F6D696E6773
:10FF10006F2020202020202020202020202000567C
:10FF20006965726E6573202020202020202020200B
:10FF3000202020004D696572636F6C65732020205E
:10FF400020202020202020200050726F6772616DD9
:10FF50006163696F6E206465206C612020005465C8
:10FF60006D70657261747572613A20252E31662557
:10FF700063430054656D70657261747572612064CD
:10FF8000656C20616775610043454E5445522020E1
:10FF900020202020202020202020200050726F6769
:10FFA00072616D2064656C2072656C6F6A00496EC9
:10FFB000696320253032753A253032750046696E06
:10FFC00020253032753A2530327500496C756D69DF
:10FFD0006E6163696F6E00286E756C6C2900253048
:10FFE0002E316600526965676F00252E3166002547
:08FFF000303375002573000099
:08FFF800AEF718FFF3F8FFF16A
:00000001FF
