:0400000011EF76F096
:10EAEC0000A04100B44114001000020012000B0001
:10EAFC003700F29C550EA76EAA0EA76E0F013F8B26
:10EB0C00F28C1200C280C28200D0C2B2FED7030EB9
:10EB1C00016E980EE82EFED7012EFCD7C4CF57F00D
:10EB2C00C2901200036E000E026E3A0E036006D005
:10EB3C002F0E036403D0010E026E00D002C001F050
:10EB4C0001301200120001500302F3CF05F0F4CF94
:10EB5C0006F001500402F350062602500302F35053
:10EB6C00062605C001F006C002F0120012000A5081
:10EB7C000B10D8B41DD0010E0C6E05D0D8900A36EF
:10EB8C000B360C2A00D00BBE02D0F8D700D00A509E
:10EB9C00085C0B500958D8A005D00A50085E0B50E1
:10EBAC00095A00D0D8900B320A320C2EF0D700D074
:10EBBC0008C008F009C009F01200000E066E000E25
:10EBCC00056E03500410D8B421D0010E076E05D089
:10EBDC00D89003360436072A00D004BE02D0F8D7EA
:10EBEC0000D0D890053606360350015C045002580C
:10EBFC00D8A006D00350015E0450025A058000D004
:10EC0C00D89004320332072EECD700D005C001F0A7
:10EC1C0006C002F0120000EE60F0390EEE6AE80653
:10EC2C00FDE100EE55F00B0EEE6AE806FDE1EC0E90
:10EC3C00F66EEA0EF76E000EF86E00EEA6F010EE11
:10EC4C0006F00900F5CFEEFFE550E150FAE1F20EC7
:10EC5C00F66EEA0EF76E000EF86E00EE49F010EE4E
:10EC6C000CF00900F5CFEEFFE550E150FAE1000E93
:10EC7C00F86E00016CEF7CF0FC0E0F013F170F01DA
:10EC8C003F8198CF0FF099CF10F098CF11F099CF1A
:10EC9C0012F0FC0E0F013F170F013F8198CF07F0C8
:10ECAC0099CF08F098CF09F099CF0AF009501118B4
:10ECBC00D8A4E2D720EE03F00150D9260250DA2274
:10ECCC000FC0DFFF20EE02F00150D9260250DA22ED
:10ECDC0012C0DFFF20EE01F00150D9260250DA22DB
:10ECEC0011C0DFFF1200FC0E0F013F17030E0F01C6
:10ECFC003F1398CF0BF099CF0CF098CF0DF099CF24
:10ED0C000EF098CF0FF099CF10F0FC0E0F013F17BB
:10ED1C00030E0F013F1398CF03F099CF04F098CF57
:10ED2C0005F099CF06F098CF07F099CF08F0055071
:10ED3C000D18D8A4D8D720EE01F00150D9260250D6
:10ED4C00DA220DC0DFFF20EE02F00150D92602506E
:10ED5C00DA220EC0DFFF01C0D9FF02C0DAFF10C0FB
:10ED6C00DFFF20EE03F00150D9260250DA220BC04F
:10ED7C00DFFF1200436E0DD04050800F08D0405082
:10ED8C00C00F05D04050940F02D04050D40F446EA9
:10ED9C000ED04350010AD8B4EFD7030AD8B4EFD73A
:10EDAC00010AD8B4EFD7070AD8B4EFD700D0445033
:10EDBC00E2EC79F015D041C0F6FF42C0F7FFF86ADB
:10EDCC000E0EF76403D00800F55005D0F6CFD9FF2E
:10EDDC00F7CFDAFFDF5072EC7AF0414A422A00D0CA
:10EDEC0041C0F6FF42C0F7FFF86A0E0EF76403D07D
:10EDFC000800F55005D0F6CFD9FFF7CFDAFFDF507A
:10EE0C000009D8A4D8D71200000E066E04AE07D0A5
:10EE1C00036C041ED8B0042A010E066E00D002AE9C
:10EE2C0007D0016C021ED8B0022A010E061A00D0BF
:10EE3C00000E086E000E076E03500410D8B421D0DB
:10EE4C00010E056E05D0D89003360436052A00D085
:10EE5C0004BE02D0F8D700D0D8900736083603503D
:10EE6C00015C04500258D8A006D00350015E045037
:10EE7C00025A078000D0D89004320332052EECD70A
:10EE8C0000D00650D8B405D0076C081ED8B0082A9C
:10EE9C0000D007C001F008C002F0120012003AECDA
:10EEAC0078F088EC75F0000E406ED70E416EFE0EB9
:10EEBC00426E010EC0EC76F04DC028F04EC029F029
:10EECC0053EC79F028C045F029C046F0000E406E96
:10EEDC0045C041F046C042F0020EC0EC76F0850E03
:10EEEC000D6E000E0E6ECA0E0F6EFF0E106E4BC026
:10EEFC0011F04CC012F051C013F052C014F049C0C4
:10EF0C0015F04AC016F0C9EC7DF0000E406E850E6F
:10EF1C00416E000E426E030EC0EC76F0850E0D6E47
:10EF2C00000E0E6ED90E0F6EFF0E106E4FC011F04C
:10EF3C0050C012F053C013F054C014F07CC015F044
:10EF4C007DC016F0C9EC7DF0000E406E850E416E52
:10EF5C00000E426E040EC0EC76F01200000E066E2F
:10EF6C0020EE02F00150D9260250DA225A0EDF6050
:10EF7C00120020EE01F00150D9260250DA225A0E6E
:10EF8C00DF60120020EE03F00150D9260250DA2285
:10EF9C00240EDF6402D01200120020EE02F00150A9
:10EFAC00D9260250DA22DF50096E20EE01F0015012
:10EFBC00D9260250DA22DF50086E0350D8B402D0A2
:10EFCC00F29C00D0000E3FBB010E076E0750D8A478
:10EFDC0003D07FEC75F000D0000E3FBF010E056E24
:10EFEC000550D8B407D0000E91BE010E066E0F016D
:10EFFC003F9F00D0FC0E0F013F170F013F8198CFB0
:10F00C000AF099CF0BF020EE03F00150D9260250F4
:10F01C00DA22DF500A6EFC0E0F013F170F013F8101
:10F02C000AC098FF0BC099FF08C098FF09C099FF50
:10F03C000550D8B40DD00F013F8F0650D8B402D074
:10F04C00918E00D00750D8B409D07FEC75F006D063
:10F05C000750D8A403D00F013F9B00D00350D8B465
:10F06C001200F28C120012005C0E016E000E026E89
:10F07C0042EC76F05D500F0B0001A56F5D380F0B65
:10F08C000F0B0001A46F5E500F0B0001A36F5E38D5
:10F09C000F0B0F0B0001A26F5F500F0B00019F6F46
:10F0AC005F380F0B0F0B00019E6F580E016E000E98
:10F0BC00026E79EC76F059500F0B00019D6F5938A8
:10F0CC000F0B0F0B00019C6F5A500F0B0001A16F1F
:10F0DC005A380F0B0F0B0001A06F58C09BF05B5000
:10F0EC000F0B00019A6F5B380F0B0F0B0001996F20
:10F0FC000001A4510A0D0001A551F32400017C6FFD
:10F10C000001000EF42000017D6F0001A2510A0DD8
:10F11C000001A351F324536E0001000EF420546E31
:10F12C0000019E510A0D00019F51F3244F6E000106
:10F13C00000EF420506E00019C510A0D00019D51EF
:10F14C00F3244B6E0001000EF4204C6E9BC04DF06E
:10F15C004E6A0001A0510A0D0001A151F324516E19
:10F16C000001000EF420526E000199510A0D0001AD
:10F17C009A51F324496E0001000EF4204A6E1200DD
:10F18C0093909392939493969398939A8A908A924D
:10F19C008A948A968A988A9A0F0E046E480EE82EE4
:10F1AC00FED7042EFCD70F0E046E480EE82EFED7A9
:10F1BC00042EFCD70F0E046E480EE82EFED7042E3C
:10F1CC00FCD70F0E046E480EE82EFED7042EFCD78B
:10F1DC000F0E046E480EE82EFED7042EFCD70F0E31
:10F1EC00046E480EE82EFED7042EFCD7010E056ED9
:10F1FC001FD021D08A908A928A848A868A988A9A89
:10F20C008A908A928A848A868A888A9A030EE82E41
:10F21C00FED700F08A908A928A848A868A988A9A83
:10F22C000F0E046E480EE82EFED7042EFCD7052ACE
:10F23C00030E0564DFD78A908A928A848A968A980C
:10F24C008A9A8A908A928A848A968A888A9A030EE3
:10F25C00E82EFED700F08A908A928A848A968A9841
:10F26C008A9A0F0E046E480EE82EFED7042EFCD799
:10F27C00280E056E0550E2EC79F0100E056E055067
:10F28C00E2EC79F0010E056E0550E2EC79F00F0E10
:10F29C00056E0550E2EC79F0120069D02C0E0D6E63
:10F2AC00000E0E6EF40E0F6EFF0E106E400E116EF1
:10F2BC00FF0E126EC9EC7DF079D02C0E0D6E000E87
:10F2CC000E6EF40E0F6EFF0E106EEC0E116EFE0E27
:10F2DC00126EC9EC7DF06AD02C0E0D6E000E0E6E07
:10F2EC00F40E0F6EFF0E106E160E116EFF0E126ED8
:10F2FC00C9EC7DF05BD02C0E0D6E000E0E6EF40E74
:10F30C000F6EFF0E106E6A0E116EFF0E126EC9ECB0
:10F31C007DF04CD02C0E0D6E000E0E6EF40E0F6E9A
:10F32C00FF0E106E2B0E116EFF0E126EC9EC7DF0DF
:10F33C003DD02C0E0D6E000E0E6EF40E0F6EFF0EE9
:10F34C00106E550E116EFF0E126EC9EC7DF02ED0A4
:10F35C002C0E0D6E000E0E6EF40E0F6EFF0E106E58
:10F36C00010E116EFF0E126EC9EC7DF01FD028C07D
:10F37C002AF029C02BF02B50000AD8A417D02A5001
:10F38C00000AD8B48BD7010AD8B497D7030AD8B4DB
:10F39C00A3D7010AD8B4AFD7070AD8B4BBD7010A90
:10F3AC00D8B4C7D7030AD8B4D3D700D02C0E286E44
:10F3BC00000E296E12001200036E8A988A9A016A56
:10F3CC0003AE01D0012A010E01168A500118FE0B62
:10F3DC0001188A6E03C001F0060E026ED89001323D
:10F3EC00022EFCD7010E011601468A500118FD0BA6
:10F3FC0001188A6E03C001F0050E026ED89001321E
:10F40C00022EFCD7010E0116014601468A50011846
:10F41C00FB0B01188A6E03C001F0013A0F0E0116A6
:10F42C00010E01160146014601468A500118F70BE0
:10F43C0001188A6E030EE82EFED700F08A88030EA0
:10F44C00E82EFED700F08A9803C001F0D890013264
:10F45C00D8900132D8900132010E01168A50011851
:10F46C00FE0B01188A6E03C001F0D8900132D890BF
:10F47C000132010E011601468A500118FD0B0118CC
:10F48C008A6E03C001F0D8900132010E01160146BC
:10F49C0001468A500118FB0B01188A6E03C001F05B
:10F4AC00010E01160146014601468A500118F70B60
:10F4BC0001188A6E030EE82EFED700F08A88030E20
:10F4CC00E82EFED700F08A980F0E016E480EE82E3B
:10F4DC00FED7012EFCD71200036E8A988A8A016A25
:10F4EC0003AE01D0012A010E01168A500118FE0B41
:10F4FC0001188A6E03C001F0060E026ED89001321C
:10F50C00022EFCD7010E011601468A500118FD0B84
:10F51C0001188A6E03C001F0050E026ED8900132FC
:10F52C00022EFCD7010E0116014601468A50011825
:10F53C00FB0B01188A6E03C001F0013A0F0E011685
:10F54C00010E01160146014601468A500118F70BBF
:10F55C0001188A6E030EE82EFED700F08A88030E7F
:10F56C00E82EFED700F08A9803C001F0D890013243
:10F57C00D8900132D8900132010E01168A50011830
:10F58C00FE0B01188A6E03C001F0D8900132D8909E
:10F59C000132010E011601468A500118FD0B0118AB
:10F5AC008A6E03C001F0D8900132010E011601469B
:10F5BC0001468A500118FB0B01188A6E03C001F03A
:10F5CC00010E01160146014601468A500118F70B3F
:10F5DC0001188A6E030EE82EFED700F08A88030EFF
:10F5EC00E82EFED700F08A98030EE82EFED700F026
:10F5FC000F0E016E480EE82EFED7012EFCD712001E
:10F60C00000E066E20EE02F00150D9260250DA22CE
:10F61C00130EDF60120020EE02F00150D9260250CA
:10F62C00DA22DF50D8B4120020EE01F00150D926B6
:10F63C000250DA22320EDF60120020EE01F001508F
:10F64C00D9260250DA22DF50D8B4120020EE03F093
:10F65C000150D9260250DA22990EDF6402D0120032
:10F66C00120020EE03F00150D9260250DA22DF50AE
:10F67C00076E20EE01F00150D9260250DA22DF503D
:10F68C000A6E20EE02F00150D9260250DA22DF5029
:10F69C000B6E0350D8B402D0F29C00D0000E3FBBCE
:10F6AC00010E096E0950D8A403D07FEC75F000D080
:10F6BC00000E3FBF010E056E0550D8B407D0000EEA
:10F6CC0091BE010E066E0F013F9F00D0FC0E0F0184
:10F6DC003F170F013F8198CF0CF099CF0DF001C06F
:10F6EC00D9FF02C0DAFFDF500D6EFC0E0F013F1781
:10F6FC00030E0F013F1307C098FF08C099FF0AC003
:10F70C0098FF0BC099FF0CC098FF0DC099FF0550D6
:10F71C00D8B40DD00F013F8F0650D8B402D0918EC3
:10F72C0000D00950D8B409D07FEC75F006D0095040
:10F73C00D8A403D00F013F9B00D00350D8B41200C3
:10F74C00F29C120012007FEC75F0A3807CC001F0DB
:10F75C007DC002F0000E046E0A0E036E0AEC77F008
:10F76C0001500001A46F0001A4510A0DF3500008D0
:10F77C0000017C250001A56F0001A451100DF35070
:10F78C000001A5255D6E53C001F054C002F0000EBF
:10F79C00046E0A0E036E0AEC77F001500001A26FA2
:10F7AC000001A2510A0DF350000853240001A36F6D
:10F7BC000001A251100DF3500001A3255E6E4FC045
:10F7CC0001F050C002F0000E046E0A0E036E0AEC3B
:10F7DC0077F0015000019E6F00019E510A0DF3500D
:10F7EC0000084F2400019F6F00019E51100DF35033
:10F7FC0000019F255F6E49C001F04AC002F0000E67
:10F80C00046E0A0E036E0AEC77F001500001996F3A
:10F81C00000199510A0DF3500008492400019A6F18
:10F82C0000019951100DF35000019A255B6E51C0E7
:10F83C0001F052C002F0000E046E0A0E036E0AECC8
:10F84C0077F001500001A06F0001A0510A0DF35098
:10F85C00000851240001A16F0001A051100DF350BC
:10F86C000001A1255A6E4BC001F04CC002F0000EF5
:10F87C00046E0A0E036E0AEC77F0015000019C6FC7
:10F88C0000019C510A0DF35000084B2400019D6FA0
:10F89C0000019C51100DF35000019D25596E4DC077
:10F8AC009BF04DC058F05C0E016E000E026E010E06
:10F8BC00036EB4EC77F0580E016E000E026E010E62
:10F8CC00036E06EC7BF00F013F8F12009B8E9B9C0E
:10F8DC00D388D38AD38CD390D3920F013F8F0F014F
:10F8EC003F8BCD86FD0E926E000E936E94680F01C9
:10F8FC004869F70E0F01496F2F0EC26E390EC16E9B
:10F90C00A9EC7BF0C6EC78F0010EE2EC79F00C0E71
:10F91C00E2EC79F0FF0E476E8A0EE82EFED7472EEA
:10F92C00FCD700D0FF0E476E8A0EE82EFED7472E6E
:10F93C00FCD700D0FF0E476E8A0EE82EFED7472E5E
:10F94C00FCD700D0FF0E476E8A0EE82EFED7472E4E
:10F95C00FCD700D0FF0E476E8A0EE82EFED7472E3E
:10F96C00FCD700D0FF0E476E8A0EE82EFED7472E2E
:10F97C00FCD700D0FF0E476E8A0EE82EFED7472E1E
:10F98C00FCD700D0FF0E476E8A0EE82EFED7472E0E
:10F99C00FCD700D0FF0E476E8A0EE82EFED7472EFE
:10F9AC00FCD700D0010EE2EC79F000D055EC77F0EA
:10F9BC0080B002D0010E01D0000E0001826F000158
:10F9CC008251D8B463D0000E406EB80E416EFF0E5B
:10F9DC00426E010EC0EC76F04DC048F0000E566E33
:10F9EC00000E556E56BE08D0565050E11E0E555C9A
:10F9FC00D8B04CD001D04AD0EA0E476EC30EE82ED8
:10FA0C00FED7472EFCD700F080B602D0010E01D0F5
:10FA1C00000E0001846F00018451D8B414D0000E84
:10FA2C00566E000E556E482A000E406E48C028F0E7
:10FA3C00296A53EC79F028C041F029C042F0020E3B
:10FA4C00C0EC76F000D080B402D0010E01D0000ED4
:10FA5C000001836F00D080BA02D0010E01D0000EDD
:10FA6C000001806F00018051D8B409D048C04DF01E
:10FA7C004E6AA9EC7BF01A0E00017E6F07D01A0EAD
:10FA8C0000017E6F554A562AADD700D082B802D0FD
:10FA9C00010E01D0000E0001816F00018151D8B41C
:10FAAC0017D0850E0D6E000E0E6EEF0E0F6EFF0E44
:10FABC00106E57C011F0126AC9EC7DF0000E406E4A
:10FACC00850E416E000E426E040EC0EC76F000D036
:10FADC0080B402D0010E01D0000E0001836F000132
:10FAEC008351D8B40AD0000E406E930E416EFF0EB7
:10FAFC00426E030EC0EC76F000D080B602D0010E40
:10FB0C0001D0000E0001846F00018451D8B40AD0DA
:10FB1C00000E406EA60E416EFF0E426E040EC0EC3F
:10FB2C0076F000D080BA02D0010E01D0000E000198
:10FB3C00806F00018051D8B40DD0010EE2EC79F049
:10FB4C00000E406E7F0E416EFF0E426E020EC0EC38
:10FB5C0076F000D08A8E8A8C89821A0E476EF80E47
:10FB6C00E82EFED7472EFCD700D08A9E8A9C89921D
:10FB7C001A0E476EF80EE82EFED7472EFCD700D093
:10FB8C0015D700EF00F0110E1F6E000E206E82D103
:10FB9C00250E2718D8B409D00DC0D9FF0EC0DAFF36
:10FBAC0027C0DFFF0D4A0E2A75D1000E266E000EFF
:10FBBC00256E000E1B6E05D01B840F4A102A01D037
:10FBCC000BD00FC0F6FF10C0F7FF0800F550300A3D
:10FBDC00D8B4F2D701D0F5D70FC0F6FF10C0F7FF9D
:10FBEC000800F55098EC75F0D8A0A2D0000E266E47
:10FBFC00000E256E00D025C001F026C002F0000ECC
:10FC0C00046E0A0E036EA9EC75F001C025F002C05B
:10FC1C0026F0D00E176EFF0E186E0FC0F6FF10C038
:10FC2C00F7FF0800F550196E1A6A1750192618506C
:10FC3C001A22195025261A5026220F4A102A0FC0B4
:10FC4C00F6FF10C0F7FF0800F55098EC75F0D8A03F
:10FC5C006FD0D1D76DD02CD11FC0D9FF20C0DAFF07
:10FC6C00DECF21F0DDCF22F0020E1F26000E202267
:10FC7C0021502210D8A405D0E80E216EFF0E226E62
:10FC8C0000D0000E246E000E236E03D0234A242ACB
:10FC9C0000D023502124176E24502220186E17C038
:10FCAC00F6FF18C0F7FF0800F5500009D8A4EED7EE
:10FCBC002550235C26502458D8B005D02350255EFF
:10FCCC002450265A0ED0000E266E000E256E09D03A
:10FCDC000DC0D9FF0EC0DAFF200EDF6E0D4A0E2AC2
:10FCEC0000D02506D8A026062528F2E12628D8B46F
:10FCFC0012D0EED710D021C0F6FF22C0F7FF0DC0F6
:10FD0C00D9FF0EC0DAFF0800F5CFDFFF214A222A07
:10FD1C000D4A0E2A00D02306D8A024062328EBE196
:10FD2C002428D8B4B7D0E7D7B5D0C00E1B1214D046
:10FD3C000FC0F6FF10C0F7FF0F4A102A0800F5CFCE
:10FD4C0027F02750000AD8B4B3D0730AD8B484D79C
:10FD5C00060AD8B4EAD79ED01FC0D9FF20C0DAFF5C
:10FD6C00DECF1CF0DDCF1DF0020E1F26000E202270
:10FD7C00010E276E050E2718D8B416D001D014D05A
:10FD8C002750020DCD0EF324F66EFE0EF420F76E06
:10FD9C000900F5501C5C0900F5501D58D8A004D082
:10FDAC0001D002D0272AE6D7800E27BE7F0E176E11
:10FDBC002550275C2650800A1758D8B007D02750FA
:10FDCC00255E000E27BEFF0E265A05D0000E266EAD
:10FDDC00000E256E00D01BA415D025502610D8B4CB
:10FDEC0026D00DC0D9FF0EC0DAFF300EDF6E0D4AE3
:10FDFC000E2A2506D8A0260625502610D8B417D0D2
:10FE0C00F0D715D025502610D8B411D00DC0D9FF7D
:10FE1C000EC0DAFF200EDF6E0D4A0E2A2506D8A082
:10FE2C00260625502610D8B402D0F0D700D027C013
:10FE3C001EF02AD01E50020DCD0EF324F66EFE0ECF
:10FE4C00F420F76E0900F5CF03F00A00F5CF04F0AB
:10FE5C001CC001F01DC002F0E3EC75F001C008F00D
:10FE6C0002C009F0000E0B6E0A0E0A6EBDEC75F0A6
:10FE7C000850300F276E0DC0D9FF0EC0DAFF27C017
:10FE8C00DFFF0D4A0E2A00D01E061E28D8B402D061
:10FE9C00D1D700D00FC0F6FF10C0F7FF0F4A102AC1
:10FEAC000800F5CF27F02750D8B402D071D600D077
:10FEBC000DC0D9FF0EC0DAFF000EDF6E120012006B
:10FECC000001000A006400E80310272020202020F5
:10FEDC002020202020202020202020202020200036
:10FEEC004C756E657320202020202020202020209F
:10FEFC00202020200053616261646F20202020208C
:10FF0C00202020202020202020004D617274657359
:10FF1C002020202020202020202020202020004ACB
:10FF2C00756576657320202020202020202020203D
:10FF3C0020202000446F6D696E676F2020202020E8
:10FF4C00202020202020202000566965726E6573C9
:10FF5C0020202020202020202020202020004D693F
:10FF6C006572636F6C657320202020202020202078
:10FF7C0020200043454E5445522020202020202094
:10FF8C0020202020202000524947485420202020A7
:10FF9C002020202020202020200055502020202010
:10FFAC0020202020202020202020200050726F674D
:10FFBC0072616D2064656C2072656C6F6A0025300F
:10FFCC0032752F253032752F2530327500253032A1
:10FFDC00753A253032753A2530327500286E756CBD
:0CFFEC006C2900253033750025730000DF
:08FFF800AEF718FFF3F8FFF16A
:00000001FF
