:04000000ADEF75F0FB
:10EA18001400060002000B00F29C550EA76EAA0E09
:10EA2800A76E0F013F8BF28C12000A00140017002A
:10EA380019001E00210000A04100B4411200370057
:10EA4800C280C28200D0C2B2FED7030E016E980EF9
:10EA5800E82EFED7012EFCD7C4CF4FF0C29012008B
:10EA6800036E000E026E3A0E036006D02F0E03648A
:10EA780003D0010E026E00D002C001F00130120076
:10EA8800120001500302F3CF05F0F4CF06F0015055
:10EA98000402F350062602500302F350062605C06E
:10EAA80001F006C002F0120012000A500B10D8B490
:10EAB8001DD0010E0C6E05D0D8900A360B360C2AE4
:10EAC80000D00BBE02D0F8D700D00A50085C0B501B
:10EAD8000958D8A005D00A50085E0B50095A00D032
:10EAE800D8900B320A320C2EF0D700D008C008F0AC
:10EAF80009C009F01200000E066E000E056E0350E4
:10EB08000410D8B421D0010E076E05D0D890033672
:10EB18000436072A00D004BE02D0F8D700D0D89017
:10EB2800053606360350015C04500258D8A006D0BA
:10EB38000350015E0450025A058000D0D890043278
:10EB48000332072EECD700D005C001F006C002F052
:10EB5800120000EE60F0390EEE6AE806FDE100EE04
:10EB68004DF00B0EEE6AE806FDE1320EF66EEA0E87
:10EB7800F76E000EF86E00EE99F010EE16F0090030
:10EB8800F5CFEEFFE550E150FAE1180EF66EEA0E09
:10EB9800F76E000EF86E00EE58F010EE08F009005F
:10EBA800F5CFEEFFE550E150FAE1000EF86E0001F6
:10EBB800CBEF7CF0FC0E0F013F170F013F8198CF80
:10EBC8000FF099CF10F098CF11F099CF12F0FC0EFA
:10EBD8000F013F170F013F8198CF07F099CF08F039
:10EBE80098CF09F099CF0AF009501118D8A4E2D7A4
:10EBF80020EE03F00150D9260250DA220FC0DFFFC1
:10EC080020EE02F00150D9260250DA2212C0DFFFAE
:10EC180020EE01F00150D9260250DA2211C0DFFFA0
:10EC28001200FC0E0F013F17030E0F013F1398CF80
:10EC38000BF099CF0CF098CF0DF099CF0EF098CF3C
:10EC48000FF099CF10F0FC0E0F013F17030E0F01C4
:10EC58003F1398CF03F099CF04F098CF05F099CFE0
:10EC680006F098CF07F099CF08F005500D18D8A4F2
:10EC7800D8D720EE01F00150D9260250DA220DC073
:10EC8800DFFF20EE02F00150D9260250DA220EC032
:10EC9800DFFF01C0D9FF02C0DAFF10C0DFFF20EE9E
:10ECA80003F00150D9260250DA220BC0DFFF120010
:10ECB800436E0DD04050800F08D04050C00F05D093
:10ECC8004050940F02D04050D40F446E0ED04350A1
:10ECD800010AD8B4EFD7030AD8B4EFD7010AD8B4D9
:10ECE800EFD7070AD8B4EFD700D04450F2EC78F049
:10ECF80015D041C0F6FF42C0F7FFF86A0E0EF76460
:10ED080003D00800F55005D0F6CFD9FFF7CFDAFFCA
:10ED1800DF5012EC7AF0414A422A00D041C0F6FF97
:10ED280042C0F7FFF86A0E0EF76403D00800F550EA
:10ED380005D0F6CFD9FFF7CFDAFFDF500009D8A406
:10ED4800D8D71200000E066E04AE07D0036C041E5E
:10ED5800D8B0042A010E066E00D002AE07D0016CAE
:10ED6800021ED8B0022A010E061A00D0000E086E44
:10ED7800000E076E03500410D8B421D0010E056EA2
:10ED880005D0D89003360436052A00D004BE02D038
:10ED9800F8D700D0D890073608360350015C0450E5
:10EDA8000258D8A006D00350015E0450025A0780CA
:10EDB80000D0D89004320332052EECD700D006508C
:10EDC800D8B405D0076C081ED8B0082A00D007C0F0
:10EDD80001F008C002F01200120082EC79F024EC75
:10EDE80075F0000E406ED70E416EFE0E426E010E9B
:10EDF8005CEC76F05CC028F05DC029F063EC78F03C
:10EE080028C045F029C046F0000E406E45C041F0CC
:10EE180046C042F0020E5CEC76F0850E0D6E000ED8
:10EE28000E6ECA0E0F6EFF0E106E5AC011F05BC048
:10EE380012F05EC013F05FC014F058C015F059C04E
:10EE480016F0C9EC7DF0000E406E850E416E000E86
:10EE5800426E030E5CEC76F0850E0D6E000E0E6EA3
:10EE6800D90E0F6EFF0E106EABC011F0ACC012F0D1
:10EE7800ADC013F0AEC014F07CC015F07DC016F024
:10EE8800C9EC7DF0000E406E850E416E000E426E9C
:10EE9800040E5CEC76F01200000E066E20EE02F016
:10EEA8000150D9260250DA225A0EDF60120020EEF5
:10EEB80001F00150D9260250DA225A0EDF60120002
:10EEC80020EE03F00150D9260250DA22240EDF6426
:10EED80002D01200120020EE02F00150D926025092
:10EEE800DA22DF50096E20EE01F00150D9260250D7
:10EEF800DA22DF50086E0350D8B402D0F29C00D05A
:10EF0800000E3FBB010E076E0750D8A403D010ECCB
:10EF180075F000D0000E3FBF010E056E0550D8B445
:10EF280007D0000E91BE010E066E0F013F9F00D064
:10EF3800FC0E0F013F170F013F8198CF0AF099CFC0
:10EF48000BF020EE03F00150D9260250DA22DF50F0
:10EF58000A6EFC0E0F013F170F013F810AC098FF90
:10EF68000BC099FF08C098FF09C099FF0550D8B495
:10EF78000DD00F013F8F0650D8B402D0918E00D02B
:10EF88000750D8B409D010EC75F006D00750D8A4B3
:10EF980003D00F013F9B00D00350D8B41200F28C6D
:10EFA8001200120093909392939493969398939A45
:10EFB8008A908A928A948A968A988A9A0F0E046E00
:10EFC800480EE82EFED7042EFCD70F0E046E480E0E
:10EFD800E82EFED7042EFCD70F0E046E480EE82E3E
:10EFE800FED7042EFCD70F0E046E480EE82EFED76F
:10EFF800042EFCD70F0E046E480EE82EFED7042E02
:10F00800FCD70F0E046E480EE82EFED7042EFCD750
:10F01800010E056E1FD021D08A908A928A848A8632
:10F028008A988A9A8A908A928A848A868A888A9A08
:10F03800030EE82EFED700F08A908A928A848A8688
:10F048008A988A9A0F0E046E480EE82EFED7042E70
:10F05800FCD7052A030E0564DFD78A908A928A8432
:10F068008A968A988A9A8A908A928A848A968A88BC
:10F078008A9A030EE82EFED700F08A908A928A8434
:10F088008A968A988A9A0F0E046E480EE82EFED742
:10F09800042EFCD7280E056E0550F2EC78F0100E01
:10F0A800056E0550F2EC78F0010E056E0550F2EC95
:10F0B80078F00F0E056E0550F2EC78F0120069D06A
:10F0C8002C0E0D6E000E0E6EF40E0F6EFF0E106EEF
:10F0D800400E116EFF0E126EC9EC7DF079D02C0E29
:10F0E8000D6E000E0E6EF40E0F6EFF0E106EEC0E0F
:10F0F800116EFE0E126EC9EC7DF06AD02C0E0D6EEC
:10F10800000E0E6EF40E0F6EFF0E106E160E116EC0
:10F11800FF0E126EC9EC7DF05BD02C0E0D6E000E4A
:10F128000E6EF40E0F6EFF0E106E6A0E116EFF0E4D
:10F13800126EC9EC7DF04CD02C0E0D6E000E0E6ECA
:10F14800F40E0F6EFF0E106E2B0E116EFF0E126E68
:10F15800C9EC7DF03DD02C0E0D6E000E0E6EF40E37
:10F168000F6EFF0E106E550E116EFF0E126EC9EC6B
:10F178007DF02ED02C0E0D6E000E0E6EF40E0F6E5E
:10F18800FF0E106E010E116EFF0E126EC9EC7DF0AF
:10F198001FD028C02AF029C02BF02B50000AD8A471
:10F1A80017D02A50000AD8B48BD7010AD8B497D7F9
:10F1B800030AD8B4A3D7010AD8B4AFD7070AD8B47A
:10F1C800BBD7010AD8B4C7D7030AD8B4D3D700D05D
:10F1D8002C0E286E000E296E12001200036E8A98FB
:10F1E8008A9A016A03AE01D0012A010E01168A50DB
:10F1F8000118FE0B01188A6E03C001F0060E026E9C
:10F20800D8900132022EFCD7010E011601468A5011
:10F218000118FD0B01188A6E03C001F0050E026E7D
:10F22800D8900132022EFCD7010E01160146014684
:10F238008A500118FB0B01188A6E03C001F0013ACD
:10F248000F0E0116010E01160146014601468A50AD
:10F258000118F70B01188A6E030EE82EFED700F08E
:10F268008A88030EE82EFED700F08A9803C001F0C2
:10F27800D8900132D8900132D8900132010E01168F
:10F288008A500118FE0B01188A6E03C001F0D8904D
:10F298000132D8900132010E011601468A50011838
:10F2A800FD0B01188A6E03C001F0D8900132010EDF
:10F2B8000116014601468A500118FB0B01188A6E97
:10F2C80003C001F0010E01160146014601468A50AD
:10F2D8000118F70B01188A6E030EE82EFED700F00E
:10F2E8008A88030EE82EFED700F08A980F0E016E6A
:10F2F800480EE82EFED7012EFCD71200540E016EE0
:10F30800000E026EDEEC75F055500F0B0001BB6F5E
:10F3180055380F0B0F0B0001BA6F56500F0B000139
:10F32800B96F56380F0B0F0B0001B86F57500F0B02
:10F338000001B56F57380F0B0F0B0001B46F500E5B
:10F34800016E000E026E15EC76F051500F0B0001A5
:10F35800B36F51380F0B0F0B0001B26F52500F0BE8
:10F368000001B76F52380F0B0F0B0001B66F50C07A
:10F37800B1F053500F0B0001B06F53380F0B0F0B48
:10F388000001AF6F0001BA510A0D0001BB51F3240F
:10F3980000017C6F0001000EF42000017D6F000168
:10F3A800B8510A0D0001B951F3240001AD6F0001F5
:10F3B800000EF4200001AE6F0001B4510A0D0001E7
:10F3C800B551F3240001AB6F0001000EF4200001D9
:10F3D800AC6F0001B2510A0D0001B351F3245A6E0B
:10F3E8000001000EF4205B6EB1C05CF05D6A0001A4
:10F3F800B6510A0D0001B751F3245E6E0001000EEC
:10F40800F4205F6E0001AF510A0D0001B051F324E2
:10F41800586E0001000EF420596E1200036E8A988F
:10F428008A8A016A03AE01D0012A010E01168A50A8
:10F438000118FE0B01188A6E03C001F0060E026E59
:10F44800D8900132022EFCD7010E011601468A50CF
:10F458000118FD0B01188A6E03C001F0050E026E3B
:10F46800D8900132022EFCD7010E01160146014642
:10F478008A500118FB0B01188A6E03C001F0013A8B
:10F488000F0E0116010E01160146014601468A506B
:10F498000118F70B01188A6E030EE82EFED700F04C
:10F4A8008A88030EE82EFED700F08A9803C001F080
:10F4B800D8900132D8900132D8900132010E01164D
:10F4C8008A500118FE0B01188A6E03C001F0D8900B
:10F4D8000132D8900132010E011601468A500118F6
:10F4E800FD0B01188A6E03C001F0D8900132010E9D
:10F4F8000116014601468A500118FB0B01188A6E55
:10F5080003C001F0010E01160146014601468A506A
:10F518000118F70B01188A6E030EE82EFED700F0CB
:10F528008A88030EE82EFED700F08A98030EE82E8C
:10F53800FED700F00F0E016E480EE82EFED7012E02
:10F54800FCD71200000E066E20EE02F00150D926FC
:10F558000250DA22130EDF60120020EE02F0015092
:10F56800D9260250DA22DF50D8B4120020EE01F07A
:10F578000150D9260250DA22320EDF60120020EE46
:10F5880001F00150D9260250DA22DF50D8B4120017
:10F5980020EE03F00150D9260250DA22990EDF64DA
:10F5A80002D01200120020EE03F00150D9260250BA
:10F5B800DA22DF50076E20EE01F00150D926025002
:10F5C800DA22DF500A6E20EE02F00150D9260250EE
:10F5D800DA22DF500B6E0350D8B402D0F29C00D070
:10F5E800000E3FBB010E096E0950D8A403D010ECE1
:10F5F80075F000D0000E3FBF010E056E0550D8B45F
:10F6080007D0000E91BE010E066E0F013F9F00D07D
:10F61800FC0E0F013F170F013F8198CF0CF099CFD7
:10F628000DF001C0D9FF02C0DAFFDF500D6EFC0EED
:10F638000F013F17030E0F013F1307C098FF08C0C3
:10F6480099FF0AC098FF0BC099FF0CC098FF0DC026
:10F6580099FF0550D8B40DD00F013F8F0650D8B48C
:10F6680002D0918E00D00950D8B409D010EC75F0B2
:10F6780006D00950D8A403D00F013F9B00D00350F7
:10F68800D8B41200F29C120012005CC04AF05AC0B2
:10F698004BF05EC047F058C046F0000E496E000EB1
:10F6A800486E0E0EF2EC78F0000E406EEB0E416ED6
:10F6B800FE0E426E020E5CEC76F0000E4E6E000EF0
:10F6C8004D6E4EBE08D04E5005E11E0E4D5CD8B0B2
:10F6D80095D001D093D0EA0E456EC30EE82EFED722
:10F6E800452EFCD700F080B602D0010E01D0000EE6
:10F6F8000001846F00018451D8B446D0000E4E6ECC
:10F70800000E4D6E48504910D8A419D04A2A000E50
:10F71800406E4AC028F0296A63EC78F028C041F0AE
:10F7280029C042F0020E5CEC76F0000E406EEB0E43
:10F73800416EFE0E426E020E5CEC76F025D048500B
:10F748004910D8B421D04B2A850E0D6E000E0E6ECE
:10F75800D40E0F6EFF0E106E4BC011F0126AC9EC7A
:10F768007DF0000E406E850E416E000E426E030E57
:10F778005CEC76F0000E406EEB0E416EFE0E426EB3
:10F78800030E5CEC76F000D080B402D0010E01D0FC
:10F79800000E0001836F00018351D8B410D0484A8D
:10F7A800492A000E4E6E000E4D6E000E406EEB0E96
:10F7B800416EFE0E426E030E5CEC76F000D080BA0D
:10F7C80002D0010E01D0000E0001806F00018051AF
:10F7D800D8B40CD04AC05CF05D6A4BC05AF05B6A82
:10F7E80047C05EF05F6A06EC7CF008D04D4A4E2AAE
:10F7F8004EBE71D74E5002E168D700D00C0EF2EC25
:10F8080078F0120010EC75F0A3807CC001F07DC088
:10F8180002F0000E046E0A0E036EA6EC76F001509C
:10F828000001BA6F0001BA510A0DF3500008000137
:10F838007C250001BB6F0001BA51100DF350000187
:10F84800BB25556EADC001F0AEC002F0000E046ECF
:10F858000A0E036EA6EC76F001500001B86F0001A5
:10F86800B8510A0DF35000080001AD250001B96F29
:10F878000001B851100DF3500001B925566EABC008
:10F8880001F0ACC002F0000E046E0A0E036EA6EC86
:10F8980076F001500001B46F0001B4510A0DF35025
:10F8A80000080001AB250001B56F0001B451100D2F
:10F8B800F3500001B525576E58C001F059C002F049
:10F8C800000E046E0A0E036EA6EC76F001500001DD
:10F8D800AF6F0001AF510A0DF35000085824000122
:10F8E800B06F0001AF51100DF3500001B025536EF9
:10F8F8005EC001F05FC002F0000E046E0A0E036ED7
:10F90800A6EC76F001500001B66F0001B6510A0D61
:10F91800F35000085E240001B76F0001B651100DC6
:10F92800F3500001B725526E5AC001F05BC002F0D7
:10F93800000E046E0A0E036EA6EC76F0015000016C
:10F94800B26F0001B2510A0DF35000085A240001A9
:10F95800B36F0001B251100DF3500001B325516E81
:10F968005CC0B1F05CC050F0540E016E000E026E27
:10F97800010E036E50EC77F0500E016E000E026E11
:10F98800010E036EA6EC7AF00F013F8F12009B8EDA
:10F998009B9CD388D38AD38CD390D3920F013F8F6B
:10F9A8000F013F8BCD86FD0E926E000E936E94680C
:10F9B8000F014869F70E0F01496F2F0EC26E390EFD
:10F9C800C16E06EC7CF0D6EC77F0010EF2EC78F024
:10F9D8000C0EF2EC78F0FF0E4C6E8A0EE82EFED775
:10F9E8004C2EFCD700D0FF0E4C6E8A0EE82EFED7A8
:10F9F8004C2EFCD700D0FF0E4C6E8A0EE82EFED798
:10FA08004C2EFCD700D0FF0E4C6E8A0EE82EFED787
:10FA18004C2EFCD700D0FF0E4C6E8A0EE82EFED777
:10FA28004C2EFCD700D0FF0E4C6E8A0EE82EFED767
:10FA38004C2EFCD700D0FF0E4C6E8A0EE82EFED757
:10FA48004C2EFCD700D0FF0E4C6E8A0EE82EFED747
:10FA58004C2EFCD700D0010EF2EC78F000D0F1EC7F
:10FA680076F080B002D0010E01D0000E0001826F46
:10FA780000018251D8B40CD0000E406EB80E416E11
:10FA8800FF0E426E010E5CEC76F049EC7BF000D084
:10FA980082B802D0010E01D0000E0001816F000172
:10FAA8008151D8B417D0850E0D6E000E0E6EEF0E74
:10FAB8000F6EFF0E106E4FC011F0126AC9EC7DF088
:10FAC800000E406E850E416E000E426E040E5CEC18
:10FAD80076F000D080B402D0010E01D0000E0001F3
:10FAE800836F00018351D8B40AD0000E406E930E84
:10FAF800416EFF0E426E030E5CEC76F000D080B6CD
:10FB080002D0010E01D0000E0001846F0001845163
:10FB1800D8B40AD0000E406EA60E416EFF0E426E9B
:10FB2800040E5CEC76F000D080BA02D0010E01D051
:10FB3800000E0001806F00018051D8B40DD0010E75
:10FB4800F2EC78F0000E406E7F0E416EFF0E426EB2
:10FB5800020E5CEC76F000D08A8E8A8C89821A0EAE
:10FB68004C6EF80EE82EFED74C2EFCD700D08A9E9D
:10FB78008A9C89921A0E4C6EF80EE82EFED74C2EEF
:10FB8800FCD700D06CD700EF00F0110E1F6E000EEE
:10FB9800206E82D1250E2718D8B409D00DC0D9FF00
:10FBA8000EC0DAFF27C0DFFF0D4A0E2A75D1000EFE
:10FBB800266E000E256E000E1B6E05D01B840F4AA4
:10FBC800102A01D00BD00FC0F6FF10C0F7FF0800B5
:10FBD800F550300AD8B4F2D701D0F5D70FC0F6FFE8
:10FBE80010C0F7FF0800F55034EC75F0D8A0A2D08B
:10FBF800000E266E000E256E00D025C001F026C02E
:10FC080002F0000E046E0A0E036E45EC75F001C09A
:10FC180025F002C026F0D00E176EFF0E186E0FC02A
:10FC2800F6FF10C0F7FF0800F550196E1A6A175052
:10FC3800192618501A22195025261A5026220F4A1A
:10FC4800102A0FC0F6FF10C0F7FF0800F55034EC7B
:10FC580075F0D8A06FD0D1D76DD02CD11FC0D9FFE7
:10FC680020C0DAFFDECF21F0DDCF22F0020E1F2602
:10FC7800000E202221502210D8A405D0E80E216EB3
:10FC8800FF0E226E00D0000E246E000E236E03D0ED
:10FC9800234A242A00D023502124176E24502220DE
:10FCA800186E17C0F6FF18C0F7FF0800F5500009D6
:10FCB800D8A4EED72550235C26502458D8B005D0B8
:10FCC8002350255E2450265A0ED0000E266E000EB4
:10FCD800256E09D00DC0D9FF0EC0DAFF200EDF6EE9
:10FCE8000D4A0E2A00D02506D8A026062528F2E1BE
:10FCF8002628D8B412D0EED710D021C0F6FF22C0E3
:10FD0800F7FF0DC0D9FF0EC0DAFF0800F5CFDFFFFF
:10FD1800214A222A0D4A0E2A00D02306D8A02406FA
:10FD28002328EBE12428D8B4B7D0E7D7B5D0C00E44
:10FD38001B1214D00FC0F6FF10C0F7FF0F4A102A8D
:10FD48000800F5CF27F02750000AD8B4B3D0730ABB
:10FD5800D8B484D7060AD8B4EAD79ED01FC0D9FF32
:10FD680020C0DAFFDECF1CF0DDCF1DF0020E1F260B
:10FD7800000E2022010E276E050E2718D8B416D0C3
:10FD880001D014D02750020DCD0EF324F66EFE0ECE
:10FD9800F420F76E0900F5501C5C0900F5501D5859
:10FDA800D8A004D001D002D0272AE6D7800E27BEDB
:10FDB8007F0E176E2550275C2650800A1758D8B03A
:10FDC80007D02750255E000E27BEFF0E265A05D005
:10FDD800000E266E000E256E00D01BA415D02550EF
:10FDE8002610D8B426D00DC0D9FF0EC0DAFF300EC9
:10FDF800DF6E0D4A0E2A2506D8A0260625502610A5
:10FE0800D8B417D0F0D715D025502610D8B411D0B3
:10FE18000DC0D9FF0EC0DAFF200EDF6E0D4A0E2A84
:10FE28002506D8A0260625502610D8B402D0F0D72B
:10FE380000D027C01EF02AD01E50020DCD0EF3248C
:10FE4800F66EFE0EF420F76E0900F5CF03F00A00F7
:10FE5800F5CF04F01CC001F01DC002F07FEC75F076
:10FE680001C008F002C009F0000E0B6E0A0E0A6EFF
:10FE780059EC75F00850300F276E0DC0D9FF0EC031
:10FE8800DAFF27C0DFFF0D4A0E2A00D01E061E2803
:10FE9800D8B402D0D1D700D00FC0F6FF10C0F7FFFA
:10FEA8000F4A102A0800F5CF27F02750D8B402D0FF
:10FEB80071D600D00DC0D9FF0EC0DAFF000EDF6E7C
:10FEC800120012000001000A006400E80310272055
:10FED800202020202020202020202020202020201A
:10FEE800202020004C756E657320202020202020C3
:10FEF80020202020202020200053616261646F2090
:10FF080020202020202020202020202020004D619B
:10FF1800727465732020202020202020202020209B
:10FF28002020004A75657665732020202020202037
:10FF38002020202020202000446F6D696E676F20EC
:10FF48002020202020202020202020200056696505
:10FF5800726E657320202020202020202020202061
:10FF680020004D696572636F6C6573202020202026
:10FF78002020202020200043454E54455220202098
:10FF880020202020202020202020005249474854AB
:10FF98002020202020202020202020202000555014
:10FFA8002020202020202020202020202020200069
:10FFB80050726F6772616D2064656C2072656C6F3A
:10FFC8006A00253032752F253032752F253032756D
:10FFD80000253032753A253032753A2530327500B1
:10FFE800286E756C6C290025303375002573000068
:08FFF800AEF718FFF3F8FFF16A
:00000001FF
