:0400000036EF6FF078
:10DCFA00140017173B3B1416F29C550EA76EAA0E7A
:10DD0A00A76E0F013F8BF28C1200C280C28200D034
:10DD1A00C2B2FED7030E016E980EE82EFED7012E70
:10DD2A00FCD7C4CFCFF0C2901200036E000E026E71
:10DD3A003A0E036006D02F0E036403D0010E026E62
:10DD4A0000D002C001F0013012001200015003029B
:10DD5A00F3CF05F0F4CF06F001500402F350062683
:10DD6A0002500302F350062605C001F006C002F075
:10DD7A0012001200020005000200080002000F0053
:10DD8A0002001200040005000400080004000F004D
:10DD9A000400120002000000030000000300030058
:10DDAA0003000600040000000400030000A0410074
:10DDBA00B441060012000B0037000A500B10D8B409
:10DDCA001DD0010E0C6E05D0D8900A360B360C2ADF
:10DDDA0000D00BBE02D0F8D700D00A50085C0B5016
:10DDEA000958D8A005D00A50085E0B50095A00D02D
:10DDFA00D8900B320A320C2EF0D700D008C008F0A7
:10DE0A0009C009F01200000E066E000E056E0350DE
:10DE1A000410D8B421D0010E076E05D0D89003366D
:10DE2A000436072A00D004BE02D0F8D700D0D89012
:10DE3A00053606360350015C04500258D8A006D0B5
:10DE4A000350015E0450025A058000D0D890043273
:10DE5A000332072EECD700D005C001F006C002F04D
:10DE6A00120000EEA6F0420EEE6AE806FDE15F6AD5
:10DE7A005E6A5D6A5C6A5B6A5A6A7E0EF66EDD0EDF
:10DE8A00F76E000EF86E00EE60F010EE46F0090034
:10DE9A00F5CFEEFFE550E150FAE1FA0EF66EDC0E30
:10DEAA00F76E000EF86E00EE52F010EE08F0090060
:10DEBA00F5CFEEFFE550E150FAE1000EF86E0001F1
:10DECA00A7EF75F0FC0E0F013F170F013F8198CFA6
:10DEDA000FF099CF10F098CF11F099CF12F0FC0EF5
:10DEEA000F013F170F013F8198CF07F099CF08F034
:10DEFA0098CF09F099CF0AF009501118D8A4E2D79F
:10DF0A0020EE03F00150D9260250DA220FC0DFFFBB
:10DF1A0020EE02F00150D9260250DA2212C0DFFFA9
:10DF2A0020EE01F00150D9260250DA2211C0DFFF9B
:10DF3A001200FC0E0F013F17030E0F013F1398CF7B
:10DF4A000BF099CF0CF098CF0DF099CF0EF098CF37
:10DF5A000FF099CF10F0FC0E0F013F17030E0F01BF
:10DF6A003F1398CF03F099CF04F098CF05F099CFDB
:10DF7A0006F098CF07F099CF08F005500D18D8A4ED
:10DF8A00D8D720EE01F00150D9260250DA220DC06E
:10DF9A00DFFF20EE02F00150D9260250DA220EC02D
:10DFAA00DFFF01C0D9FF02C0DAFF10C0DFFF20EE99
:10DFBA0003F00150D9260250DA220BC0DFFF12000B
:10DFCA00436E0DD04050800F08D04050C00F05D08E
:10DFDA004050940F02D04050D40F446E0ED043509C
:10DFEA00010AD8B4EFD7030AD8B4EFD7010AD8B4D4
:10DFFA00EFD7070AD8B4EFD700D044507BEC72F0C1
:10E00A0015D041C0F6FF42C0F7FFF86A0E0EF7645A
:10E01A0003D00800F55005D0F6CFD9FFF7CFDAFFC5
:10E02A00DF500BEC73F0414A422A00D041C0F6FFA0
:10E03A0042C0F7FFF86A0E0EF76403D00800F550E5
:10E04A0005D0F6CFD9FFF7CFDAFFDF500009D8A401
:10E05A00D8D71200000E066E04AE07D0036C041E59
:10E06A00D8B0042A010E066E00D002AE07D0016CA9
:10E07A00021ED8B0022A010E061A00D0000E086E3F
:10E08A00000E076E03500410D8B421D0010E056E9D
:10E09A0005D0D89003360436052A00D004BE02D033
:10E0AA00F8D700D0D890073608360350015C0450E0
:10E0BA000258D8A006D00350015E0450025A0780C5
:10E0CA0000D0D89004320332052EECD700D0065087
:10E0DA00D8B405D0076C081ED8B0082A00D007C0EB
:10E0EA0001F008C002F0120012009FEC73F08AECF3
:10E0FA006EF0000E406ED70E416EFE0E426E010E9D
:10E10A00E5EC6FF0C2C028F0C3C029F0ECEC71F066
:10E11A0028C045F029C046F0000E406E45C041F0C7
:10E12A0046C042F0020EE5EC6FF0D00E0D6E000E06
:10E13A000E6E9F0E0F6EFE0E106E9EC011F09FC0E7
:10E14A0012F0A2C013F0A3C014F052C015F053C0CD
:10E15A0016F095EC76F0000E406ED00E416E000E71
:10E16A00426E030EE5EC6FF0D00E0D6E000E0E6ED1
:10E17A00BB0E0F6EFE0E106EA0C011F0A1C012F001
:10E18A00A4C013F0A5C014F0C6C015F0C7C016F09D
:10E19A0095EC76F0000E406ED00E416E000E426E87
:10E1AA00040EE5EC6FF01200000E066E20EE02F08F
:10E1BA000150D9260250DA225A0EDF60120020EEF0
:10E1CA0001F00150D9260250DA225A0EDF601200FD
:10E1DA0020EE03F00150D9260250DA22240EDF6421
:10E1EA0002D01200120020EE02F00150D92602508D
:10E1FA00DA22DF50096E20EE01F00150D9260250D2
:10E20A00DA22DF50086E0350D8B402D0F29C00D054
:10E21A00000E3FBB010E076E0750D8A403D081EC55
:10E22A006EF000D0000E3FBF010E056E0550D8B447
:10E23A0007D0000E91BE010E066E0F013F9F00D05F
:10E24A00FC0E0F013F170F013F8198CF0AF099CFBB
:10E25A000BF020EE03F00150D9260250DA22DF50EB
:10E26A000A6EFC0E0F013F170F013F810AC098FF8B
:10E27A000BC099FF08C098FF09C099FF0550D8B490
:10E28A000DD00F013F8F0650D8B402D0918E00D026
:10E29A000750D8B409D081EC6EF006D00750D8A444
:10E2AA0003D00F013F9B00D00350D8B41200F28C68
:10E2BA001200120093909392939493969398939A40
:10E2CA008A908A928A948A968A988A9A0F0E046EFB
:10E2DA00480EE82EFED7042EFCD70F0E046E480E09
:10E2EA00E82EFED7042EFCD70F0E046E480EE82E39
:10E2FA00FED7042EFCD70F0E046E480EE82EFED76A
:10E30A00042EFCD70F0E046E480EE82EFED7042EFC
:10E31A00FCD70F0E046E480EE82EFED7042EFCD74B
:10E32A00010E056E1FD021D08A908A928A848A862D
:10E33A008A988A9A8A908A928A848A868A888A9A03
:10E34A00030EE82EFED700F08A908A928A848A8683
:10E35A008A988A9A0F0E046E480EE82EFED7042E6B
:10E36A00FCD7052A030E0564DFD78A908A928A842D
:10E37A008A968A988A9A8A908A928A848A968A88B7
:10E38A008A9A030EE82EFED700F08A908A928A842F
:10E39A008A968A988A9A0F0E046E480EE82EFED73D
:10E3AA00042EFCD7280E056E05507BEC72F0100E79
:10E3BA00056E05507BEC72F0010E056E05507BEC84
:10E3CA0072F00F0E056E05507BEC72F0120069D0E8
:10E3DA002C0E0D6E000E0E6EF30E0F6EFF0E106EEB
:10E3EA00400E116EFF0E126E95EC76F079D02C0E5F
:10E3FA000D6E000E0E6EF30E0F6EFF0E106EEC0E0B
:10E40A00116EFE0E126E95EC76F06AD02C0E0D6E21
:10E41A00000E0E6EF30E0F6EFF0E106E160E116EBC
:10E42A00FF0E126E95EC76F05BD02C0E0D6E000E80
:10E43A000E6EF30E0F6EFF0E106E6A0E116EFF0E49
:10E44A00126E95EC76F04CD02C0E0D6E000E0E6E00
:10E45A00F30E0F6EFF0E106E2B0E116EFF0E126E64
:10E46A0095EC76F03DD02C0E0D6E000E0E6EF30E6E
:10E47A000F6EFF0E106E550E116EFF0E126E95EC9A
:10E48A0076F02ED02C0E0D6E000E0E6EF30E0F6E61
:10E49A00FF0E106E010E116EFF0E126E95EC76F0E5
:10E4AA001FD028C02AF029C02BF02B50000AD8A46C
:10E4BA0017D02A50000AD8B48BD7010AD8B497D7F4
:10E4CA00030AD8B4A3D7010AD8B4AFD7070AD8B475
:10E4DA00BBD7010AD8B4C7D7030AD8B4D3D700D058
:10E4EA002C0E286E000E296E12001200036E8A98F6
:10E4FA008A9A016A03AE01D0012A010E01168A50D6
:10E50A000118FE0B01188A6E03C001F0060E026E96
:10E51A00D8900132022EFCD7010E011601468A500C
:10E52A000118FD0B01188A6E03C001F0050E026E78
:10E53A00D8900132022EFCD7010E0116014601467F
:10E54A008A500118FB0B01188A6E03C001F0013AC8
:10E55A000F0E0116010E01160146014601468A50A8
:10E56A000118F70B01188A6E030EE82EFED700F089
:10E57A008A88030EE82EFED700F08A9803C001F0BD
:10E58A00D8900132D8900132D8900132010E01168A
:10E59A008A500118FE0B01188A6E03C001F0D89048
:10E5AA000132D8900132010E011601468A50011833
:10E5BA00FD0B01188A6E03C001F0D8900132010EDA
:10E5CA000116014601468A500118FB0B01188A6E92
:10E5DA0003C001F0010E01160146014601468A50A8
:10E5EA000118F70B01188A6E030EE82EFED700F009
:10E5FA008A88030EE82EFED700F08A980F0E016E65
:10E60A00480EE82EFED7012EFCD71200036E8A9818
:10E61A008A8A016A03AE01D0012A010E01168A50C4
:10E62A000118FE0B01188A6E03C001F0060E026E75
:10E63A00D8900132022EFCD7010E011601468A50EB
:10E64A000118FD0B01188A6E03C001F0050E026E57
:10E65A00D8900132022EFCD7010E0116014601465E
:10E66A008A500118FB0B01188A6E03C001F0013AA7
:10E67A000F0E0116010E01160146014601468A5087
:10E68A000118F70B01188A6E030EE82EFED700F068
:10E69A008A88030EE82EFED700F08A9803C001F09C
:10E6AA00D8900132D8900132D8900132010E011669
:10E6BA008A500118FE0B01188A6E03C001F0D89027
:10E6CA000132D8900132010E011601468A50011812
:10E6DA00FD0B01188A6E03C001F0D8900132010EB9
:10E6EA000116014601468A500118FB0B01188A6E71
:10E6FA0003C001F0010E01160146014601468A5087
:10E70A000118F70B01188A6E030EE82EFED700F0E7
:10E71A008A88030EE82EFED700F08A98030EE82EA8
:10E72A00FED700F00F0E016E480EE82EFED7012E1E
:10E73A00FCD71200E40E016E000E026E67EC6FF059
:10E74A000001E5510F0B0001F46F0001E5390F0BD1
:10E75A000F0B0001F36F0001E6510F0B0001F26F7E
:10E76A000001E6390F0B0F0B0001F16F0001E751B1
:10E77A000F0B0001EE6F0001E7390F0B0F0B0001C1
:10E78A00ED6F5C0E016E000E026E9EEC6FF05D5036
:10E79A000F0B0001EC6F5D380F0B0F0B0001EB6FD5
:10E7AA005E500F0B0001F06F5E380F0B0F0B00016C
:10E7BA00EF6F5CC0EAF05F500F0B0001E96F5F3842
:10E7CA000F0B0F0B0001E86F0001F3510A0D000156
:10E7DA00F451F3240001C66F0001000EF420000179
:10E7EA00C76F0001F1510A0D0001F251F324000133
:10E7FA00A46F0001000EF4200001A56F0001ED5185
:10E80A000A0D0001EE51F3240001A06F0001000E71
:10E81A00F4200001A16F0001EB510A0D0001EC5137
:10E82A00F32400019E6F0001000EF42000019F6F87
:10E83A00EAC0C2F00001C36B0001EF510A0D0001EA
:10E84A00F051F3240001A26F0001000EF420000130
:10E85A00A36F0001E8510A0D0001E951F324526E39
:10E86A000001000EF420536E1200000E066E20EE18
:10E87A0002F00150D9260250DA22130EDF6012008C
:10E88A0020EE02F00150D9260250DA22DF50D8B425
:10E89A00120020EE01F00150D9260250DA22320E7F
:10E8AA00DF60120020EE01F00150D9260250DA2270
:10E8BA00DF50D8B4120020EE03F00150D9260250DE
:10E8CA00DA22990EDF6402D01200120020EE03F061
:10E8DA000150D9260250DA22DF50076E20EE01F0ED
:10E8EA000150D9260250DA22DF500A6E20EE02F0D9
:10E8FA000150D9260250DA22DF500B6E0350D8B4E9
:10E90A0002D0F29C00D0000E3FBB010E096E0950E6
:10E91A00D8A403D081EC6EF000D0000E3FBF010EE8
:10E92A00056E0550D8B407D0000E91BE010E066ED2
:10E93A000F013F9F00D0FC0E0F013F170F013F81CF
:10E94A0098CF0CF099CF0DF001C0D9FF02C0DAFFC1
:10E95A00DF500D6EFC0E0F013F17030E0F013F1320
:10E96A0007C098FF08C099FF0AC098FF0BC099FF1B
:10E97A000CC098FF0DC099FF0550D8B40DD00F01F7
:10E98A003F8F0650D8B402D0918E00D00950D8B427
:10E99A0009D081EC6EF006D00950D8A403D00F013B
:10E9AA003F9B00D00350D8B41200F29C1200120010
:10E9BA0081EC6EF0A380C6C001F0C7C002F0000E61
:10E9CA00046E0A0E036E2FEC70F001500001F36F13
:10E9DA000001F3510A0DF35000080001C625000199
:10E9EA00F46F0001F351100DF3500001F4250001FA
:10E9FA00E56FA4C001F0A5C002F0000E046E0A0E75
:10EA0A00036E2FEC70F001500001F16F0001F1511B
:10EA1A000A0DF35000080001A4250001F26F00015D
:10EA2A00F151100DF3500001F2250001E66FA0C06C
:10EA3A0001F0A1C002F0000E046E0A0E036E2FEC64
:10EA4A0070F001500001ED6F0001ED510A0DF35015
:10EA5A0000080001A0250001EE6F0001ED51100D24
:10EA6A00F3500001EE250001E76F52C001F053C0D8
:10EA7A0002F0000E046E0A0E036E2FEC70F00150C5
:10EA8A000001E86F0001E8510A0DF3500008522412
:10EA9A000001E96F0001E851100DF3500001E9256A
:10EAAA005F6EA2C001F0A3C002F0000E046E0A0E4F
:10EABA00036E2FEC70F001500001EF6F0001EF516F
:10EACA000A0DF35000080001A2250001F06F0001B1
:10EADA00EF51100DF3500001F0255E6E9EC001F05B
:10EAEA009FC002F0000E046E0A0E036E2FEC70F047
:10EAFA0001500001EB6F0001EB510A0DF3500008C1
:10EB0A0000019E250001EC6F0001EB51100DF3503E
:10EB1A000001EC255D6EC2C0EAF0C2C05CF0E40EF2
:10EB2A00016E000E026E010E036ED9EC70F05C0EDF
:10EB3A00016E000E026E010E036E3AEC74F00F01C4
:10EB4A003F8F12009B8E9B9CD388D38AD38CD39001
:10EB5A00D3920F013F8F0F013F8BCD86FD0E926E30
:10EB6A00000E936E94680F014869F70E0F01496F02
:10EB7A002F0EC26E390EC16EDDEC74F05FEC71F0CF
:10EB8A00010E7BEC72F00C0E7BEC72F0FF0E516EF4
:10EB9A008A0EE82EFED7512EFCD700D0FF0E516EFA
:10EBAA008A0EE82EFED7512EFCD700D0FF0E516EEA
:10EBBA008A0EE82EFED7512EFCD700D0FF0E516EDA
:10EBCA008A0EE82EFED7512EFCD700D0FF0E516ECA
:10EBDA008A0EE82EFED7512EFCD700D0FF0E516EBA
:10EBEA008A0EE82EFED7512EFCD700D0FF0E516EAA
:10EBFA008A0EE82EFED7512EFCD700D0FF0E516E9A
:10EC0A008A0EE82EFED7512EFCD700D0010E7BECDF
:10EC1A0072F000D07AEC70F080B002D0010E01D010
:10EC2A00000E0001CC6F0001CC51D8B403D032ECF5
:10EC3A0078F000D082B802D0010E01D0000E000197
:10EC4A00CB6F0001CB51D8B417D0D00E0D6E000E89
:10EC5A000E6EEE0E0F6EFF0E106ECFC011F0126A1E
:10EC6A0095EC76F0000E406ED00E416E000E426EAC
:10EC7A00040EE5EC6FF000D080B402D0010E01D092
:10EC8A00000E0001CD6F0001CD51D8B40AD0000E9C
:10EC9A00406E930E416EFF0E426E030EE5EC6FF06E
:10ECAA0000D080B602D0010E01D0000E0001CE6F56
:10ECBA000001CE51D8B403D02DEC7BF000D080BA3D
:10ECCA0002D0010E01D0000E0001CA6F0001CA5124
:10ECDA00D8B40DD0010E7BEC72F0000E406E7F0EA0
:10ECEA00416EFF0E426E020EE5EC6FF000D08A8E86
:10ECFA008A8C89821A0E516EF80EE82EFED7512E92
:10ED0A00FCD700D08A9E8A9C89921A0E516EF80E00
:10ED1A00E82EFED7512EFCD700D07CD700EF00F0AA
:10ED2A00110E1F6E000E206E82D1250E2718D8B440
:10ED3A0009D00DC0D9FF0EC0DAFF27C0DFFF0D4A88
:10ED4A000E2A75D1000E266E000E256E000E1B6E61
:10ED5A0005D01B840F4A102A01D00BD00FC0F6FF32
:10ED6A0010C0F7FF0800F550300AD8B4F2D701D026
:10ED7A00F5D70FC0F6FF10C0F7FF0800F5509AEC60
:10ED8A006EF0D8A0A2D0000E266E000E256E00D01E
:10ED9A0025C001F026C002F0000E046E0A0E036EB2
:10EDAA00ABEC6EF001C025F002C026F0D00E176E53
:10EDBA00FF0E186E0FC0F6FF10C0F7FF0800F550DF
:10EDCA00196E1A6A1750192618501A221950252630
:10EDDA001A5026220F4A102A0FC0F6FF10C0F7FF5A
:10EDEA000800F5509AEC6EF0D8A06FD0D1D76DD04C
:10EDFA002CD11FC0D9FF20C0DAFFDECF21F0DDCF32
:10EE0A0022F0020E1F26000E202221502210D8A422
:10EE1A0005D0E10E216EFF0E226E00D0000E246E88
:10EE2A00000E236E03D0234A242A00D02350212423
:10EE3A00176E24502220186E17C0F6FF18C0F7FF6D
:10EE4A000800F5500009D8A4EED72550235C2650B7
:10EE5A002458D8B005D02350255E2450265A0ED007
:10EE6A00000E266E000E256E09D00DC0D9FF0EC009
:10EE7A00DAFF200EDF6E0D4A0E2A00D02506D8A032
:10EE8A0026062528F2E12628D8B412D0EED710D0CB
:10EE9A0021C0F6FF22C0F7FF0DC0D9FF0EC0DAFF6E
:10EEAA000800F5CFDFFF214A222A0D4A0E2A00D098
:10EEBA002306D8A024062328EBE12428D8B4B7D007
:10EECA00E7D7B5D0C00E1B1214D00FC0F6FF10C082
:10EEDA00F7FF0F4A102A0800F5CF27F02750000A3B
:10EEEA00D8B4B3D0730AD8B484D7060AD8B4EAD748
:10EEFA009ED01FC0D9FF20C0DAFFDECF1CF0DDCFC5
:10EF0A001DF0020E1F26000E2022010E276E050E8E
:10EF1A002718D8B416D001D014D02750020D950E58
:10EF2A00F324F66EFE0EF420F76E0900F5501C5C11
:10EF3A000900F5501D58D8A004D001D002D0272AC4
:10EF4A00E6D7800E27BE7F0E176E2550275C265007
:10EF5A00800A1758D8B007D02750255E000E27BE62
:10EF6A00FF0E265A05D0000E266E000E256E00D022
:10EF7A001BA415D025502610D8B426D00DC0D9FF11
:10EF8A000EC0DAFF300EDF6E0D4A0E2A2506D8A013
:10EF9A00260625502610D8B417D0F0D715D02550FC
:10EFAA002610D8B411D00DC0D9FF0EC0DAFF200E3A
:10EFBA00DF6E0D4A0E2A2506D8A0260625502610F1
:10EFCA00D8B402D0F0D700D027C01EF02AD01E50E5
:10EFDA00020D950EF324F66EFE0EF420F76E09006C
:10EFEA00F5CF03F00A00F5CF04F01CC001F01DC0F4
:10EFFA0002F008EC6FF001C008F002C009F0000E40
:10F00A000B6E0A0E0A6EE2EC6EF00850300F276E95
:10F01A000DC0D9FF0EC0DAFF27C0DFFF0D4A0E2A46
:10F02A0000D01E061E28D8B402D0D1D700D00FC0F7
:10F03A00F6FF10C0F7FF0F4A102A0800F5CF27F095
:10F04A002750D8B402D071D600D00DC0D9FF0EC057
:10F05A00DAFF000EDF6E12001200000E406EA60EDE
:10F06A00416EFF0E426E010EE5EC6FF0C2C047F032
:10F07A009EC048F0A2C049F052C04AF0A0C04BF06E
:10F08A00A4C04CF0000E4E6E000E4D6E0E0E7BECC0
:10F09A0072F0000E406EEB0E416EFE0E426E020ED4
:10F0AA00E5EC6FF0000E0001C56F000EC46F0001A1
:10F0BA00C5BF0AD00001C55106E11E0E0001C45D9C
:10F0CA00D8B0C2D201D0C0D2EA0E456EC30EE82E25
:10F0DA00FED7452EFCD700F080B602D0010E01D033
:10F0EA00000E0001CE6F0001CE51D8B4F8D0000E48
:10F0FA000001C56F000EC46F4D504E10D8A41DD02C
:10F10A00060E476002D0472A00D0000E406E47C064
:10F11A0028F0296AECEC71F028C041F029C042F0CD
:10F12A00020EE5EC6FF0000E406EEB0E416EFE0E25
:10F13A00426E020EE5EC6FF0D2D0020E4D184E1060
:10F14A00D8A425D01F0E486002D0482A00D0D00E7D
:10F15A000D6E000E0E6EC20E0F6EFF0E106E48C0C0
:10F16A0011F0126A95EC76F0000E406ED00E416EE8
:10F17A00000E426E030EE5EC6FF0000E406EEB0ED1
:10F18A00416EFE0E426E030EE5EC6FF0A8D0040E3F
:10F19A004D184E10D8A425D00C0E496002D0492A29
:10F1AA0000D0D00E0D6E000E0E6EC20E0F6EFF0E48
:10F1BA00106E49C011F0126A95EC76F0030E406E9B
:10F1CA00D00E416E000E426E030EE5EC6FF0030E98
:10F1DA00406EEB0E416EFE0E426E030EE5EC6FF0D2
:10F1EA007ED0060E4D184E10D8A425D0630E4A6064
:10F1FA0002D04A2A00D0D00E0D6E000E0E6EC20E3C
:10F20A000F6EFF0E106E4AC011F0126A95EC76F07E
:10F21A00060E406ED00E416E000E426E030EE5ECF5
:10F22A006FF0060E406EEB0E416EFE0E426E030E3E
:10F23A00E5EC6FF054D0080E4D184E10D8A425D026
:10F24A00170E4B6002D04B2A00D0D00E0D6E000E66
:10F25A000E6EC20E0F6EFF0E106E4BC011F0126AC8
:10F26A0095EC76F0000E406ED00E416E000E426EA6
:10F27A00040EE5EC6FF0000E406EEB0E416EFE0ED2
:10F28A00426E040EE5EC6FF02AD00A0E4D184E10AD
:10F29A00D8A425D03B0E4C6002D04C2A00D0D00E08
:10F2AA000D6E000E0E6EC20E0F6EFF0E106E4CC06B
:10F2BA0011F0126A95EC76F0030E406ED00E416E94
:10F2CA00000E426E040EE5EC6FF0030E406EEB0E7C
:10F2DA00416EFE0E426E040EE5EC6FF000D080B473
:10F2EA0002D0010E01D0000E0001CD6F0001CD51F8
:10F2FA00D8B436D04EBE06D04E5009E10A0E4D5C47
:10F30A00D8B005D0020E4D26000E4E2200D0000EB7
:10F31A000001C56F000EC46F4DC045F04EC046F0E7
:10F32A00D89045364636020E4526000E4622800EF5
:10F33A004524D96E000E4620DA6EDF50406EEB0E81
:10F34A00416EFE0E426ED8904D34D96E4E34DA6E4E
:10F35A00800ED926000EDA22DF50E5EC6FF000D0DD
:10F36A0080B002D0010E01D0000E0001CC6F000166
:10F37A00CC51D8B436D04EBE0BD04E5004E1020E5A
:10F38A004D5CD8A005D0FE0E4D26FF0E4E2200D0B1
:10F39A00000E0001C56F000EC46F4DC045F04EC08F
:10F3AA0046F0D89045364636020E4526000E4622CD
:10F3BA00800E4524D96E000E4620DA6EDF50406E6C
:10F3CA00EB0E416EFE0E426ED8904D34D96E4E341D
:10F3DA00DA6E800ED926000EDA22DF50E5EC6FF0E5
:10F3EA0000D082B802D0010E01D0000E0001CB6F0E
:10F3FA000001CB51D8B4F8D0000E0001C56F000E41
:10F40A00C46F4D504E10D8A41DD04750D8B402D066
:10F41A00470600D0000E406E47C028F0296AECEC7F
:10F42A0071F028C041F029C042F0020EE5EC6FF0FD
:10F43A00000E406EEB0E416EFE0E426E020EE5ECC1
:10F44A006FF0D2D0020E4D184E10D8A425D0010E5E
:10F45A00486402D0480600D0D00E0D6E000E0E6E23
:10F46A00C20E0F6EFF0E106E48C011F0126A95ECB4
:10F47A0076F0000E406ED00E416E000E426E030E04
:10F48A00E5EC6FF0000E406EEB0E416EFE0E426E22
:10F49A00030EE5EC6FF0A8D0040E4D184E10D8A458
:10F4AA0025D0010E496402D0490600D0D00E0D6E57
:10F4BA00000E0E6EC20E0F6EFF0E106E49C011F0D6
:10F4CA00126A95EC76F0030E406ED00E416E000E75
:10F4DA00426E030EE5EC6FF0030E406EEB0E416ECA
:10F4EA00FE0E426E030EE5EC6FF07ED0060E4D184E
:10F4FA004E10D8A425D0140E4A6402D04A0600D071
:10F50A00D00E0D6E000E0E6EC20E0F6EFF0E106E36
:10F51A004AC011F0126A95EC76F0060E406ED00ED3
:10F52A00416E000E426E030EE5EC6FF0060E406E61
:10F53A00EB0E416EFE0E426E030EE5EC6FF054D0F8
:10F54A00080E4D184E10D8A425D04B50D8B402D06E
:10F55A004B0600D0D00E0D6E000E0E6EC20E0F6E50
:10F56A00FF0E106E4BC011F0126A95EC76F0000E89
:10F57A00406ED00E416E000E426E040EE5EC6FF046
:10F58A00000E406EEB0E416EFE0E426E040EE5EC6E
:10F59A006FF02AD00A0E4D184E10D8A425D04C5020
:10F5AA00D8B402D04C0600D0D00E0D6E000E0E6EEE
:10F5BA00C20E0F6EFF0E106E4CC011F0126A95EC5F
:10F5CA0076F0030E406ED00E416E000E426E040EAF
:10F5DA00E5EC6FF0030E406EEB0E416EFE0E426ECE
:10F5EA00040EE5EC6FF000D080BA02D0010E01D013
:10F5FA00000E0001CA6F0001CA51D8B41AD047C020
:10F60A00C2F00001C36B48C09EF000019F6B49C065
:10F61A00A2F00001A36B4AC052F0536A4BC0A0F09B
:10F62A000001A16B4CC0A4F00001A56BDDEC74F0E5
:10F63A000BD00001C44BC52B0001C5BF45D5000145
:10F64A00C55102E13AD500D00C0E7BEC72F01200E3
:10F65A00000E406EE80E416EFF0E426E010EE5ECA2
:10F66A006FF0D00E0D6E000E0E6EB80E0F6EFF0EFE
:10F67A00106E59C011F0126A5BC013F0146A95EC4F
:10F68A0076F0000E406ED00E416E000E426E020EF3
:10F69A00E5EC6FF0D00E0D6E000E0E6EC70E0F6EFB
:10F6AA00FF0E106E55C011F0126A57C013F0146A9B
:10F6BA0095EC76F00B0E406ED00E416E000E426E47
:10F6CA00020EE5EC6FF0000E406ED50E416EFF0E95
:10F6DA00426E030EE5EC6FF0D00E0D6E000E0E6E4C
:10F6EA00B80E0F6EFF0E106E58C011F0126A5AC093
:10F6FA0013F0146A95EC76F0000E406ED00E416E4F
:10F70A00000E426E040EE5EC6FF0D00E0D6E000E88
:10F71A000E6EC70E0F6EFF0E106E54C011F0126AF5
:10F72A0056C013F0146A95EC76F00B0E406ED00EAC
:10F73A00416E000E426E040EE5EC6FF058C047F0C1
:10F74A005AC048F054C049F056C04AF059C04BF06C
:10F75A005BC04CF055C04DF057C04EF0000E506ED5
:10F76A00000E4F6E0E0E7BEC72F0050E406EEB0E25
:10F77A00416EFE0E426E020EE5EC6FF0000E0001C5
:10F78A00C56F000EC46F0001C5BF0AD00001C55184
:10F79A0006E11E0E0001C45DD8B073D301D071D347
:10F7AA00EA0E456EC30EE82EFED7452EFCD700F0B2
:10F7BA0080B602D0010E01D0000E0001CE6F00010A
:10F7CA00CE51D8B454D1000E0001C56F000EC46FDB
:10F7DA004F505010D8A425D0170E4B6002D04B2A98
:10F7EA0000D0D00E0D6E000E0E6EC20E0F6EFF0E02
:10F7FA00106E4BC011F0126A95EC76F0050E406E51
:10F80A00D00E416E000E426E020EE5EC6FF0050E50
:10F81A00406EEB0E416EFE0E426E020EE5EC6FF08C
:10F82A0026D1020E4F185010D8A425D03B0E4C609A
:10F83A0002D04C2A00D0D00E0D6E000E0E6EC20EF3
:10F84A000F6EFF0E106E4CC011F0126A95EC76F036
:10F85A00080E406ED00E416E000E426E020EE5ECAE
:10F86A006FF0080E406EEB0E416EFE0E426E020EF7
:10F87A00E5EC6FF0FCD0040E4F185010D8A425D038
:10F88A00170E4D6002D04D2A00D0D00E0D6E000E1C
:10F89A000E6EC20E0F6EFF0E106E4DC011F0126A80
:10F8AA0095EC76F00F0E406ED00E416E000E426E51
:10F8BA00020EE5EC6FF00F0E406EEB0E416EFE0E7F
:10F8CA00426E020EE5EC6FF0D2D0060E4F185010C1
:10F8DA00D8A425D03B0E4E6002D04E2A00D0D00EBE
:10F8EA000D6E000E0E6EC20E0F6EFF0E106E4EC023
:10F8FA0011F0126A95EC76F0120E406ED00E416E3F
:10F90A00000E426E020EE5EC6FF0120E406EEB0E28
:10F91A00416EFE0E426E020EE5EC6FF0A8D0080EA4
:10F92A004F185010D8A425D0170E476002D0472A86
:10F93A0000D0D00E0D6E000E0E6EC20E0F6EFF0EB0
:10F94A00106E47C011F0126A95EC76F0050E406E03
:10F95A00D00E416E000E426E040EE5EC6FF0050EFD
:10F96A00406EEB0E416EFE0E426E040EE5EC6FF039
:10F97A007ED00A0E4F185010D8A425D03B0E4860EE
:10F98A0002D0482A00D0D00E0D6E000E0E6EC20EA6
:10F99A000F6EFF0E106E48C011F0126A95EC76F0E9
:10F9AA00080E406ED00E416E000E426E040EE5EC5B
:10F9BA006FF0080E406EEB0E416EFE0E426E040EA4
:10F9CA00E5EC6FF054D00C0E4F185010D8A425D087
:10F9DA00170E496002D0492A00D0D00E0D6E000ED3
:10F9EA000E6EC20E0F6EFF0E106E49C011F0126A33
:10F9FA0095EC76F00F0E406ED00E416E000E426E00
:10FA0A00040EE5EC6FF00F0E406EEB0E416EFE0E2B
:10FA1A00426E040EE5EC6FF02AD00E0E4F1850100D
:10FA2A00D8A425D03B0E4A6002D04A2A00D0D00E74
:10FA3A000D6E000E0E6EC20E0F6EFF0E106E4AC0D5
:10FA4A0011F0126A95EC76F0120E406ED00E416EED
:10FA5A00000E426E040EE5EC6FF0120E406EEB0ED5
:10FA6A00416EFE0E426E040EE5EC6FF000D080B4DB
:10FA7A0002D0010E01D0000E0001CD6F0001CD5160
:10FA8A00D8B436D050BE06D0505009E10E0E4F5CA5
:10FA9A00D8B005D0020E4F26000E502200D0000E1C
:10FAAA000001C56F000EC46F4FC045F050C046F04C
:10FABA00D89045364636020E4526000E4622600E7E
:10FACA004524D96E000E4620DA6EDF50406EEB0EEA
:10FADA00416EFE0E426ED8904F34D96E5034DA6EB3
:10FAEA00600ED926000EDA22DF50E5EC6FF000D066
:10FAFA0080B002D0010E01D0000E0001CC6F0001CF
:10FB0A00CC51D8B436D050BE0BD0505004E1020EBE
:10FB1A004F5CD8A005D0FE0E4F26FF0E502200D013
:10FB2A00000E0001C56F000EC46F4FC045F050C0F3
:10FB3A0046F0D89045364636020E4526000E462235
:10FB4A00600E4524D96E000E4620DA6EDF50406EF4
:10FB5A00EB0E416EFE0E426ED8904F34D96E503481
:10FB6A00DA6E600ED926000EDA22DF50E5EC6FF06D
:10FB7A0000D082B802D0010E01D0000E0001CB6F76
:10FB8A000001CB51D8B454D1000E0001C56F000E4C
:10FB9A00C46F4F505010D8A425D04B50D8B402D0BF
:10FBAA004B0600D0D00E0D6E000E0E6EC20E0F6EFA
:10FBBA00FF0E106E4BC011F0126A95EC76F0050E2E
:10FBCA00406ED00E416E000E426E020EE5EC6FF0F2
:10FBDA00050E406EEB0E416EFE0E426E020EE5EC15
:10FBEA006FF026D1020E4F185010D8A425D04C50D1
:10FBFA00D8B402D04C0600D0D00E0D6E000E0E6E98
:10FC0A00C20E0F6EFF0E106E4CC011F0126A95EC08
:10FC1A0076F0080E406ED00E416E000E426E020E55
:10FC2A00E5EC6FF0080E406EEB0E416EFE0E426E72
:10FC3A00020EE5EC6FF0FCD0040E4F185010D8A459
:10FC4A0025D04D50D8B402D04D0600D0D00E0D6E3E
:10FC5A00000E0E6EC20E0F6EFF0E106E4DC011F02A
:10FC6A00126A95EC76F00F0E406ED00E416E000EC1
:10FC7A00426E020EE5EC6FF00F0E406EEB0E416E17
:10FC8A00FE0E426E020EE5EC6FF0D2D0060E4F1851
:10FC9A005010D8A425D04E50D8B402D04E0600D069
:10FCAA00D00E0D6E000E0E6EC20E0F6EFF0E106E8F
:10FCBA004EC011F0126A95EC76F0120E406ED00E1C
:10FCCA00416E000E426E020EE5EC6FF0120E406EAF
:10FCDA00EB0E416EFE0E426E020EE5EC6FF0A8D0FE
:10FCEA00080E4F185010D8A425D04750D8B402D0C7
:10FCFA00470600D0D00E0D6E000E0E6EC20E0F6EAD
:10FD0A00FF0E106E47C011F0126A95EC76F0050EE0
:10FD1A00406ED00E416E000E426E040EE5EC6FF09E
:10FD2A00050E406EEB0E416EFE0E426E040EE5ECC1
:10FD3A006FF07ED00A0E4F185010D8A425D0485024
:10FD4A00D8B402D0480600D0D00E0D6E000E0E6E4A
:10FD5A00C20E0F6EFF0E106E48C011F0126A95ECBB
:10FD6A0076F0080E406ED00E416E000E426E040E02
:10FD7A00E5EC6FF0080E406EEB0E416EFE0E426E21
:10FD8A00040EE5EC6FF054D00C0E4F185010D8A4A6
:10FD9A0025D04950D8B402D0490600D0D00E0D6EF5
:10FDAA00000E0E6EC20E0F6EFF0E106E49C011F0DD
:10FDBA00126A95EC76F00F0E406ED00E416E000E70
:10FDCA00426E040EE5EC6FF00F0E406EEB0E416EC4
:10FDDA00FE0E426E040EE5EC6FF02AD00E0E4F189E
:10FDEA005010D8A425D04A50D8B402D04A0600D020
:10FDFA00D00E0D6E000E0E6EC20E0F6EFF0E106E3E
:10FE0A004AC011F0126A95EC76F0120E406ED00ECE
:10FE1A00416E000E426E040EE5EC6FF0120E406E5B
:10FE2A00EB0E416EFE0E426E040EE5EC6FF000D052
:10FE3A0080BA02D0010E01D0000E0001CA6F000183
:10FE4A00CA51D8B413D047C058F048C05AF049C074
:10FE5A0054F04AC056F04BC059F04CC05BF04DC04C
:10FE6A0055F04EC057F0DDEC74F00BD00001C44BD6
:10FE7A00C52B0001C5BF94D40001C55102E189D444
:10FE8A0000D00C0E7BEC72F012000001000A006434
:10FE9A0000E8031027253032752F253032752F25BB
:10FEAA0030327520202020202020202020202020D1
:10FEBA0000253032753A253032753A2530327520B0
:10FECA002020202020202020202020200020202048
:10FEDA002020202020202020202020202020202018
:10FEEA0020004C756E6573202020202020202020C1
:10FEFA002020202020200053616261646F2020208E
:10FF0A002020202020202020202020004D617274F3
:10FF1A00657320202020202020202020202020203F
:10FF2A00004A756576657320202020202020202035
:10FF3A00202020202000446F6D696E676F202020EA
:10FF4A002020202020202020202000566965726E63
:10FF5A00657320202020202020202020202020001F
:10FF6A004D696572636F6C65732020202020202004
:10FF7A00202020200043454E544552202020202096
:10FF8A0020202020202020200052494748542020A9
:10FF9A0020202020202020202020200050726F675F
:10FFAA0072616D2064656C2072656C6F6A00496EBF
:10FFBA00696320253032753A253032750046696EFC
:10FFCA0020253032753A2530327500496C756D69D5
:10FFDA006E6163696F6E00286E756C6C29005269D8
:0EFFEA0065676F002530337500257300000039
:08FFF800AEF718FFF3F8FFF16A
:00000001FF
