:04000000D9EF58F0EC
:10AF7000F29C550EA76EAA0EA76E0F013F8BF28CA6
:02AF80001200BD
:10AF830000A04166CA411400060017000B003A00F6
:10AF930016173B1417C280C28200D0C2B2FED70379
:10AFA3000E016E980EE82EFED7012EFCD7C4CFC03B
:10AFB300F0C2901200036E000E026E3A0E0360069A
:10AFC300D02F0E036403D0010E026E00D002C00125
:10AFD300F0013012001200015002100310D8B40621
:10AFE300D0000E011A000E021A800E031A01C001CE
:10AFF300F002C002F003C003F012000C6E0C50010B
:10B003006E026A036A8E0E046E000E056EA4EC5B7C
:10B01300F001C009F002C00AF003C00BF0120012E5
:10B02300000F501102F3CF13F0F4CF14F00F5012AE
:10B0330002F350142610501102F350142613C00FBC
:10B04300F014C010F0120012000200050002000804
:10B053000002000F000200120004000500040008B3
:10B063000004000F000400120002000000030000AF
:10B0730000030003000300060004000000040003B3
:10B0830000000E3D6E3BAE07D03A6C3B1ED8B03B82
:10B093002A010E3D6E00D03AC001F03BC002F0031E
:10B0A3006A8E0E046E3DC005F0A4EC5BF001C03A5D
:10B0B300F002C03BF003C03CF0120012003D503ED2
:10B0C300103F10D8B407D0000E3D1A000E3E1A8070
:10B0D3000E3F1A00D03AC02EF03BC02FF03CC030D8
:10B0E300F03DC031F03EC032F03FC033F0BCEC6401
:10B0F300F02EC03AF02FC03BF030C03CF0120012EB
:10B10300005C6E0C0E9BEC5FF0C10E436E000E44B0
:10B113006E9DC045F09EC046F09FC047F0486A8FC1
:10B12300EC74F09CC057F0C10E586E000E596E5C63
:10B1330050C4EC5AF09CC057F0050E586EFE0E59E1
:10B143006E5C50C4EC5AF00F0E9BEC5FF012008E55
:10B153000E116E07D0D8900C320B320A320932111D
:10B163002A00D0000E09140D6E000E0A140E6E0094
:10B173000E0B140F6EFF0E0C14106E0D500E100FED
:10B18300101010D8A4E7D709C001F00AC002F00BD1
:10B19300C003F011C004F0000E056EA4EC5BF001D7
:10B1A300C009F002C00AF003C00BF0120012000144
:10B1B300EE38F0180EEE6AE806FDE100EEABF03271
:10B1C3000EEE6AE806FDE14C0EF66EB00EF76E0069
:10B1D3000EF86E01EE00F010EE38F00900F5CFEE38
:10B1E300FFE550E150FAE1830EF66EAF0EF76E0005
:10B1F3000EF86E00EEDDF010EE15F00900F5CFEE5F
:10B20300FFE550E150FAE1000EF86E00013CEF63F8
:10B21300F0FC0E0F013F170F013F8198CF0FF099FC
:10B22300CF10F098CF11F099CF12F0FC0E0F013F21
:10B23300170F013F8198CF07F099CF08F098CF09F6
:10B24300F099CF0AF009501118D8A4E2D720EE03E1
:10B25300F00150D9260250DA220FC0DFFF20EE02A0
:10B26300F00150D9260250DA2212C0DFFF20EE018E
:10B27300F00150D9260250DA2211C0DFFF1200126A
:10B2830050131014101510D8B429D0010E166E07E0
:10B29300D0D8901236133614361536162A00D01528
:10B2A300BE02D0F6D700D012500E5C13500F5814C4
:10B2B30050105815501158D8A009D012500E5E13D3
:10B2C300500F5A1450105A1550115A00D0D89015D7
:10B2D30032143213321232162EE6D700D00EC00EBD
:10B2E300F00FC00FF010C010F011C011F0120000E9
:10B2F30001F051016E026A0001E751011814E100E7
:10B3030001E8510218D8A40FD00001BE51016E020A
:10B313006A0001EB51011807E10001EC510218D852
:10B32300A402D08A8E00D00001ED51016E026A00A2
:10B3330001E751011814E10001E8510218D8A412E1
:10B34300000001BD51016E026A0001EB51011807B3
:10B35300E10001EC510218D8A412008A9E120012D7
:10B3630000000E066E02AE07D0016C021ED8B002BA
:10B373002A010E066E00D004AE05D0036C041ED85D
:10B38300B0042A00D003500410D8B41DD0010E0518
:10B393006E05D0D89003360436052A00D004BE02C9
:10B3A300D0F8D700D00350015C04500258D8A00550
:10B3B300D00350015E0450025A00D0D890043203E7
:10B3C30032052EF0D700D00650D8B405D0016C0258
:10B3D3001ED8B0022A00D001C001F002C002F01250
:10B3E3000012000001F151016E026A0001E75101F0
:10B3F300181FE10001E8510218D8A41AD00001BFB8
:10B4030051016E026A0001EB51011812E10001ECD7
:10B41300510218D8A40DD082BE02D0010E01D00073
:10B423000E0001B76F0001B751D8B402D08A8C0067
:10B43300D00001EE51016E026A0001E751011814B8
:10B44300E10001E8510218D8A412000001EF5101F4
:10B453006E026A0001EB51011807E10001EC510291
:10B4630018D8A412008A9C12001200000E096E0064
:10B473000E0A6E000E0B6E000E0C6E0550061007C2
:10B48300100810D8B42FD0010E0D6E07D0D8900538
:10B49300360636073608360D2A00D008BE02D0F627
:10B4A300D700D0D89009360A360B360C3605500132
:10B4B3005C065002580750035808500458D8A00A95
:10B4C300D00550015E0650025A0750035A08500433
:10B4D3005A098000D0D89008320732063205320D5F
:10B4E3002EE0D700D009C001F00AC002F00BC00360
:10B4F300F00CC004F01200FC0E0F013F17030E0FF7
:10B50300013F1398CF0BF099CF0CF098CF0DF09922
:10B51300CF0EF098CF0FF099CF10F0FC0E0F013F34
:10B5230017030E0F013F1398CF03F099CF04F09840
:10B53300CF05F099CF06F098CF07F099CF08F00523
:10B54300500D18D8A4D8D720EE01F00150D9260207
:10B5530050DA220DC0DFFF20EE02F00150D926029F
:10B5630050DA220EC0DFFF01C0D9FF02C0DAFF109C
:10B57300C0DFFF20EE03F00150D9260250DA220B80
:10B58300C0DFFF12005A6E0DD05750800F08D057FE
:10B5930050C00F05D05750940F02D05750D40F5BB3
:10B5A3006E0ED05A50010AD8B4EFD7030AD8B4EFBD
:10B5B300D7010AD8B4EFD7070AD8B4EFD700D05BC6
:10B5C300509BEC5FF015D058C0F6FF59C0F7FFF859
:10B5D3006A0E0EF76403D00800F55005D0F6CFE9E4
:10B5E300FFF7CFEAFFEF502BEC60F0584A592A00DF
:10B5F300D058C0F6FF59C0F7FFF86A0E0EF7640380
:10B60300D00800F55005D0F6CFE9FFF7CFEAFFEFFA
:10B61300500009D8A4D8D712003CAE17D03AC04086
:10B62300F03BC041F03CC042F0401E411E421E4070
:10B633002A000E41224222000E40243A6E000E419F
:10B64300203B6E800E42203C6E00D03FAE17D03DB3
:10B65300C040F03EC041F03FC042F0401E411E4298
:10B663001E402A000E41224222000E40243D6E005D
:10B673000E41203E6E800E42203F6E00D0000E3AF7
:10B683001A000E3B1A800E3C1A000E3D1A000E3EA5
:10B693001A800E3F1A3D503A5C3E503B583F503C97
:10B6A30058D8B002D0D8901200D8801200120000EF
:10B6B3000E0C6E0AAE07D0096C0A1ED8B00A2A0116
:10B6C3000E0C6E00D008AE07D0076C081ED8B00869
:10B6D3002A010E0C1A00D0000E0E6E000E0D6E091C
:10B6E300500A10D8B421D0010E0B6E05D0D89009A2
:10B6F300360A360B2A00D00ABE02D0F8D700D0D8BB
:10B70300900D360E360950075C0A500858D8A0062B
:10B71300D00950075E0A50085A0D8000D0D8900A0D
:10B723003209320B2EECD700D00C50D8B405D00D13
:10B733006C0E1ED8B00E2A00D00DC007F00EC00844
:10B74300F0120012000450D8B405D00150021003C7
:10B7530010D8A40ED0000E016E000E026E000E0370
:10B763006E120006D0042AD890033202320132004E
:10B77300D0000E0114066E000E0214076EFE0E03B7
:10B7830014086E065007100810D8B40ED0EBD70C6F
:10B79300D0042A010E0126000E0222000E0322D835
:10B7A3009003320232013200D0000E0114066E0003
:10B7B3000E0214076EFF0E0314086E0650071008DE
:10B7C30010D8B408D0E5D706D00406D890013602C5
:10B7D30036033600D002BE04D0020E0460F5D70053
:10B7E300D004B002D0029E00D0D89004320450039B
:10B7F300120550D8B402D0038E00D001C001F0026C
:10B80300C002F003C003F01200120040C044F04530
:10B813006A466A3F34443601E3458044504B6E4BDD
:10B8230050D8A407D0000E3E6E000E3F6E000E40AF
:10B833006E120043C044F0456A466A4234443601FE
:10B84300E3458044504C6E4C50D8A407D0000E3EC4
:10B853006E000E3F6E000E406E1200000E486E002A
:10B863000E496E000E4A6E4C50890F4B5E40C04C21
:10B87300F043504C1A800E4C163F8EFF0E3E16FFBF
:10B883000E3F16000E4016428EFF0E4116FF0E426B
:10B8930016000E4316180E476E00D0D8904836494E
:10B8A300364A3641503E5C42503F5843504058D888
:10B8B300A007D041503E5E42503F5A4350405A4841
:10B8C30080D8903E363F364036472EE7D700D048E3
:10B8D300C001F049C002F04AC003F04BC004F04C71
:10B8E300C005F0A4EC5BF001C03EF002C03FF003E2
:10B8F300C040F012001200000E576E020E586EFF89
:10B903000E596E010EC4EC5AF0F6EC61F0AFC05361
:10B91300F0B0C054F00CEC5FF053C05CF054C05D69
:10B92300F0000E576E5CC058F05DC059F0020EC4B3
:10B93300EC5AF0C10E436E000E446ED50E456EFDFB
:10B943000E466EE5C047F0E6C048F0E9C049F0EAAC
:10B95300C04AF0E3C04BF0E4C04CF08FEC74F0004D
:10B963000E576EC10E586E000E596E030EC4EC5A7C
:10B97300F0C10E436E000E446EA20E456EFF0E46DE
:10B983006EE7C047F0E8C048F0EBC049F0ECC04AAE
:10B99300F0B3C04BF0B4C04CF08FEC74F0000E5712
:10B9A3006EC10E586E000E596E040EC4EC5AF0C1EF
:10B9B3000E436E000E446EC20E456EFF0E466EE0E1
:10B9C300C047F0E1C048F0E2C049F0000E4B6EDF23
:10B9D3000E4A6E8FEC74F00A0E576EC10E586E004D
:10B9E3000E596E040EC4EC5AF012002DC02FF03025
:10B9F3006A316A2C342F3601E330802F50396E3987
:10BA030050D8A409D0000E2B6E000E2C6E000E2D04
:10BA13006E000E2E6E1200170E2F6E2BC030F02C00
:10BA2300C031F02DC032F02F28336E04D0D89032BD
:10BA33003231323032332EFAD73050346E2C8EFFFF
:10BA43000E2B16FF0E2C16000E2D162B50356E2CBA
:10BA530050366E2D50376E386A8E0E395E39AE17FA
:10BA6300D03950800A8F0FD8B00AD0000E2B6E0049
:10BA73000E2C6E000E2D6E000E2E6E120000D0D80E
:10BA8300903832373236323532393EF9D719D0173A
:10BA93000E396411D0000E2B6E000E2C6E000E2D8D
:10BAA3006E000E2E6E120007D0D89035363636371C
:10BAB300363836390600D03950D8B402D0F5D7001D
:10BAC300D03450D8B409D0381E371E361E356C001A
:10BAD3000E36223722382200D035C02BF036C02C48
:10BAE300F037C02DF038C02EF01200120017C01B23
:10BAF300F01C6A1D6A16341B3601E31C801B501EA2
:10BB03006E1E50D8A407D0000E156E000E166E00E0
:10BB13000E176E12001AC01BF01C6A1D6A19341B23
:10BB23003601E31C801B50236E2350D8A407D0009A
:10BB33000E156E000E166E000E176E120023507B4C
:10BB43000F1E2617C023F01A50231A800E23161631
:10BB53008E198EFF0E1816FF0E1916000E1A1600F8
:10BB63000E1F6E000E206E000E216E070E226E0059
:10BB7300D015A007D018501F26195020221A502183
:10BB83002200D0D890173216321532D890183619B1
:10BB9300361A36222EEDD700D0090E226E00D015AC
:10BBA300A007D018501F26195020221A5021220016
:10BBB300D0D890173216321532D890213220321F46
:10BBC30032222EEDD700D01FC001F020C002F02199
:10BBD300C003F01EC004F023C005F0A4EC5BF00129
:10BBE300C015F002C016F003C017F01200120000D7
:10BBF3000E066E20EE02F00150D9260250DA225AC8
:10BC03000EDF60120020EE01F00150D9260250DA57
:10BC1300225A0EDF60120020EE03F00150D92602F3
:10BC230050DA22240EDF6402D01200120020EE024A
:10BC3300F00150D9260250DA22DF50096E20EE01BE
:10BC4300F00150D9260250DA22DF50086E0350D893
:10BC5300B402D0F29C00D0000E3FBB010E076E076A
:10BC630050D8A403D0B8EC57F000D0000E3FBF016A
:10BC73000E056E0550D8B407D0000E91BE010E0616
:10BC83006E0F013F9F00D0FC0E0F013F170F013FC6
:10BC93008198CF0AF099CF0BF020EE03F00150D931
:10BCA300260250DA22DF500A6EFC0E0F013F170FF7
:10BCB300013F810AC098FF0BC099FF08C098FF0994
:10BCC300C099FF0550D8B40DD00F013F8F0650D84F
:10BCD300B402D0918E00D00750D8B409D0B8EC5735
:10BCE300F006D00750D8A403D00F013F9B00D00328
:10BCF30050D8B41200F28C120012009390939293D6
:10BD03009493969398939A8A908A928A948A968A1D
:10BD1300988A9A0F0E046E480EE82EFED7042EFC66
:10BD2300D70F0E046E480EE82EFED7042EFCD70F55
:10BD33000E046E480EE82EFED7042EFCD70F0E0419
:10BD43006E480EE82EFED7042EFCD70F0E046E4865
:10BD53000EE82EFED7042EFCD70F0E046E480EE815
:10BD63002EFED7042EFCD7010E056E1FD021D08ADC
:10BD7300908A928A848A868A988A9A8A908A928AF0
:10BD8300848A868A888A9A030EE82EFED700F08A70
:10BD9300908A928A848A868A988A9A0F0E046E48B9
:10BDA3000EE82EFED7042EFCD7052A030E0564DF0A
:10BDB300D78A908A928A848A968A988A9A8A908A5B
:10BDC300928A848A968A888A9A030EE82EFED7007E
:10BDD300F08A908A928A848A968A988A9A0F0E04A5
:10BDE3006E480EE82EFED7042EFCD7280E056E05EE
:10BDF300509BEC5FF0100E056E05509BEC5FF0015D
:10BE03000E056E05509BEC5FF00F0E056E05509B03
:10BE1300EC5FF0120069D0880E436E000E446EF39F
:10BE23000E456EFF0E466E6F0E476EFE0E486E8F0A
:10BE3300EC74F079D0880E436E000E446EF30E4519
:10BE43006EFF0E466E1B0E476EFE0E486E8FEC7431
:10BE5300F06AD0880E436E000E446EF30E456EFFFB
:10BE63000E466E450E476EFE0E486E8FEC74F05B09
:10BE7300D0880E436E000E446EF30E456EFF0E46E1
:10BE83006E990E476EFE0E486E8FEC74F04CD088A0
:10BE93000E436E000E446EF30E456EFF0E466E5A51
:10BEA3000E476EFE0E486E8FEC74F03DD0880E4345
:10BEB3006E000E446EF30E456EFF0E466E840E4703
:10BEC3006EFE0E486E8FEC74F02ED0880E436E001B
:10BED3000E446EF30E456EFF0E466E300E476EFE39
:10BEE3000E486E8FEC74F01FD053C055F054C056FB
:10BEF300F05650000AD8A417D05550000AD8B48B76
:10BF0300D7010AD8B497D7030AD8B4A3D7010AD85C
:10BF1300B4AFD7070AD8B4BBD7010AD8B4C7D7037D
:10BF23000AD8B4D3D700D0880E536E000E546E12C5
:10BF3300001200036E8A988A9A016A03AE01D00147
:10BF43002A010E01168A500118FE0B01188A6E038E
:10BF5300C001F0060E026ED8900132022EFCD7010A
:10BF63000E011601468A500118FD0B01188A6E0353
:10BF7300C001F0050E026ED8900132022EFCD701EB
:10BF83000E0116014601468A500118FB0B01188A5F
:10BF93006E03C001F0013A0F0E0116010E011601E6
:10BFA30046014601468A500118F70B01188A6E03B1
:10BFB3000EE82EFED700F08A88030EE82EFED70087
:10BFC300F08A9803C001F0D8900132D8900132D89A
:10BFD300900132010E01168A500118FE0B01188AD6
:10BFE3006E03C001F0D8900132D8900132010E01E6
:10BFF3001601468A500118FD0B01188A6E03C00111
:10C00300F0D8900132010E0116014601468A500113
:10C0130018FB0B01188A6E03C001F0010E01160113
:10C0230046014601468A500118F70B01188A6E0330
:10C033000EE82EFED700F08A88030EE82EFED70006
:10C04300F08A980F0E016E480EE82EFED7012EFCE3
:10C05300D71200036E8A988A8A016A03AE01D0015F
:10C063002A010E01168A500118FE0B01188A6E036D
:10C07300C001F0060E026ED8900132022EFCD701E9
:10C083000E011601468A500118FD0B01188A6E0332
:10C09300C001F0050E026ED8900132022EFCD701CA
:10C0A3000E0116014601468A500118FB0B01188A3E
:10C0B3006E03C001F0013A0F0E0116010E011601C5
:10C0C30046014601468A500118F70B01188A6E0390
:10C0D3000EE82EFED700F08A88030EE82EFED70066
:10C0E300F08A9803C001F0D8900132D8900132D879
:10C0F300900132010E01168A500118FE0B01188AB5
:10C103006E03C001F0D8900132D8900132010E01C4
:10C113001601468A500118FD0B01188A6E03C001EF
:10C12300F0D8900132010E0116014601468A5001F2
:10C1330018FB0B01188A6E03C001F0010E011601F2
:10C1430046014601468A500118F70B01188A6E030F
:10C153000EE82EFED700F08A88030EE82EFED700E5
:10C16300F08A98030EE82EFED700F00F0E016E48FA
:10C173000EE82EFED7012EFCD71200033404340C34
:10C183006E0C50D8A409D0000E016E000E026E0092
:10C193000E036E000E046E1200063407340B6E0B92
:10C1A30050D8A409D0000E016E000E026E000E03DB
:10C1B3006E000E046E1200038EFF0E0116FF0E02B8
:10C1C30016FF0E0316000E0416068EFF0E0416FF4E
:10C1D3000E0516FF0E0616000E0716000E076E005C
:10C1E3000E086E000E096E000E0A6E7F0E0C5E0BBB
:10C1F30050A00F0C5E200E0B6E00D0D890073608AF
:10C203003609360A360450015C05500258065003BD
:10C213005807500458D8A00AD00450015E055002B4
:10C223005A0650035A0750045A078000D0D8900189
:10C23300360236033604360B2EE0D700D00CAE1789
:10C24300D00C50800A9F0FD8B00AD0000E016E00A8
:10C253000E026E000E036E000E046E120000D0D8A4
:10C26300900A320932083207320C3EF9D717D01F31
:10C273000E0C6411D0000E016E000E026E000E0350
:10C283006E000E046E120007D0D8900736083609E8
:10C29300360A360C0600D00C50D8A4F6D707C001D6
:10C2A300F008C002F009C003F00AC004F012000352
:10C2B300C007F0086A096A0234073601E3088007F9
:10C2C300500F6E0F50D8A409D0000E016E000E025D
:10C2D3006E000E036E000E046E120006C007F00817
:10C2E3006A096A0534073601E3088007500E6E0EAB
:10C2F30050D8A409D0000E016E000E026E000E038A
:10C303006E000E046E1200028EFF0E0116FF0E0267
:10C3130016000E0316058EFF0E0416FF0E051600FB
:10C323000E0616000E0A6E000E0B6E000E0C6E004B
:10C333000E0D6E7F0E0F5E0E50980F0F5E180E0ED1
:10C343006ED8900A360B360C360D360450015C0558
:10C3530050025806500358D8A007D00450015E0578
:10C3630050025A0650035A0A80D890013602360307
:10C37300360E2EE6D700D00FAE17D00F50800A9797
:10C383000FD8B00AD0000E016E000E026E000E032D
:10C393006E000E046E120000D0D8900D320C320BDA
:10C3A300320A320F3EF9D717D0170E0F6411D0009F
:10C3B3000E016E000E026E000E036E000E046E126E
:10C3C3000007D0D8900A360B360C360D360F060010
:10C3D300D00F50D8A4F6D70AC001F00BC002F00C5E
:10C3E300C003F00DC004F01200D90E016E000E025E
:10C3F3006E0AEC59F00001DA510F0B0001FE6F00D9
:10C4030001DA390F0B0F0B0001FD6F0001DB510F38
:10C413000B0001FC6F0001DB390F0B0F0B0001FB5D
:10C423006F0001DC510F0B0001F86F0001DC390FC5
:10C433000B0F0B0001F76FD50E016E000E026E7D20
:10C44300EC5AF00001D6510F0B0001F66F0001D634
:10C45300390F0B0F0B0001F56F0001D7510F0B00C4
:10C4630001FA6F0001D7390F0B0F0B0001F96FD5DC
:10C47300C0F4F00001D8510F0B0001F36F0001D895
:10C48300390F0B0F0B0001F26F0001FD510A0D0074
:10C4930001FE51F3240001B36F0001000EF42000EC
:10C4A30001B46F0001FB510A0D0001FC51F324009C
:10C4B30001EB6F0001000EF4200001EC6F0001F7A7
:10C4C300510A0D0001F851F3240001E76F00010048
:10C4D3000EF4200001E86F0001F5510A0D0001F68A
:10C4E30051F3240001E56F0001000EF4200001E682
:10C4F3006FF4C0AFF00001B06B0001F9510A0D00F9
:10C5030001FA51F3240001E96F0001000EF4200049
:10C5130001EA6F0001F2510A0D0001F351F3240007
:10C5230001E36F0001000EF4200001E46F1200002C
:10C533000E066E20EE02F00150D9260250DA2213C5
:10C543000EDF60120020EE02F00150D9260250DA0D
:10C5530022DF50D8B4120020EE01F00150D9260298
:10C5630050DA22320EDF60120020EE01F00150D9C2
:10C57300260250DA22DF50D8B4120020EE03F00175
:10C5830050D9260250DA22990EDF6402D01200122B
:10C593000020EE03F00150D9260250DA22DF5007C3
:10C5A3006E20EE01F00150D9260250DA22DF500A44
:10C5B3006E20EE02F00150D9260250DA22DF500B32
:10C5C3006E0350D8B402D0F29C00D0000E3FBB01E2
:10C5D3000E096E0950D8A403D0B8EC57F000D00070
:10C5E3000E3FBF010E056E0550D8B407D0000E9163
:10C5F300BE010E066E0F013F9F00D0FC0E0F013FE0
:10C60300170F013F8198CF0CF099CF0DF001C0D9DE
:10C61300FF02C0DAFFDF500D6EFC0E0F013F170360
:10C623000E0F013F1307C098FF08C099FF0AC09877
:10C63300FF0BC099FF0CC098FF0DC099FF0550D8A0
:10C64300B40DD00F013F8F0650D8B402D0918E00A5
:10C65300D00950D8B409D0B8EC57F006D00950D857
:10C66300A403D00F013F9B00D00350D8B41200F2B3
:10C673009C120012009B8E9B9CD388D38AD38CD3AD
:10C6830090D3920F013F8F0F013F8BCD86FD0E920A
:10C693006E000E936E94680F014869F70E0F0149FF
:10C6A3006F2F0EC26E390EC16EEEEC63F07FEC5E3F
:10C6B300F0010E9BEC5FF00C0E9BEC5FF0FF0E00A5
:10C6C30001AA6F8A0EE82EFED7AA2FFCD700D0FF4F
:10C6D3000E0001AA6F8A0EE82EFED7AA2FFCD70000
:10C6E300D0FF0E0001AA6F8A0EE82EFED7AA2FFCF8
:10C6F300D700D0FF0E0001AA6F8A0EE82EFED7AA3C
:10C703002FFCD700D0FF0E0001AA6F8A0EE82EFE81
:10C71300D7AA2FFCD700D0FF0E0001AA6F8A0EE81C
:10C723002EFED7AA2FFCD700D0FF0E0001AA6F8AD6
:10C733000EE82EFED7AA2FFCD700D0FF0E0001AAC9
:10C743006F8A0EE82EFED7AA2FFCD700D0010E9BCE
:10C75300EC5FF000D07DEC5CF079EC59F0F3EC5930
:10C76300F09EEC65F080B002D0010E01D0000E0007
:10C7730001BA6F0001BA51D8B403D0F4EC6BF000E6
:10C78300D082B802D0010E01D0000E0001B96F00B3
:10C7930001B951D8B403D092EC66F000D080B40252
:10C7A300D0010E01D0000E0001BB6F0001BB51D8B8
:10C7B300B403D0B3EC68F000D080B602D0010E0110
:10C7C300D0000E0001BC6F0001BC51D8B4C3D7BF69
:10C7D300EC6FF0C0D700EF00F0B8EC57F0A380B3D4
:10C7E300C007F0B4C008F0000E0A6E0A0E096E59B5
:10C7F300EC5BF007500001FD6F0001FD510A0DF3E2
:10C803005000080001B3250001FE6F0001FD511027
:10C813000DF3500001FE250001DA6FEBC007F0ECC9
:10C82300C008F0000E0A6E0A0E096E59EC5BF007A1
:10C83300500001FB6F0001FB510A0DF3500008008B
:10C8430001EB250001FC6F0001FB51100DF35000BB
:10C8530001FC250001DB6FE7C007F0E8C008F0002A
:10C863000E0A6E0A0E096E59EC5BF007500001F7D1
:10C873006F0001F7510A0DF35000080001E725008E
:10C8830001F86F0001F751100DF3500001F8250076
:10C8930001DC6FE3C007F0E4C008F0000E0A6E0A83
:10C8A3000E096E59EC5BF007500001F26F0001F2C4
:10C8B300510A0DF35000080001E3250001F36F0056
:10C8C30001F251100DF3500001F3250001D86FE977
:10C8D300C007F0EAC008F0000E0A6E0A0E096E598E
:10C8E300EC5BF007500001F96F0001F9510A0DF3F9
:10C8F3005000080001E9250001FA6F0001F9511009
:10C903000DF3500001FA250001D76FE5C007F0E6EB
:10C91300C008F0000E0A6E0A0E096E59EC5BF007B0
:10C92300500001F56F0001F5510A0DF350000800A6
:10C9330001E5250001F66F0001F551100DF35000DC
:10C9430001F6250001D66FAFC0F4F0AFC0D5F0D922
:10C953000E016E000E026E010E036EF9EC5DF0D552
:10C963000E016E000E026E010E036E99EC62F00F63
:10C97300013F8F120030C034F0356A366A2F3434E9
:10C983003601E335803450396E33C034F0356A36BE
:10C993006A3234343601E335803450386E3950D836
:10C9A300B40BD03850395CD8B00ED03950000838A9
:10C9B30024346E180E346407D031C02EF032C02FE9
:10C9C300F033C030F012003850D8B40BD03950389F
:10C9D3005CD8B00ED0385000083924346E180E34A9
:10C9E3006407D02EC02EF02FC02FF030C030F012CD
:10C9F30000060E376E30AE02D0378E00D033BE370E
:10CA03008C2F8EFF0E2E16FF0E2F16000E301632B1
:10CA13008EFF0E3116FF0E3216000E3316385039C4
:10CA23005CD8B01ED0D8903136323633363806391A
:10CA3300503818D8B40FD0370637C034F0070E3447
:10CA430016D8B408D0EFD706D0D89030322F322E74
:10CA530032392A00D038503918D8B424D0F5D72227
:10CA6300D03950385CD8B01ED0D8902E362F3630FF
:10CA730036390639503818D8B40FD0370637C03492
:10CA8300F0070E3416D8B408D0EFD706D0D89033B9
:10CA93003232323132382A00D038503918D8B40201
:10CAA300D0F5D700D037AE0CD0FF0E2E1AFF0E2FC5
:10CAB3001AFF0E301A010E2E26000E2F22000E3002
:10CAC3002237AC0DD0FF0E311AFF0E321AFF0E3390
:10CAD3001A010E3126000E3222000E332200D0003E
:10CAE3000E376E2E5031262F5032223050332233E0
:10CAF300AE0FD0FF0E311AFF0E321AFF0E331A019A
:10CB03000E3126000E3222000E3322010E376E0044
:10CB1300D031C001F032C002F033C003F039C00499
:10CB2300F037C005F0A4EC5BF001C02EF002C02F7B
:10CB3300F003C030F012001200CCEC57F00001C03B
:10CB430051FFEC57F009C015F00AC016F00BC017DF
:10CB5300F01F0E186E050E196E3E0E1A6E78EC5D00
:10CB6300F015C0DDF016C0DEF017C0DFF0000E18C0
:10CB73006E200E196E410E1A6EDDC015F0DEC01662
:10CB8300F0DFC017F078EC5DF015C02BF016C02C69
:10CB9300F017C02DF0F7EC5CF02BC03AF02CC03B43
:10CBA300F042EC58F03AC03EF03BC03FF03CC0408E
:10CBB300F0000E416E200E426E410E436E07EC5C98
:10CBC300F03EC04DF03FC04EF040C04FF00001E0DA
:10CBD300514D1809E10001E1514E1805E10001E250
:10CBE300514F18D8B498D09A0E3A6E990E3B6E3EB8
:10CBF3000E3C6E4DC031F04EC032F04FC033F0E00A
:10CC0300C001F0E1C002F0E2C003F0EDEC57F00127
:10CC1300C02EF002C02FF003C030F0BCEC64F02E45
:10CC2300C03DF02FC03EF030C03FF00EEC5BF0D8BB
:10CC3300A026D0000E3A6E000E3B6E000E3C6E4DE9
:10CC4300C031F04EC032F04FC033F0E0C001F0E12C
:10CC5300C002F0E2C003F0EDEC57F001C02EF00289
:10CC6300C02FF003C030F0BCEC64F02EC03DF02FB9
:10CC7300C03EF030C03FF00EEC5BF0D8A04CD09A31
:10CC83000E3A6E990E3B6E3E0E3C6EE0C031F0E103
:10CC9300C032F0E2C033F04DC001F04EC002F04F9D
:10CCA300C003F0EDEC57F001C02EF002C02FF003EB
:10CCB300C030F0BCEC64F02EC03DF02FC03EF0302D
:10CCC300C03FF00EEC5BF0D8A028D0000E3A6E0007
:10CCD3000E3B6E000E3C6EE0C031F0E1C032F0E27C
:10CCE300C033F04DC001F04EC002F04FC003F0ED71
:10CCF300EC57F001C02EF002C02FF003C030F0BC9F
:10CD0300EC64F02EC03DF02FC03EF030C03FF00E7B
:10CD1300EC5BF0D8B002D089821200899212001223
:10CD230000010E9BEC5FF0000E5D6E000E576E6B04
:10CD33000E586EFF0E596E010EC4EC5AF0000E57DA
:10CD43006E2C0E586EFF0E596E020EC4EC5AF00094
:10CD53000E576EC30E586EFE0E596E030EC4EC5A78
:10CD6300F0000E576ED80E586EFE0E596E040EC4A8
:10CD7300EC5AF0030E576E050E586EFE0E596E04F4
:10CD83000EC4EC5AF00F0E9BEC5FF0000E0001B2E4
:10CD93006F000EB16F0001B2BF0AD00001B251069D
:10CDA300E11E0E0001B15DD8B0B1D001D0AFD0EA21
:10CDB3000E5C6EC30EE82EFED75C2EFCD700F0800F
:10CDC300B402D0010E01D0000E0001BB6F0001BB05
:10CDD30051D8B411D0000E0001B26F000EB16F0133
:10CDE3000E5D6E0F0E576E050E586EFE0E596E04D5
:10CDF3000EC4EC5AF000D080B002D0010E01D00076
:10CE03000E0001BA6F0001BA51D8B411D0000E0060
:10CE130001B26F000EB16F000E5D6E030E576E050B
:10CE23000E586EFE0E596E040EC4EC5AF000D080FC
:10CE3300BA02D0010E01D0000E0001B86F0001B894
:10CE430051D8B459D05D04D8A461D0000E0001E4D8
:10CE53006F140EE36F000E0001EA6F0B0EE96F0013
:10CE63000E0001B06F000EAF6F000E0001E66F06FB
:10CE73000EE56F000E0001E86F170EE76F000E005E
:10CE830001EC6F3A0EEB6F000E0001B46F000EB3AE
:10CE93006F000E0001C06F660E0001E06FCA0E0046
:10CEA30001E16F410E0001E26F000E0001DD6FA092
:10CEB3000E0001DE6F410E0001DF6F140E0001F062
:10CEC3006F000E0001BE6F160E0001ED6F000E0025
:10CED30001BD6F170E0001F16F000E0001BF6F1748
:10CEE3000E0001EE6F3B0E0001EF6FEEEC63F00EF0
:10CEF300D002D00CD000D00001B14BB22B0001B254
:10CF0300BF56D70001B25102E14BD700D00C0E9BA4
:10CF1300EC5FF012002D6E6D0E2D64A0D0000E128A
:10CF23006E030E116E000E0A6E0A0E096E000E04D9
:10CF33006E640E036E2DC001F0026AB2EC59F0016B
:10CF4300C007F002C008F059EC5BF0090E07240F8C
:10CF53006E000E0820106E12EC58F0670E0F24F6C8
:10CF63006EFD0E1020F76E0900F5CF18F00900F5DD
:10CF7300CF19F00A00F5CF1AF0000E0A6E640E09FD
:10CF83006E2DC007F0086A59EC5BF0120E07240FF0
:10CF93006E000E0820106E000E126E030E116E123C
:10CFA300EC58F0670E0F24F66EFD0E1020F76E0995
:10CFB30000F5CF15F00900F5CF16F00A00F5CF17ED
:10CFC300F078EC5DF015C02AF016C02BF017C02CDA
:10CFD300F0000E126E030E116E000E046E0A0E03A5
:10CFE3006E2DC001F0026AB2EC59F001C00FF002DD
:10CFF300C010F012EC58F0670E0F24F66EFD0E1001
:10D0030020F76E0900F5CF18F00900F5CF19F00AE3
:10D0130000F5CF1AF02AC015F02BC016F02CC0175C
:10D02300F078EC5DF015C027F016C028F017C02982
:10D03300F027C015F028C016F029C017F0000E180D
:10D043006E000E196E3F0E1A6E78EC5DF015C0245B
:10D05300F016C025F017C026F0120062D00A0E2D7C
:10D06300645FD0000E126E030E116E000E046E0A82
:10D073000E036E2DC001F0026AB2EC59F001C00F2D
:10D08300F002C010F012EC58F0670E0F24F66EFD9C
:10D093000E1020F76E0900F5CF18F00900F5CF192F
:10D0A300F00A00F5CF1AF0000E0A6E0A0E096E2D73
:10D0B300C007F0086A59EC5BF0090E07240F6E00F5
:10D0C3000E0820106E000E126E030E116E12EC5835
:10D0D300F0670E0F24F66EFD0E1020F76E0900F5B3
:10D0E300CF15F00900F5CF16F00A00F5CF17F07849
:10D0F300EC5DF015C02AF016C02BF017C02CF02AF7
:10D10300C015F02BC016F02CC017F0000E186E00DF
:10D113000E196E3F0E1A6E78EC5DF098D712000070
:10D12300D02D50030D670EF324F66EFD0EF420F799
:10D133006E0900F5CF15F00900F5CF16F00A00F5DA
:10D14300CF17F0000E186E000E196E3F0E1A6E7890
:10D15300EC5DF015C024F016C025F017C026F012C0
:10D16300001200010E9BEC5FF0E0C05DF0E1C05ED9
:10D17300F0E2C05FF0000E576E170E586EFF0E59A7
:10D183006E010EC4EC5AF0000E576E560E586EFF29
:10D193000E596E020EC4EC5AF0000E576EF10E5883
:10D1A3006EFD0E596E030EC4EC5AF0C10E436E00B1
:10D1B3000E446E410E456EFF0E466EE0C047F0E131
:10D1C300C048F0E2C049F0000E4B6EDF0E4A6E8F8E
:10D1D300EC74F0000E576EC10E586E000E596E04BB
:10D1E3000EC4EC5AF00D0E576E050E586EFE0E5916
:10D1F3006E040EC4EC5AF00F0E9BEC5FF0000E00B1
:10D2030001B26F000EB16F0001B2BF0AD00001B2CC
:10D213005106E11E0E0001B15DD8B0E1D001D0DFAF
:10D22300D0EA0E5C6EC30EE82EFED75C2EFCD70050
:10D23300F080B602D0010E01D0000E0001BC6F00D9
:10D2430001BC51D8B452D0000E0001B26F000EB130
:10D253006F5DC03AF05EC03BF05FC03CF0660E3DD0
:10D263006E040E3E6E420E3F6E0EEC5BF0D8B014B1
:10D27300D05DC02EF05EC02FF05FC030F0CD0E3118
:10D283006ECC0E326E3D0E336EBCEC64F02EC05D80
:10D29300F02FC05EF030C05FF00C0E9BEC5FF0C16E
:10D2A3000E436E000E446EE50E456EFF0E466E5D38
:10D2B300C047F05EC048F05FC049F08FEC74F00DDA
:10D2C3000E576EC10E586E000E596E040EC4EC5A02
:10D2D300F00D0E576E050E586EFE0E596E040EC4F9
:10D2E300EC5AF00F0E9BEC5FF000D082B802D00135
:10D2F3000E01D0000E0001B96F0001B951D8B4522C
:10D30300D0000E0001B26F000EB16F000E3A6E0036
:10D313000E3B6E000E3C6E5DC03DF05EC03EF05FA6
:10D32300C03FF00EEC5BF0D8B014D05DC03AF05EB5
:10D33300C03BF05FC03CF0CD0E3D6ECC0E3E6E3D6B
:10D343000E3F6E60EC58F03AC05DF03BC05EF03CBF
:10D35300C05FF00C0E9BEC5FF0C10E436E000E44F9
:10D363006EEB0E456EFF0E466E5DC047F05EC04825
:10D37300F05FC049F08FEC74F00D0E576EC10E587C
:10D383006E000E596E040EC4EC5AF00D0E576E0566
:10D393000E586EFE0E596E040EC4EC5AF00F0E9B1F
:10D3A300EC5FF000D080BA02D0010E01D0000E0075
:10D3B30001B86F0001B851D8B407D05DC0E0F05E8A
:10D3C300C0E1F05FC0E2F00BD00001B14BB22B0023
:10D3D30001B2BF26D70001B25102E11BD700D00C26
:10D3E3000E9BEC5FF012002A6E2AAEFED02A6C2A46
:10D3F30050800A120FD8A092D0000E126E030E11A5
:10D403006E000E0A6E0A0E096E000E046E640E03A1
:10D413006E2A50016E026A01BE0206B2EC59F00197
:10D42300C007F002C008F059EC5BF0090E07240FA7
:10D433006E000E0820106E12EC58F0670E0F24F6E3
:10D443006EFD0E1020F76E0900F5CF18F00900F5F8
:10D45300CF19F00A00F5CF1AF0000E0A6E640E0918
:10D463006E2A50076E086A07BE080659EC5BF01275
:10D473000E07240F6E000E0820106E000E126E03AE
:10D483000E116E12EC58F0670E0F24F66EFD0E109F
:10D4930020F76E0900F5CF15F00900F5CF16F00A55
:10D4A30000F5CF17F078EC5DF015C027F016C02813
:10D4B300F017C029F027C015F028C016F029C017AF
:10D4C300F0000E126E030E116E000E046E0A0E03B0
:10D4D3006E2A50016E026A01BE0206B2EC59F001D7
:10D4E300C00FF002C010F012EC58F0670E0F24F6D4
:10D4F3006EFD0E1020F76E0900F5CF18F00900F548
:10D50300CF19F00A00F5CF1AF078EC5DF015C024BE
:10D51300F016C025F017C026F0120054D02A508010
:10D523000A750FD8A04FD0000E0A6E0A0E096E2A94
:10D5330050076E086A07BE080659EC5BF0090E0730
:10D54300240F6E000E0820106E000E126E030E11D3
:10D553006E12EC58F0670E0F24F66EFD0E1020F7D6
:10D563006E0900F5CF15F00900F5CF16F00A00F5A6
:10D57300CF17F0000E126E030E116E000E046E0A2A
:10D583000E036E2A50016E026A01BE0206B2EC5906
:10D59300F001C00FF002C010F012EC58F0670E0F4C
:10D5A30024F66EFD0E1020F76E0900F5CF18F00972
:10D5B30000F5CF19F00A00F5CF1AF078EC5DF0A66C
:10D5C300D7120000D02A50030D670EF324F66EFD28
:10D5D3000EF420F76E0900F5CF24F00900F5CF25EE
:10D5E300F00A00F5CF26F012002A50800A120FD855
:10D5F300A092D0000E126E030E116E000E0A6E0A78
:10D603000E096E000E046E640E036E2A50016E0244
:10D613006A01BE0206B2EC59F001C007F002C0086D
:10D62300F059EC5BF0090E07240F6E000E08201072
:10D633006E12EC58F08E0E0F24F66EFD0E1020F7CE
:10D643006E0900F5CF18F00900F5CF19F00A00F5BF
:10D65300CF1AF0000E0A6E640E096E2A50076E0888
:10D663006A07BE080659EC5BF0120E07240F6E0022
:10D673000E0820106E000E126E030E116E12EC587F
:10D68300F08E0E0F24F66EFD0E1020F76E0900F5D6
:10D69300CF15F00900F5CF16F00A00F5CF17F07893
:10D6A300EC5DF015C027F016C028F017C029F0274D
:10D6B300C015F028C016F029C017F0000E126E0333
:10D6C3000E116E000E046E0A0E036E2A50016E02D6
:10D6D3006A01BE0206B2EC59F001C00FF002C0109D
:10D6E300F012EC58F08E0E0F24F66EFD0E1020F79C
:10D6F3006E0900F5CF18F00900F5CF19F00A00F50F
:10D70300CF1AF078EC5DF015C024F016C025F017A1
:10D71300C026F0120054D02A50800A750FD8A04FAB
:10D72300D0000E0A6E0A0E096E2A50076E086A07A9
:10D73300BE080659EC5BF0090E07240F6E000E08B5
:10D7430020106E000E126E030E116E12EC58F08E46
:10D753000E0F24F66EFD0E1020F76E0900F5CF159F
:10D76300F00900F5CF16F00A00F5CF17F0000E12FE
:10D773006E030E116E000E046E0A0E036E2A500124
:10D783006E026A01BE0206B2EC59F001C00FF0024C
:10D79300C010F012EC58F08E0E0F24F66EFD0E1032
:10D7A30020F76E0900F5CF18F00900F5CF19F00A3C
:10D7B30000F5CF1AF078EC5DF0A6D7120000D02A5E
:10D7C30050030D8E0EF324F66EFD0EF420F76E0952
:10D7D30000F5CF24F00900F5CF25F00A00F5CF2698
:10D7E300F012001200010E9BEC5FF0000E576EED7D
:10D7F3000E586EFE0E596E010EC4EC5AF0AFC053B4
:10D80300F0B0C054F00CEC5FF053C0A0F054C0A1D2
:10D81300F0000E576EA0C058F0A1C059F0020EC41C
:10D82300EC5AF0C10E436E000E446ED50E456EFDEC
:10D833000E466EE5C047F0E6C048F0E9C049F0EA9D
:10D84300C04AF0E3C04BF0E4C04CF08FEC74F0003E
:10D853000E576EC10E586E000E596E030EC4EC5A6D
:10D86300F0C10E436E000E446EA20E456EFF0E46CF
:10D873006EE7C047F0E8C048F0EBC049F0ECC04A9F
:10D88300F0B3C04BF0B4C04CF08FEC74F0000E5703
:10D893006EC10E586E000E596E040EC4EC5AF0AFF2
:10D8A300C0A7F0E5C0A2F0E9C0A3F0E3C0A4F0E78D
:10D8B300C0A5F0EBC0A6F0000E0001A96F000EA8F2
:10D8C3006F0F0E9BEC5FF0000E576E050E586EFE49
:10D8D3000E596E020EC4EC5AF0000E0001B26F0036
:10D8E3000EB16F0001B2BF0AD00001B25106E11EB2
:10D8F3000E0001B15DD8B03DD301D03BD3C10E437F
:10D903006E000E446EF00E456EFF0E466EA7C047C6
:10D91300F0486A8FEC74F0EA0E5D6EC30EE82EFEDB
:10D92300D75D2EFCD700F080B602D0010E01D000E7
:10D933000E0001BC6F0001BC51D8B41DD1000E0014
:10D9430001B26F000EB16F0001A8510001A911D8F7
:10D95300A425D0060E0001A76103D00001A72B0068
:10D96300D00C0E9BEC5FF0000E576EA7C053F05423
:10D973006A0CEC5FF053C058F054C059F0020EC467
:10D98300EC5AF0000E576E050E586EFE0E596E02DD
:10D993000EC4EC5AF00F0E9BEC5FF0EDD0020E00BC
:10D9A30001A8190001A911D8A416D01F0E0001A2C5
:10D9B3006103D00001A22B00D0000E00019C6FBDBB
:10D9C3000E00019D6FFF0E00019E6FA2C09FF0032A
:10D9D3000E82EC58F0D0D0040E0001A8190001A962
:10D9E30011D8A42DD00C0E0001A36103D00001A314
:10D9F3002B00D00C0E9BEC5FF0C10E436E000E4467
:10DA03006EBD0E456EFF0E466EA3C047F0486A8F8B
:10DA1300EC74F0030E576EC10E586E000E596E0370
:10DA23000EC4EC5AF0030E576E050E586EFE0E59D7
:10DA33006E030EC4EC5AF00F0E9BEC5FF09CD00605
:10DA43000E0001A8190001A911D8A42DD0630E005E
:10DA530001A46103D00001A42B00D00C0E9BEC5F4A
:10DA6300F0C10E436E000E446EBD0E456EFF0E46B2
:10DA73006EA4C047F0486A8FEC74F0060E576EC16F
:10DA83000E586E000E596E030EC4EC5AF0060E5774
:10DA93006E050E586EFE0E596E030EC4EC5AF00F4F
:10DAA3000E9BEC5FF068D0080E0001A8190001A9D5
:10DAB30011D8A42DD0170E0001A56103D00001A534
:10DAC3002B00D00C0E9BEC5FF0C10E436E000E4496
:10DAD3006EBD0E456EFF0E466EA5C047F0486A8FB9
:10DAE300EC74F0000E576EC10E586E000E596E04A2
:10DAF3000EC4EC5AF0000E576E050E586EFE0E590A
:10DB03006E040EC4EC5AF00F0E9BEC5FF034D00A97
:10DB13000E0001A8190001A911D8A42DD03B0E00B5
:10DB230001A66103D00001A62B00D00C0E9BEC5F75
:10DB3300F0C10E436E000E446EBD0E456EFF0E46E1
:10DB43006EA6C047F0486A8FEC74F0030E576EC19F
:10DB53000E586E000E596E040EC4EC5AF0030E57A5
:10DB63006E050E586EFE0E596E040EC4EC5AF00F7D
:10DB73000E9BEC5FF000D080B402D0010E01D00008
:10DB83000E0001BB6F0001BB51D8B43CD00001A90A
:10DB9300BF08D00001A9510BE10A0E0001A85DD80E
:10DBA300B006D0020E0001A827000EA92300D00062
:10DBB3000E0001B26F000EB16FA8C05DF0A9C05E88
:10DBC300F0D8905D365E36020E5D26000E5E222092
:10DBD3000E5D24D96E010E5E20DA6EDF50576E059E
:10DBE3000E586EFE0E596ED8900001A835D96E00FE
:10DBF30001A935DA6E200ED926010EDA22DF50C4D0
:10DC0300EC5AF000D080B002D0010E01D0000E001B
:10DC130001BA6F0001BA51D8B43CD00001A9BF0EBC
:10DC2300D00001A95105E1020E0001A85DD8A006AC
:10DC3300D00001FE0EA827FF0EA92300D0000E007E
:10DC430001B26F000EB16FA8C05DF0A9C05EF0D83D
:10DC5300905D365E36020E5D26000E5E22200E5D5E
:10DC630024D96E010E5E20DA6EDF50576E050E5812
:10DC73006EFE0E596ED8900001A835D96E0001A929
:10DC830035DA6E200ED926010EDA22DF50C4EC5AA3
:10DC9300F000D082B802D0010E01D0000E0001B90D
:10DCA3006F0001B951D8B434D1000E0001B26F0036
:10DCB3000EB16F0001A8510001A911D8A426D0000C
:10DCC30001A7510001D8B403D00001A70700D00C6D
:10DCD3000E9BEC5FF0000E576EA7C053F0546A0C16
:10DCE300EC5FF053C058F054C059F0020EC4EC5A24
:10DCF300F0000E576E050E586EFE0E596E020EC4DE
:10DD0300EC5AF00F0E9BEC5FF003D1020E0001A85A
:10DD1300190001A911D8A42DD0010E0001A2650399
:10DD2300D00001A20700D00C0E9BEC5FF0C10E43A4
:10DD33006E000E446EBD0E456EFF0E466EA2C047CA
:10DD4300F0486A8FEC74F0000E576EC10E586E00E7
:10DD53000E596E030EC4EC5AF0000E576E050E58A2
:10DD63006EFE0E596E030EC4EC5AF00F0E9BEC5F61
:10DD7300F0CFD0040E0001A8190001A911D8A42DD9
:10DD8300D0010E0001A36503D00001A30700D00C4E
:10DD93000E9BEC5FF0C10E436E000E446EBD0E454C
:10DDA3006EFF0E466EA3C047F0486A8FEC74F00313
:10DDB3000E576EC10E586E000E596E030EC4EC5A08
:10DDC300F0030E576E050E586EFE0E596E030EC409
:10DDD300EC5AF00F0E9BEC5FF09BD0060E0001A8EF
:10DDE300190001A911D8A42AD0140E0001A46503B7
:10DDF300D00001A40700D00C0E9BEC5FF0C10E43D2
:10DE03006E000E446EBD0E456EFF0E466EA4C047F7
:10DE1300F0486A8FEC74F0060E576EC10E586E0010
:10DE23000E596E030EC4EC5AF0060E576E050E58CB
:10DE33006EFE0E596E030EC4EC5AF06AD0080E0043
:10DE430001A8190001A911D8A42ED00001A55100E1
:10DE530001D8B403D00001A50700D00C0E9BEC5FE2
:10DE6300F0C10E436E000E446EBD0E456EFF0E46AE
:10DE73006EA5C047F0486A8FEC74F0000E576EC170
:10DE83000E586E000E596E040EC4EC5AF0000E5775
:10DE93006E050E586EFE0E596E040EC4EC5AF00F4A
:10DEA3000E9BEC5FF035D00A0E0001A8190001A902
:10DEB30011D8A42ED00001A6510001D8B403D0007C
:10DEC30001A60700D00C0E9BEC5FF0C10E436E0061
:10DED3000E446EBD0E456EFF0E466EA6C047F0485B
:10DEE3006A8FEC74F0030E576EC10E586E000E5914
:10DEF3006E040EC4EC5AF0030E576E050E586EFEF8
:10DF03000E596E040EC4EC5AF00F0E9BEC5FF0003A
:10DF1300D080BA02D0010E01D0000E0001B86F000C
:10DF230001B851D8B41BD0A7C0AFF00001B06BA2A9
:10DF3300C0E5F00001E66BA3C0E9F00001EA6BA4C1
:10DF4300C0E3F00001E46BA5C0E7F00001E86BA6B5
:10DF5300C0EBF00001EC6BEEEC63F00BD00001B111
:10DF63004BB22B0001B2BFCAD40001B25102E1BFD0
:10DF7300D400D00C0E9BEC5FF01200010E9BEC5F03
:10DF8300F0000E576E060E586EFE0E596E010EC44B
:10DF9300EC5AF0C10E436E000E446EB30E456EFF95
:10DFA3000E466EF1C047F0486ABFC049F04A6A8F17
:10DFB300EC74F0000E576EC10E586E000E596E02CF
:10DFC3000EC4EC5AF0C10E436E000E446ED00E45E3
:10DFD3006EFF0E466EEEC047F0486AEFC049F04A46
:10DFE3006A8FEC74F00B0E576EC10E586E000E590B
:10DFF3006E020EC4EC5AF0000E576EAE0E586EFE53
:10E003000E596E030EC4EC5AF0C10E436E000E445B
:10E013006EB30E456EFF0E466EF0C047F0486ABE03
:10E02300C049F04A6A8FEC74F0000E576EC10E5867
:10E033006E000E596E040EC4EC5AF0C10E436E000E
:10E043000E446ED00E456EFF0E466EEDC047F0488F
:10E053006ABDC049F04A6A8FEC74F00B0E576EC16B
:10E063000E586E000E596E040EC4EC5AF0F0C09CAC
:10E07300F0BEC09DF0EDC09EF0BDC09FF0F1C0A00A
:10E08300F0BFC0A1F0EEC0A2F0EFC0A3F0000E00FD
:10E0930001A56F000EA46F0F0E9BEC5FF0050E57EA
:10E0A3006E050E586EFE0E596E020EC4EC5AF00049
:10E0B3000E0001B26F000EB16F0001B2BF0CD000B1
:10E0C30001B25107E11E0E0001B15DD8B08BEF74B0
:10E0D300F002D08BEF74F0EA0E5C6EC30EE82EFEF6
:10E0E300D75C2EFCD700F080B602D0010E01D00021
:10E0F3000E0001BC6F0001BC51D8B4A1D1000E00C9
:10E1030001B26F000EB16F0001A4510001A511D837
:10E11300A42DD0170E0001A06103D00001A02B0095
:10E12300D00C0E9BEC5FF0C10E436E000E446EBD2F
:10E133000E456EFF0E466EA0C047F0486A8FEC7422
:10E14300F0050E576EC10E586E000E596E020EC4C6
:10E15300EC5AF0050E576E050E586EFE0E596E0200
:10E163000EC4EC5AF00F0E9BEC5FF069D1020E0067
:10E1730001A4190001A511D8A42DD03B0E0001A1C3
:10E183006103D00001A12B00D00C0E9BEC5FF0C10A
:10E193000E436E000E446EBD0E456EFF0E466EA11D
:10E1A300C047F0486A8FEC74F0080E576EC10E58E2
:10E1B3006E000E596E020EC4EC5AF0080E576E052F
:10E1C3000E586EFE0E596E020EC4EC5AF00F0E9BE3
:10E1D300EC5FF035D1040E0001A4190001A511D89C
:10E1E300A42DD0030E0001A26103D00001A22B00D5
:10E1F300D00C0E9BEC5FF0C10E436E000E446EBD5F
:10E203000E456EFF0E466EA2C047F0486A8FEC744F
:10E21300F00F0E576EC10E586E000E596E020EC4EB
:10E22300EC5AF00F0E576E050E586EFE0E596E0225
:10E233000EC4EC5AF00F0E9BEC5FF001D1060E00FA
:10E2430001A4190001A511D8A42DD03B0E0001A3F0
:10E253006103D00001A32B00D00C0E9BEC5FF0C137
:10E263000E436E000E446EBD0E456EFF0E466EA34A
:10E27300C047F0486A8FEC74F0120E576EC10E5807
:10E283006E000E596E020EC4EC5AF0120E576E0554
:10E293000E586EFE0E596E020EC4EC5AF00F0E9B12
:10E2A300EC5FF0CDD0080E0001A4190001A511D830
:10E2B300A42DD0170E00019C6103D000019C2B00FC
:10E2C300D00C0E9BEC5FF0C10E436E000E446EBD8E
:10E2D3000E456EFF0E466E9CC047F0486A8FEC7485
:10E2E300F0050E576EC10E586E000E596E040EC423
:10E2F300EC5AF0050E576E050E586EFE0E596E045D
:10E303000EC4EC5AF00F0E9BEC5FF099D00A0E008E
:10E3130001A4190001A511D8A42DD03B0E00019D25
:10E323006103D000019D2B00D00C0E9BEC5FF0C16C
:10E333000E436E000E446EBD0E456EFF0E466E9D7F
:10E34300C047F0486A8FEC74F0080E576EC10E5840
:10E353006E000E596E040EC4EC5AF0080E576E058B
:10E363000E586EFE0E596E040EC4EC5AF00F0E9B3F
:10E37300EC5FF065D00C0E0001A4190001A511D8C3
:10E38300A42AD0170E00019E6103D000019E2B002A
:10E39300D00C0E9BEC5FF0C10E436E000E446EBDBD
:10E3A3000E456EFF0E466E9EC047F0486A8FEC74B2
:10E3B300F00F0E576EC10E586E000E596E040EC448
:10E3C300EC5AF00F0E576E050E586EFE0E596E0482
:10E3D3000EC4EC5AF034D00E0E0001A4190001A5AE
:10E3E30011D8A42DD03B0E00019F6103D000019FE3
:10E3F3002B00D00C0E9BEC5FF0C10E436E000E445D
:10E403006EBD0E456EFF0E466E9FC047F0486A8F85
:10E41300EC74F0120E576EC10E586E000E596E0456
:10E423000EC4EC5AF0120E576E050E586EFE0E59BE
:10E433006E040EC4EC5AF00F0E9BEC5FF000D0801C
:10E44300B402D0010E01D0000E0001BB6F0001BB6E
:10E4530051D8B43CD00001A5BF08D00001A5510B91
:10E46300E10E0E0001A45DD8B006D0020E0001A497
:10E4730027000EA52300D0000E0001B26F000EB1DD
:10E483006FA4C05CF0A5C05DF0D8905C365D360229
:10E493000E5C26000E5D22000E5C24D96E010E5D1B
:10E4A30020DA6EDF50576E050E586EFE0E596ED889
:10E4B300900001A435D96E0001A535DA6E000ED99E
:10E4C30026010EDA22DF50C4EC5AF000D080B002ED
:10E4D300D0010E01D0000E0001BA6F0001BA51D86D
:10E4E300B43CD00001A5BF0ED00001A55105E10247
:10E4F3000E0001A45DD8A006D00001FE0EA427FFE4
:10E503000EA52300D0000E0001B26F000EB16FA460
:10E51300C05CF0A5C05DF0D8905C365D36020E5C41
:10E5230026000E5D22000E5C24D96E010E5D20DAFA
:10E533006EDF50576E050E586EFE0E596ED8900062
:10E5430001A435D96E0001A535DA6E000ED9260176
:10E553000EDA22DF50C4EC5AF000D082B802D001A8
:10E563000E01D0000E0001B96F0001B951D8B4A655
:10E57300D1000E0001B26F000EB16F0001A4510073
:10E5830001A511D8A42ED00001A0510001D8B403D5
:10E59300D00001A00700D00C0E9BEC5FF0C10E432E
:10E5A3006E000E446EBD0E456EFF0E466EA0C04754
:10E5B300F0486A8FEC74F0050E576EC10E586E006A
:10E5C3000E596E020EC4EC5AF0050E576E050E5826
:10E5D3006EFE0E596E020EC4EC5AF00F0E9BEC5FEA
:10E5E300F06DD1020E0001A4190001A511D8A42ECB
:10E5F300D00001A1510001D8B403D00001A107004C
:10E60300D00C0E9BEC5FF0C10E436E000E446EBD4A
:10E613000E456EFF0E466EA1C047F0486A8FEC743C
:10E62300F0080E576EC10E586E000E596E020EC4DE
:10E63300EC5AF0080E576E050E586EFE0E596E0218
:10E643000EC4EC5AF00F0E9BEC5FF038D1040E00B1
:10E6530001A4190001A511D8A42ED00001A25100D4
:10E6630001D8B403D00001A20700D00C0E9BEC5FCD
:10E67300F0C10E436E000E446EBD0E456EFF0E4696
:10E683006EA2C047F0486A8FEC74F00F0E576EC14C
:10E693000E586E000E596E020EC4EC5AF00F0E5750
:10E6A3006E050E586EFE0E596E020EC4EC5AF00F34
:10E6B3000E9BEC5FF003D1060E0001A4190001A527
:10E6C30011D8A42BD00001A3510001D8B403D0006A
:10E6D30001A30700D00C0E9BEC5FF0C10E436E004C
:10E6E3000E446EBD0E456EFF0E466EA3C047F04846
:10E6F3006A8FEC74F0120E576EC10E586E000E59ED
:10E703006E020EC4EC5AF0120E576E050E586EFED2
:10E713000E596E020EC4EC5AF0D1D0080E0001A4BB
:10E72300190001A511D8A42ED000019C510001D8D5
:10E73300B403D000019C0700D00C0E9BEC5FF0C12A
:10E743000E436E000E446EBD0E456EFF0E466E9C6C
:10E75300C047F0486A8FEC74F0050E576EC10E582F
:10E763006E000E596E040EC4EC5AF0050E576E057A
:10E773000E586EFE0E596E040EC4EC5AF00F0E9B2B
:10E78300EC5FF09CD00A0E0001A4190001A511D87A
:10E79300A42ED000019D510001D8B403D000019DE7
:10E7A3000700D00C0E9BEC5FF0C10E436E000E44CD
:10E7B3006EBD0E456EFF0E466E9DC047F0486A8FD4
:10E7C300EC74F0080E576EC10E586E000E596E04AD
:10E7D3000EC4EC5AF0080E576E050E586EFE0E5915
:10E7E3006E040EC4EC5AF00F0E9BEC5FF067D00C76
:10E7F3000E0001A4190001A511D8A42BD000019E7D
:10E80300510001D8B403D000019E0700D00C0E9B29
:10E81300EC5FF0C10E436E000E446EBD0E456EFFFD
:10E823000E466E9EC047F0486A8FEC74F00F0E5789
:10E833006EC10E586E000E596E040EC4EC5AF00FE2
:10E843000E576E050E586EFE0E596E040EC4EC5A2A
:10E85300F035D00E0E0001A4190001A511D8A42E85
:10E86300D000019F510001D8B403D000019F0700DD
:10E87300D00C0E9BEC5FF0C10E436E000E446EBDD8
:10E883000E456EFF0E466E9FC047F0486A8FEC74CC
:10E89300F0120E576EC10E586E000E596E040EC460
:10E8A300EC5AF0120E576E050E586EFE0E596E049A
:10E8B3000EC4EC5AF00F0E9BEC5FF000D080BA024E
:10E8C300D0010E01D0000E0001B86F0001B851D87D
:10E8D300B413D09CC0F0F09DC0BEF09EC0EDF09F7D
:10E8E300C0BDF0A0C0F1F0A1C0BFF0A2C0EEF0A384
:10E8F300C0EFF0EEEC63F00DD00001B14BB22B0092
:10E9030001B2BF6DEF70F00001B25103E164EF702B
:10E91300F000D00C0E9BEC5FF01200470E0001726A
:10E923006F000E0001736F6FEF7EF0250E000185FF
:10E9330019D8B40AD043C0D9FF44C0DAFF85C0DF79
:10E94300FF434A442A6FEF7EF0000E0001846F00FC
:10E953000E836F000E0001876F000E866F0FD000CD
:10E9630001868708D00001868105D00001878702D0
:10E97300D000018685454A462A01D014D045C0F609
:10E98300FF46C0F7FF0800F550200AD8B4EBD703C1
:10E993000AD8B4EBD70E0AD8B4E2D71D0AD8B4E824
:10E9A300D701D0ECD7000186A703D00001869500DC
:10E9B300D045C0F6FF46C0F7FF0800F550DCEC5722
:10E9C300F0D8A038D0000E0001846F000E836F00D2
:10E9D300D083C00FF084C010F0000E126E0A0E1127
:10E9E3006E12EC58F00FC083F010C084F0D00E4DBF
:10E9F3006EFF0E4E6E45C0F6FF46C0F7FF0800F5EA
:10EA0300504F6E506A4D504F264E5050224F50007B
:10EA1300018327505000018423454A462A45C0F606
:10EA2300FF46C0F7FF0800F550DCEC57F0D8A01BF9
:10EA3300D0CFD719D045C0F6FF46C0F7FF0800F581
:10EA4300502A0AD8A410D072C0D9FF73C0DAFFDEEF
:10EA5300CF83F0DDCF84F0020E00017227000E7326
:10EA630023454A462A00D045C0F6FF46C0F7FF08B3
:10EA730000F5502E0AD8A44DD00001878D454A4693
:10EA83002A45C0F6FF46C0F7FF0800F5502A0AD80A
:10EA9300A410D072C0D9FF73C0DAFFDECF81F0DDDE
:10EAA300CF82F0020E00017227000E7323454A46FF
:10EAB3002A32D1000E0001826F000E816F1ED081B9
:10EAC300C00FF082C010F0000E126E0A0E116E120B
:10EAD300EC58F045C0F6FF46C0F7FF0800F5500FAD
:10EAE30026000E1022D00E0F240001816FFF0E109E
:10EAF300200001826F454A462A00D045C0F6FF46F2
:10EB0300C0F7FF0800F550DCEC57F0D8A004D1D7CC
:10EB1300D702D1000E0001826F000E816F000187C2
:10EB230089FAD07FEF7EF00001878520D10001862E
:10EB33008D1DD10001868B0001868F18D172C0D93B
:10EB4300FF73C0DAFFDECF6EF0DDCF6FF0020E0091
:10EB5300017227000E732300016E5100016F11D85B
:10EB6300A407D0DE0E00016E6FFF0E00016F6F0071
:10EB7300D0000E0001716F000E706F04D0000170A1
:10EB83004B712B00D00001705100016E254D6E00BA
:10EB930001715100016F214E6E4DC0F6FF4EC0F75B
:10EBA300FFF86A0E0EF76403D00800F55005D0F69F
:10EBB300CFE9FFF7CFEAFFEF500009D8B402D0DE68
:10EBC300D700D00001815100018211D8B40FD000C9
:10EBD3000170510001815D0001715100018259D81A
:10EBE300B005D081C070F082C071F000D000018305
:10EBF300510001705D0001845100017159D8B009C1
:10EC0300D0000170510001835F0001715100018444
:10EC13005B06D0000E0001846F000E836F00D000EE
:10EC23000186A70BD032D009D043C0D9FF44C0DA44
:10EC3300FF200EDF6E434A442A00D000018307D829
:10EC4300A0840700018329F0E100018429D8B41DC1
:10EC5300D0EBD71BD06EC0F6FF6FC0F7FFF86A4347
:10EC6300C0D9FF44C0DAFF0E0EF76403D00800F5E5
:10EC73005005D0F6CFE9FFF7CFEAFFEF50DF6E0084
:10EC8300016E4B6F2B434A442A00D000017007D812
:10EC9300A0710700017029DEE100017129D8A4DA0F
:10ECA300D7000186B70CD06FEF7EF009D043C0D9EF
:10ECB300FF44C0DAFF200EDF6E434A442A00D0002F
:10ECC300018307D8A0840700018329F0E1000184B0
:10ECD30029D8B46FEF7EF0EAD76FEF7EF072C0D918
:10ECE300FF73C0DAFFDF500001856F020E0001726F
:10ECF30027000E732300D0850E00016E6F000E00F7
:10ED0300016F6F000E0001716F010E706F5AD7C053
:10ED13000E000186132BD045C0F6FF46C0F7FF4512
:10ED23004A462A0800F5CF85F000018551000AD82C
:10ED3300B47FEF7EF0580AD8B4FCD63B0AD8B4CEE1
:10ED4300D7070AD8B413D0020AD8B4EDD60F0AD81D
:10ED5300B40DD0060AD8B4EAD61C0AD8B4EFD60646
:10ED63000AD8B4D5D70D0AD8B4E6D6C5D7070E004E
:10ED7300018715D8B4CDEF7AF0000187A906D0003A
:10ED83000E0001826F060E816F00D072C0D9FF732F
:10ED9300C0DAFFDECF7AF0DECF7BF0DDCF7CF0038D
:10EDA3000E00017227000E732300017CAF12D07A8C
:10EDB300C001F07BC002F07CC003F0EDEC57F00122
:10EDC300C07AF002C07BF003C07CF0030E00018622
:10EDD3001300D0000E0001796F000E786F00017AE6
:10EDE3005100017B1100017C11D8B48DD0820E4DEE
:10EDF3006EFF0E4E6E7AC04FF07BC050F07CC05158
:10EE0300F07DC052F0100E05D0D8905232513250DE
:10EE1300324F32E82EF9D74F504D240001786F005E
:10EE23000E4E200001796F00017807D8A07907788A
:10EE3300C00FF079C010F0000E126E030E116E12A7
:10EE4300EC58F00FC078F010C079F078C007F07973
:10EE5300C008F0000E0A6E0A0E096E59EC5BF0074B
:10EE6300C078F008C079F0000179AF05D0000178CF
:10EE730007D8A0790700D0000178510008F5EC69A4
:10EE8300F024C074F025C075F026C076F074C01568
:10EE9300F075C016F076C017F07AC018F07BC01971
:10EEA300F07CC01AF078EC5DF015C074F016C075F4
:10EEB300F017C076F074C03AF075C03BF076C03CF2
:10EEC300F0000E3D6E800E3E6E3F0E3F6E0EEC5B0D
:10EED300F0D8B005D000017807D8A0790714D07412
:10EEE300C03AF075C03BF076C03CF0000E3D6E209A
:10EEF3000E3E6E410E3F6E0EEC5BF0D8A004D000C8
:10EF030001784B792B00D0000182BF08D000018229
:10EF1300511EE10D0E0001815DD8B019D07AC02ECB
:10EF2300F07BC02FF07CC030F0000181518CEC6786
:10EF3300F024C031F025C032F026C033F0BCEC64BD
:10EF4300F02EC07AF02FC07BF030C07CF000D000F0
:10EF53000179BF08D00001795128E10A0E00017838
:10EF63005DD8B023D000017A5100017B1100017CF0
:10EF730011D8B477D07AC02BF07BC02CF07CC02D95
:10EF8300F0F7EC5CF02B502C102D102E10D8A46948
:10EF9300D0000179BF66D00001795107E1020E006C
:10EFA30001785DD8B002D05DD000D074C03AF0755E
:10EFB300C03BF076C03CF0700E3D6E890E3E6E4055
:10EFC3000E3F6E0EEC5BF0D8B003D00001F70E02DB
:10EFD300D00001F80E7827FF0E792300D0000178C6
:10EFE30051F5EC69F024C074F025C075F026C076A5
:10EFF300F017D07AC001F07BC002F07CC003F0743C
:10F00300C004F075C005F076C006F0BFEC60F001F7
:10F01300C07DF002C07EF003C07FF004C080F01713
:10F02300D07AC001F07BC002F07CC003F074C0044E
:10F03300F075C005F076C006F059EC61F001C07DB3
:10F04300F002C07EF003C07FF004C080F000D00067
:10F053000E00017A6F000E00017B6F000E00017C31
:10F063006F34D07AC02BF07BC02CF07CC02DF0F72E
:10F07300EC5CF02BC07DF02CC07EF02DC07FF02E19
:10F08300C080F07AC03AF07BC03BF07CC03CF07D9E
:10F09300C009F07EC00AF07FC00BF080C00CF0A95D
:10F0A300EC58F009C03DF00AC03EF00BC03FF060E1
:10F0B300EC58F03AC07AF03BC07BF03CC07CF000E7
:10F0C3000E0001796F000E786F00D0010E000185EC
:10F0D3006F0A0E00018519D8B422D001D020D000C8
:10F0E300018551040D3F0EF324F66EFD0EF420F757
:10F0F3006E0900F55000017D5D0900F55000017EA9
:10F10300590900F55000017F590900F550000180AD
:10F1130059D8A005D001D003D00001852BD9D785BC
:10F12300C04DF04E6A4DBE4E06000181514D260082
:10F133000182514E22000178514D26000179514E32
:10F14300224D500001835F4E500001845B00018714
:10F15300B706D00001815100018211D8B405D00057
:10F16300018307D8A0840700D0030E000186154D44
:10F173006E000E000187154E6E4D504E10D8B4052B
:10F18300D000018307D8A0840700D0000186A548DA
:10F19300D0030E000186154D6E000E000187154E3B
:10F1A3006E4D504E10D8B417D0000186B105D00073
:10F1B3000E0001646F2B0E04D0000E0001646F2D4E
:10F1C3000E636F00D043C0D9FF44C0DAFF63C0DFD2
:10F1D300FF434A442A00D0000186A116D043C0D978
:10F1E300FF44C0DAFF200EDF6E434A442A0DD043AA
:10F1F300C0D9FF44C0DAFF300EDF6E434A442A0011
:10F20300018307D8A0840700D0000184BF9ED000EB
:10F21300018451EDE100018305D8A097D0E8D7958B
:10F22300D0000186A70FD01AD00DD043C0D9FF4418
:10F23300C0DAFF200EDF6E434A442A00018307D859
:10F24300A0840700D0000184BF09D000018451EDE0
:10F25300E100018305D8A002D0E8D700D0030E0057
:10F263000186154D6E000E000187154E6E4D504EF2
:10F2730010D8B415D0000186B105D0000E00016688
:10F283006F2B0E04D0000E0001666F2D0E656F000C
:10F29300D043C0D9FF44C0DAFF65C0DFFF09D00007
:10F2A3000186A153D043C0D9FF44C0DAFF200E4BDF
:10F2B300D0434A442A4AD07DC001F07EC002F07F89
:10F2C300C003F080C004F000018551040D3F0EF32C
:10F2D30024F66EFD0EF420F76E0900F5CF05F00954
:10F2E30000F5CF06F00900F5CF07F00A00F5CF08C7
:10F2F300F037EC5AF001C074F002C075F003C07629
:10F30300F004C077F074C00EF075C00FF076C01033
:10F31300F077C011F00A0E126E000E136E000E1479
:10F323006E000E156E41EC59F00EC074F00FC075EF
:10F33300F010C076F011C077F000017451300F4324
:10F34300C0D9FF44C0DAFFDF6EB3D70001850700E1
:10F35300018529D8B40FD0AFD70DD043C0D9FF440E
:10F36300C0DAFF300EDF6E434A442A00017807D823
:10F37300A0790700D0000179BF07D000017951EDD2
:10F38300E100017805D8B0E9D7000182BF0CD000B5
:10F3930001825105E1090E0001815DD8A004D00866
:10F3A3000E0001856F03D081C085F000D000018578
:10F3B300510001815F000E000185BFFF0E00018235
:10F3C3005B000185510001D8A403D0000187A70980
:10F3D300D043C0D9FF44C0DAFF2E0EDF6E434A4448
:10F3E3002A00D000018551F5EC69F024C060F025B6
:10F3F300C061F026C062F07AC018F07BC019F07CBF
:10F40300C01AF060C015F061C016F062C017F07842
:10F41300EC5DF015C02BF016C02CF017C02DF0F7E3
:10F42300EC5CF02BC07DF02CC07EF02DC07FF02E65
:10F43300C080F073D07DC001F07EC002F07FC003B6
:10F44300F080C004F000018551040D3F0EF324F653
:10F453006EFD0EF420F76E0900F5CF05F00900F5F7
:10F46300CF06F00900F5CF07F00A00F5CF08F03713
:10F47300EC5AF001C074F002C075F003C076F004DA
:10F48300C077F074C00EF075C00FF076C010F0773F
:10F49300C011F00A0E126E000E136E000E146E00F1
:10F4A3000E156E41EC59F00EC074F00FC075F010DC
:10F4B300C076F011C077F000017451300F43C0D90A
:10F4C300FF44C0DAFFDF6E434A442A7DC00EF07E5C
:10F4D300C00FF07FC010F080C011F000018551040F
:10F4E3000D3F0EF324F66EFD0EF420F76E0900F5C2
:10F4F300CF12F00900F5CF13F00900F5CF14F00A8D
:10F5030000F5CF15F041EC59F00EC07DF00FC07E31
:10F51300F010C07FF011C080F000D000018507001B
:10F52300018529D8B40FD086D70DD043C0D9FF4465
:10F53300C0DAFF300EDF6E434A442A00018107D848
:10F54300A0820700D00001815100018211D8A4EDEF
:10F55300D7000186A7C2D3000184BFBFD3000184B3
:10F563005106E100018305D8B002D0B7D300D043E0
:10F57300C0D9FF44C0DAFF200EDF6E434A442A009D
:10F58300018307D8A084070001835100018411D8A7
:10F59300B4A4D3EDD7A2D3C00E000186154D6E00DF
:10F5A3000E000187154E6E4D504E10D8A423D07215
:10F5B300C0D9FF73C0DAFFDECF7DF0DDCF7EF00070
:10F5C30001000E7EBFFF0E7F6F806F020E0001727F
:10F5D30027000E7323000180AF22D0030E000186A3
:10F5E300130001801F7F1F7E1F7D6D000E7E237F12
:10F5F30023802315D072C0D9FF73C0DAFFDECF4D4D
:10F60300F0DDCF4EF04DC07DF04EC07EF000017FA7
:10F613006B806B020E00017227000E732300D00073
:10F6230001815100018211D8A490D000017D5100C5
:10F63300017E1100017F1100018011D8A486D00042
:10F6430001814B822B82D000D0010E0001856F0A0D
:10F653000E00018519D8B489D001D087D000018567
:10F6630051040D3F0EF324F66EFD0EF420F76E09E0
:10F6730000F55000017D5D0900F55000017E590938
:10F6830000F55000017F590900F55000018059D859
:10F69300A06CD001D06AD00001852BD9D766D001E8
:10F6A3000E0001856F080E00018519D8B45ED001E4
:10F6B300D05CD000018551040DB50EF324F66EFD28
:10F6C3000EF420F76E0900F55000017D5D0900F589
:10F6D3005000017E590900F55000017F590900F5DA
:10F6E3005000018059D8A041D001D03FD0000185FE
:10F6F3002BD9D73BD0010E0001856F0C0E0001857D
:10F7030019D8B433D001D031D000018551040D0F85
:10F713000EF324F66EFD0EF420F76E0900F550008B
:10F72300017D5D0900F55000017E590900F5500087
:10F73300017F590900F55000018059D8A016D00166
:10F74300D014D00001852BD9D710D000018651C029
:10F753000B000AD8B479D7400AD8B4CCD7C00AD89A
:10F76300B49ED7400AD8B470D700D0800E0001856C
:10F77300BF7F0E4D6E000181510001855D00018246
:10F7830051800A4D58D8B003D081C085F017D000FE
:10F79300018251800A4D6E000185510001815D8017
:10F7A3000E000185BF7F0E4D58D8B008D0000185EB
:10F7B300510001816F826B81BF820700D0000183FA
:10F7C3005100018411D8B411D0030E000186154DE8
:10F7D3006E000E000187154E6E4D504E10D8B405C5
:10F7E300D000018307D8A0840700D0000187AD1D96
:10F7F300D0000183510001815D00018251800A4DD7
:10F803006E00018451800A4D58D8B009D00001819F
:10F81300510001835F000182510001845B06D00027
:10F823000E0001846F000E836F00D0C40E4D6E086E
:10F833000E4E6E86C04FF087C050F04D504F164E9F
:10F84300505016400E4F180FE1080E5018D8A40B55
:10F85300D00001835100018411D8B42FD00001835B
:10F8630007D8A084072AD0C00E4D6E080E4E6E86B0
:10F87300C04FF087C050F04D504F164E5050168079
:10F883000E4F181BE1080E5018D8A417D00001849E
:10F89300BF0ED00001845105E1030E0001835DD842
:10F8A300A006D00001FE0E8327FF0E842306D0009E
:10F8B3000E0001846F000E836F00D0800E0001855F
:10F8C300BF7F0E4D6E000183510001855D000184F1
:10F8D30051800A4D58D8B00BD000018551000183E7
:10F8E3005F000E000185BFFF0E0001845B06D000A0
:10F8F3000E0001846F000E836F00D0000186A56A9D
:10F90300D0030E000186154D6E000E000187154EC3
:10F913006E4D504E10D8B409D043C0D9FF44C0DA5D
:10F92300FF2D0E0BD0434A442A3BD0000186A1078A
:10F93300D043C0D9FF44C0DAFF200EDF6EF3D7C037
:10F943000E4D6E080E4E6E86C04FF087C050F04DC0
:10F95300504F164E505016800E4F1822E1080E508D
:10F9630018D8A41ED043C0D9FF44C0DAFF300EDF3D
:10F973006E434A442A000186BB05D0000E0001688D
:10F983006F780E04D0000E0001686F580E676F0089
:10F99300D043C0D9FF44C0DAFF67C0DFFFC3D7003D
:10F9A300D00001835100018411D8B469D143C0D977
:10F9B300FF44C0DAFF300EDF6E434A442A0001835E
:10F9C30007D8A084070001835100018411D8B457DC
:10F9D300D1EDD755D10001835100018411D8B4175B
:10F9E300D0000186B714D043C0D9FF44C0DAFF204A
:10F9F3000EDF6E434A442A00018307D8A084070020
:10FA030001835100018411D8B402D0EDD700D00393
:10FA13000E000186154D6E000E000187154E6E4DCA
:10FA2300504E10D8B409D043C0D9FF44C0DAFF2DDB
:10FA33000E0BD0434A442A0BD0000186A108D043C1
:10FA4300C0D9FF44C0DAFF200EDF6EF3D700D0C069
:10FA53000E4D6E080E4E6E86C04FF087C050F04DAF
:10FA6300504F164E505016400E4F180BE1080E50D3
:10FA730018D8A407D043C0D9FF44C0DAFF300EDF43
:10FA83006EFBD0C00E4D6E080E4E6E86C04FF087D3
:10FA9300C050F04D504F164E505016800E4F180365
:10FAA300E1080E5018D8A4EBD043C0D9FF44C0DA04
:10FAB300FF300EDF6E434A442A000186BB05D000A7
:10FAC3000E00016A6F780E04D0000E00016A6F58B1
:10FAD3000E696F00D043C0D9FF44C0DAFF69C0DFAD
:10FAE300FFCBD0CDD0B3D000D081C04DF082C04E7B
:10FAF300F0D8904D364E36D8904D364E363F0E4D9B
:10FB030024F66EFD0E4E20F76E0900F5CF05F009C1
:10FB130000F5CF06F00900F5CF07F00A00F5CF088E
:10FB2300F07DC001F07EC002F07FC003F080C0040E
:10FB3300F037EC5AF001C00EF002C00FF003C01012
:10FB4300F004C011F00A0E126E000E136E000E14B4
:10FB53006E000E156E41EC59F00E5074D07DC0014D
:10FB6300F07EC002F07FC003F080C004F081C04D7E
:10FB7300F082C04EF0D8904D364E36D8904D364E6A
:10FB830036B50E4D24F66EFD0E4E20F76E0900F5C8
:10FB9300CF05F00900F5CF06F00900F5CF07F00A0D
:10FBA30000F5CF08F037EC5AF001500F0B00016D50
:10FBB3006F000186BB05D0910E00016B6FFF0E0431
:10FBC300D0800E00016B6FFF0E00016C6F00D00040
:10FBD300016D51010D6BC04DF06CC04EF0F3504DF3
:10FBE30026F4504E224DC0F6FF4EC0F7FF0800F535
:10FBF300CF85F03CD07DC001F07EC002F07FC00312
:10FC0300F080C004F081C04DF082C04EF0D8904D1A
:10FC1300364E36D8904D364E360F0E4D24F66EFDC9
:10FC23000E4E20F76E0900F5CF05F00900F5CF065B
:10FC3300F00900F5CF07F00A00F5CF08F037EC5ACA
:10FC4300F00150070B300F0001856F10D0000186C3
:10FC530051C00B000AD8B448D7400AD8B4CBD7C098
:10FC63000AD8B47CD7400AD8B43FD700D043C0D910
:10FC7300FF44C0DAFF85C0DFFF434A442A00D000B7
:10FC8300018107D8A0820700018129E0E1000182F8
:10FC930029D8A4DCD7000186A720D0000184BF1D8A
:10FCA300D00001845106E100018305D8B002D015CC
:10FCB300D000D043C0D9FF44C0DAFF200EDF6E432B
:10FCC3004A442A00018307D8A08407000183510016
:10FCD300018411D8B402D0EDD700D045C0F6FF4659
:10FCE300C0F7FF454A462A0800F5CF85F000018595
:10FCF30051D8B403D097EF74F000D043C0D9FF4478
:10FD0300C0DAFF000EDF6E120012000001000000D7
:10FD13000800000040000000000200000010000086
:10FD2300008000000000040000002000000000012B
:10FD33000000000800000040000000000100000077
:10FD43000A00000064000000E80300001027000020
:10FD5300A086010040420F008096980000E1F5055F
:10FD630000CA9A3B00803FCDCC3DD7233C12833A57
:10FD7300B7D138C62737388635C0D633CC2B327047
:10FD83008930E7DB2EE53C1E42A20D00803F0020B8
:10FD93004100C842007A44401C4650C3472474497A
:10FDA30097184BBCBE4C6B6E4E03155079AD60F388
:10FDB3004971010000001000000000010000001064
:10FDC300000000000100000010000000000100001E
:10FDD3000010253032752F253032752F25303275BE
:10FDE3002020202020202020202020202000202030
:10FDF3002020202020202020202020202020202000
:10FE0300202000526965676F2020202020202020B9
:10FE130020202020202020004C756E657320202098
:10FE23002020202020202020202020200053616239
:10FE330061646F20202020202020202020202020EB
:10FE430020004D6172746573202020202020202023
:10FE5300202020202020004A75657665732020200D
:10FE6300202020202020202020202000446F6D69A6
:10FE73006E676F202020202020202020202020209B
:10FE830000566965726E6573202020202020202093
:10FE93002020202020004D696572636F6C657320FC
:10FEA3002020202020202020202000496C756D690F
:10FEB3006E6163696F6E20202020202020202000A7
:10FEC300706F72206465666563746F3F2020202025
:10FED30020202020002020204E6F202020202020C2
:10FEE3002020202053692020200050726F67726108
:10FEF3006D2064656C2072656C6F6A20202000564B
:10FF0300656E74616E61207072696E636970616C95
:10FF13002020200050726F6772616D6163696F6E9C
:10FF2300206465206C61202000696369617220612F
:10FF3300206C6F732076616C6F726573200054655B
:10FF43006D70657261747572613A20252E31662574
:10FF530063430054656D70657261747572612064EA
:10FF6300656C206167756100BF45737461207365BB
:10FF73006775726F206465207265696E0030313277
:10FF830033343536373839414243444546003031FE
:10FF93003233343536373839616263646566002538
:10FFA3003032753A253032753A25303275202000CB
:10FFB300496E696320253032753A25303275005415
:10FFC300413A20252E316625634320200046696E81
:10FFD30020253032753A2530327500286E756C6CE9
:10FFE300290025302E316600252E31660025640058
:04FFF3002573000072
:08FFF800AEF718FFF3F8FFF16A
:00000001FF
