:040000008DEF73F01D
:10E5CE00140006000B00F29C550EA76EAA0EA76E45
:10E5DE000F013F8BF28C1200C280C28200D0C2B2F9
:10E5EE00FED7030E016E980EE82EFED7012EFCD735
:10E5FE00C4CF87F0C2901200036E000E026E3A0E68
:10E60E00036006D02F0E036403D0010E026E00D0FD
:10E61E0002C001F0013012001200020000000300DF
:10E62E0000000300030003000600040000000400C5
:10E63E00030000A04100B441120037000150030254
:10E64E00F3CF05F0F4CF06F001500402F350062686
:10E65E0002500302F350062605C001F006C002F078
:10E66E00120012000A500B10D8B41DD0010E0C6E01
:10E67E0005D0D8900A360B360C2A00D00BBE02D02D
:10E68E00F8D700D00A50085C0B500958D8A005D016
:10E69E000A50085E0B50095A00D0D8900B320A323D
:10E6AE000C2EF0D700D008C008F009C009F01200F7
:10E6BE00000E066E000E056E03500410D8B421D065
:10E6CE00010E076E05D0D89003360436072A00D007
:10E6DE0004BE02D0F8D700D0D890053606360350C7
:10E6EE00015C04500258D8A006D00350015E0450BD
:10E6FE00025A058000D0D89004320332072EECD790
:10E70E0000D005C001F006C002F0120000EE60F06D
:10E71E003C0EEE6AE806FDE100EE50F00A0EEE6ADF
:10E72E00E806FDE1280EF66EE60EF76E000EF86EA8
:10E73E0000EE9CF010EE22F00900F5CFEEFFE55052
:10E74E00E150FAE1CE0EF66EE50EF76E000EF86EA3
:10E75E0000EE5AF010EE06F00900F5CFEEFFE55090
:10E76E00E150FAE1000EF86E0001EEEF79F0FC0ECA
:10E77E000F013F170F013F8198CF0FF099CF10F087
:10E78E0098CF11F099CF12F0FC0E0F013F170F0129
:10E79E003F8198CF07F099CF08F098CF09F099CF25
:10E7AE000AF009501118D8A4E2D720EE03F0015058
:10E7BE00D9260250DA220FC0DFFF20EE02F0015000
:10E7CE00D9260250DA2212C0DFFF20EE01F00150EE
:10E7DE00D9260250DA2211C0DFFF1200FC0E0F0103
:10E7EE003F17030E0F013F1398CF0BF099CF0CF08C
:10E7FE0098CF0DF099CF0EF098CF0FF099CF10F073
:10E80E00FC0E0F013F17030E0F013F1398CF03F0BD
:10E81E0099CF04F098CF05F099CF06F098CF07F076
:10E82E0099CF08F005500D18D8A4D8D720EE01F0D6
:10E83E000150D9260250DA220DC0DFFF20EE02F081
:10E84E000150D9260250DA220EC0DFFF01C0D9FFD7
:10E85E0002C0DAFF10C0DFFF20EE03F00150D92610
:10E86E000250DA220BC0DFFF1200436E0DD0405073
:10E87E00800F08D04050C00F05D04050940F02D0EA
:10E88E004050D40F446E0ED04350010AD8B4EFD787
:10E89E00030AD8B4EFD7010AD8B4EFD7070AD8B411
:10E8AE00EFD700D04450D2EC76F015D041C0F6FF31
:10E8BE0042C0F7FFF86A0E0EF76403D00800F55059
:10E8CE0005D0F6CFD9FFF7CFDAFFDF50F2EC77F0B5
:10E8DE00414A422A00D041C0F6FF42C0F7FFF86A13
:10E8EE000E0EF76403D00800F55005D0F6CFD9FF11
:10E8FE00F7CFDAFFDF500009D8A4D8D71200000EE8
:10E90E00066E04AE07D0036C041ED8B0042A010EA6
:10E91E00066E00D002AE07D0016C021ED8B0022ADD
:10E92E00010E061A00D0000E086E000E076E035080
:10E93E000410D8B421D0010E056E05D0D890033640
:10E94E000436052A00D004BE02D0F8D700D0D890E5
:10E95E00073608360350015C04500258D8A006D082
:10E96E000350015E0450025A078000D0D890043242
:10E97E000332052EECD700D00650D8B405D0076C64
:10E98E00081ED8B0082A00D007C001F008C002F057
:10E99E001200120062EC77F0F3EC72F0000E406E93
:10E9AE00D70E416EFE0E426E010E3CEC74F050C05E
:10E9BE0028F051C029F043EC76F028C045F029C06C
:10E9CE0046F0000E406E45C041F046C042F0020EC9
:10E9DE003CEC74F0880E0D6E000E0E6ECA0E0F6EAD
:10E9EE00FF0E106E5CC011F05DC012F05EC013F031
:10E9FE005FC014F05AC015F05BC016F0ECEC7AF064
:10EA0E00000E406E880E416E000E426E030E3CEC00
:10EA1E0074F0880E0D6E000E0E6ED90E0F6EFF0E78
:10EA2E00106EBAC011F0BBC012F0BCC013F0BDC066
:10EA3E0014F07EC015F07FC016F0ECEC7AF0000EEC
:10EA4E00406E880E416E000E426E040E3CEC74F069
:10EA5E001200000E066E20EE02F00150D926025072
:10EA6E00DA225A0EDF60120020EE01F00150D92694
:10EA7E000250DA225A0EDF60120020EE03F001502F
:10EA8E00D9260250DA22240EDF6402D012001200C0
:10EA9E0020EE02F00150D9260250DA22DF50096E24
:10EAAE0020EE01F00150D9260250DA22DF50086E16
:10EABE000350D8B402D0F29C00D0000E3FBB010E22
:10EACE00076E0750D8A403D0EAEC72F000D0000E07
:10EADE003FBF010E056E0550D8B407D0000E91BE93
:10EAEE00010E066E0F013F9F00D0FC0E0F013F1767
:10EAFE000F013F8198CF0AF099CF0BF020EE03F073
:10EB0E000150D9260250DA22DF500A6EFC0E0F0198
:10EB1E003F170F013F810AC098FF0BC099FF08C035
:10EB2E0098FF09C099FF0550D8B40DD00F013F8F43
:10EB3E000650D8B402D0918E00D00750D8B409D068
:10EB4E00EAEC72F006D00750D8A403D00F013F9B19
:10EB5E0000D00350D8B41200F28C12001200939021
:10EB6E009392939493969398939A8A908A928A9476
:10EB7E008A968A988A9A0F0E046E480EE82EFED751
:10EB8E00042EFCD70F0E046E480EE82EFED7042E70
:10EB9E00FCD70F0E046E480EE82EFED7042EFCD7BF
:10EBAE000F0E046E480EE82EFED7042EFCD70F0E65
:10EBBE00046E480EE82EFED7042EFCD70F0E046E00
:10EBCE00480EE82EFED7042EFCD7010E056E1FD080
:10EBDE0021D08A908A928A848A868A988A9A8A9082
:10EBEE008A928A848A868A888A9A030EE82EFED7AB
:10EBFE0000F08A908A928A848A868A988A9A0F0E60
:10EC0E00046E480EE82EFED7042EFCD7052A030EFE
:10EC1E000564DFD78A908A928A848A968A988A9A1D
:10EC2E008A908A928A848A968A888A9A030EE82E15
:10EC3E00FED700F08A908A928A848A968A988A9A57
:10EC4E000F0E046E480EE82EFED7042EFCD7280EAB
:10EC5E00056E0550D2EC76F0100E056E0550D2EC16
:10EC6E0076F0010E056E0550D2EC76F00F0E056EA5
:10EC7E000550D2EC76F0120069D02C0E0D6E000EFF
:10EC8E000E6EF40E0F6EFF0E106E400E116EFF0E16
:10EC9E00126EECEC7AF079D02C0E0D6E000E0E6E1C
:10ECAE00F40E0F6EFF0E106EEC0E116EFE0E126E47
:10ECBE00ECEC7AF06AD02C0E0D6E000E0E6EF40E89
:10ECCE000F6EFF0E106E160E116EFF0E126EECEC26
:10ECDE007AF05BD02C0E0D6E000E0E6EF40E0F6ED3
:10ECEE00FF0E106E6A0E116EFF0E126EECEC7AF0C5
:10ECFE004CD02C0E0D6E000E0E6EF40E0F6EFF0E1F
:10ED0E00106E2B0E116EFF0E126EECEC7AF03DD0E3
:10ED1E002C0E0D6E000E0E6EF40E0F6EFF0E106E9C
:10ED2E00550E116EFF0E126EECEC7AF02ED02C0EEC
:10ED3E000D6E000E0E6EF40E0F6EFF0E106E010EA7
:10ED4E00116EFF0E126EECEC7AF01FD028C02AF076
:10ED5E0029C02BF02B50000AD8A417D02A50000A35
:10ED6E00D8B48BD7010AD8B497D7030AD8B4A3D78F
:10ED7E00010AD8B4AFD7070AD8B4BBD7010AD8B4A2
:10ED8E00C7D7030AD8B4D3D700D02C0E286E000EE6
:10ED9E00296E12001200036E8A988A9A016A03AED7
:10EDAE0001D0012A010E01168A500118FE0B01181E
:10EDBE008A6E03C001F0060E026ED8900132022E4A
:10EDCE00FCD7010E011601468A500118FD0B0118E1
:10EDDE008A6E03C001F0050E026ED8900132022E2B
:10EDEE00FCD7010E0116014601468A500118FB0B95
:10EDFE0001188A6E03C001F0013A0F0E0116010EC2
:10EE0E0001160146014601468A500118F70B0118FA
:10EE1E008A6E030EE82EFED700F08A88030EE82EC7
:10EE2E00FED700F08A9803C001F0D8900132D89036
:10EE3E000132D8900132010E01168A500118FE0BD4
:10EE4E0001188A6E03C001F0D8900132D8900132B9
:10EE5E00010E011601468A500118FD0B01188A6E2B
:10EE6E0003C001F0D8900132010E01160146014691
:10EE7E008A500118FB0B01188A6E03C001F0010EB7
:10EE8E0001160146014601468A500118F70B01187A
:10EE9E008A6E030EE82EFED700F08A88030EE82E47
:10EEAE00FED700F08A980F0E016E480EE82EFED7A0
:10EEBE00012EFCD71200560E016E000E026EBEEC35
:10EECE0073F057500F0B0001CA6F57380F0B0F0B13
:10EEDE000001C96F58500F0B0001C86F58380F0B47
:10EEEE000F0B0001C76F59500F0B0001C46F59383B
:10EEFE000F0B0F0B0001C36F520E016E000E026E50
:10EF0E00F5EC73F053500F0B0001C26F53380F0B1B
:10EF1E000F0B0001C16F54500F0B0001C66F543818
:10EF2E000F0B0F0B0001C56F52C0C0F055500F0BE9
:10EF3E000001BF6F55380F0B0F0B0001BE6F0001A4
:10EF4E00C9510A0D0001CA51F32400017E6F000160
:10EF5E00000EF42000017F6F0001C7510A0D000161
:10EF6E00C851F3240001BC6F0001000EF420000113
:10EF7E00BD6F0001C3510A0D0001C451F3240001FD
:10EF8E00BA6F0001000EF4200001BB6F0001C151E9
:10EF9E000A0D0001C251F3245C6E0001000EF42034
:10EFAE005D6EC0C050F0516A0001C5510A0D0001DE
:10EFBE00C651F3245E6E0001000EF4205F6E000158
:10EFCE00BE510A0D0001BF51F3245A6E0001000E0E
:10EFDE00F4205B6E1200036E8A988A8A016A03AE71
:10EFEE0001D0012A010E01168A500118FE0B0118DC
:10EFFE008A6E03C001F0060E026ED8900132022E08
:10F00E00FCD7010E011601468A500118FD0B01189E
:10F01E008A6E03C001F0050E026ED8900132022EE8
:10F02E00FCD7010E0116014601468A500118FB0B52
:10F03E0001188A6E03C001F0013A0F0E0116010E7F
:10F04E0001160146014601468A500118F70B0118B8
:10F05E008A6E030EE82EFED700F08A88030EE82E85
:10F06E00FED700F08A9803C001F0D8900132D890F4
:10F07E000132D8900132010E01168A500118FE0B92
:10F08E0001188A6E03C001F0D8900132D890013277
:10F09E00010E011601468A500118FD0B01188A6EE9
:10F0AE0003C001F0D8900132010E0116014601464F
:10F0BE008A500118FB0B01188A6E03C001F0010E75
:10F0CE0001160146014601468A500118F70B011838
:10F0DE008A6E030EE82EFED700F08A88030EE82E05
:10F0EE00FED700F08A98030EE82EFED700F00F0E22
:10F0FE00016E480EE82EFED7012EFCD71200000E30
:10F10E00066E20EE02F00150D9260250DA22130EBE
:10F11E00DF60120020EE02F00150D9260250DA22F2
:10F12E00DF50D8B4120020EE01F00150D926025063
:10F13E00DA22320EDF60120020EE01F00150D926E5
:10F14E000250DA22DF50D8B4120020EE03F0015044
:10F15E00D9260250DA22990EDF6402D01200120074
:10F16E0020EE03F00150D9260250DA22DF50076E4E
:10F17E0020EE01F00150D9260250DA22DF500A6E3D
:10F18E0020EE02F00150D9260250DA22DF500B6E2B
:10F19E000350D8B402D0F29C00D0000E3FBB010E3B
:10F1AE00096E0950D8A403D0EAEC72F000D0000E1C
:10F1BE003FBF010E056E0550D8B407D0000E91BEAC
:10F1CE00010E066E0F013F9F00D0FC0E0F013F1780
:10F1DE000F013F8198CF0CF099CF0DF001C0D9FFF0
:10F1EE0002C0DAFFDF500D6EFC0E0F013F17030E4B
:10F1FE000F013F1307C098FF08C099FF0AC098FF80
:10F20E000BC099FF0CC098FF0DC099FF0550D8B4E4
:10F21E000DD00F013F8F0650D8B402D0918E00D082
:10F22E000950D8B409D0EAEC72F006D00950D8A42F
:10F23E0003D00F013F9B00D00350D8B41200F29CB4
:10F24E0012001200EAEC72F0A3807EC001F07FC0C3
:10F25E0002F0000E046E0A0E036E86EC74F001507E
:10F26E000001C96F0001C9510A0DF35000080001D9
:10F27E007E250001CA6F0001C951100DF350000127
:10F28E00CA25576EBCC001F0BDC002F0000E046E60
:10F29E000A0E036E86EC74F001500001C76F000178
:10F2AE00C7510A0DF35000080001BC250001C86FBC
:10F2BE000001C751100DF3500001C825586EBAC099
:10F2CE0001F0BBC002F0000E046E0A0E036E86EC57
:10F2DE0074F001500001C36F0001C3510A0DF350C9
:10F2EE0000080001BA250001C46F0001C351100DC2
:10F2FE00F3500001C425596E5AC001F05BC002F0F4
:10F30E00000E046E0A0E036E86EC74F001500001BE
:10F31E00BE6F0001BE510A0DF35000085A240001C1
:10F32E00BF6F0001BE51100DF3500001BF25556E89
:10F33E005EC001F05FC002F0000E046E0A0E036E96
:10F34E0086EC74F001500001C56F0001C5510A0D25
:10F35E00F35000085E240001C66F0001C551100D68
:10F36E00F3500001C625546E5CC001F05DC002F082
:10F37E00000E046E0A0E036E86EC74F0015000014E
:10F38E00C16F0001C1510A0DF35000085C24000149
:10F39E00C26F0001C151100DF3500001C225536E12
:10F3AE0050C0C0F050C052F0560E016E000E026EEC
:10F3BE00010E036E30EC75F0520E016E000E026EF1
:10F3CE00010E036E86EC78F00F013F8F12009B8EBC
:10F3DE009B9CD388D38AD38CD390D3920F013F8F2B
:10F3EE000F013F8BCD86FD0E926E000E936E9468CC
:10F3FE000F014869F70E0F01496F2F0EC26E390EBD
:10F40E00C16E29EC79F0B6EC75F0010ED2EC76F007
:10F41E000C0ED2EC76F0FF0E4F6E8A0EE82EFED753
:10F42E004F2EFCD700D0FF0E4F6E8A0EE82EFED761
:10F43E004F2EFCD700D0FF0E4F6E8A0EE82EFED751
:10F44E004F2EFCD700D0FF0E4F6E8A0EE82EFED741
:10F45E004F2EFCD700D0FF0E4F6E8A0EE82EFED731
:10F46E004F2EFCD700D0FF0E4F6E8A0EE82EFED721
:10F47E004F2EFCD700D0FF0E4F6E8A0EE82EFED711
:10F48E004F2EFCD700D0FF0E4F6E8A0EE82EFED701
:10F49E004F2EFCD700D0010ED2EC76F000D0D1EC7E
:10F4AE0074F080B002D0010E01D0000E0001846F06
:10F4BE0000018451D8B40CD0000E406EB80E416ECF
:10F4CE00FF0E426E010E3CEC74F089EC7CF000D025
:10F4DE0082B802D0010E01D0000E0001836F000130
:10F4EE008351D8B417D0880E0D6E000E0E6EEF0E2F
:10F4FE000F6EFF0E106E87C011F0126AECEC7AF0F0
:10F50E00000E406E880E416E000E426E040E3CECF4
:10F51E0074F000D080B402D0010E01D0000E0001B4
:10F52E00856F00018551D8B40AD0000E406E930E3F
:10F53E00416EFF0E426E030E3CEC74F000D080B6AE
:10F54E0002D0010E01D0000E0001866F000186511F
:10F55E00D8B40AD0000E406EA60E416EFF0E426E5B
:10F56E00040E3CEC74F000D080BA02D0010E01D033
:10F57E00000E0001826F00018251D8B40DD0010E31
:10F58E00D2EC76F0000E406E7F0E416EFF0E426E94
:10F59E00020E3CEC74F000D08A8E8A8C89821A0E90
:10F5AE004F6EF80EE82EFED74F2EFCD700D08A9E57
:10F5BE008A9C89921A0E4F6EF80EE82EFED74F2EA9
:10F5CE00FCD700D06CD700EF00F0110E1F6E000EAE
:10F5DE00206E82D1250E2718D8B409D00DC0D9FFC0
:10F5EE000EC0DAFF27C0DFFF0D4A0E2A75D1000EBE
:10F5FE00266E000E256E000E1B6E05D01B840F4A64
:10F60E00102A01D00BD00FC0F6FF10C0F7FF080074
:10F61E00F550300AD8B4F2D701D0F5D70FC0F6FFA7
:10F62E0010C0F7FF0800F55003EC73F0D8A0A2D07D
:10F63E00000E266E000E256E00D025C001F026C0ED
:10F64E0002F0000E046E0A0E036E25EC73F001C07C
:10F65E0025F002C026F0D00E176EFF0E186E0FC0EA
:10F66E00F6FF10C0F7FF0800F550196E1A6A175012
:10F67E00192618501A22195025261A5026220F4ADA
:10F68E00102A0FC0F6FF10C0F7FF0800F55003EC6C
:10F69E0073F0D8A06FD0D1D76DD02CD11FC0D9FFA9
:10F6AE0020C0DAFFDECF21F0DDCF22F0020E1F26C2
:10F6BE00000E202221502210D8A405D0E80E216E73
:10F6CE00FF0E226E00D0000E246E000E236E03D0AD
:10F6DE00234A242A00D023502124176E245022209E
:10F6EE00186E17C0F6FF18C0F7FF0800F550000996
:10F6FE00D8A4EED72550235C26502458D8B005D078
:10F70E002350255E2450265A0ED0000E266E000E73
:10F71E00256E09D00DC0D9FF0EC0DAFF200EDF6EA8
:10F72E000D4A0E2A00D02506D8A026062528F2E17D
:10F73E002628D8B412D0EED710D021C0F6FF22C0A2
:10F74E00F7FF0DC0D9FF0EC0DAFF0800F5CFDFFFBF
:10F75E00214A222A0D4A0E2A00D02306D8A02406BA
:10F76E002328EBE12428D8B4B7D0E7D7B5D0C00E04
:10F77E001B1214D00FC0F6FF10C0F7FF0F4A102A4D
:10F78E000800F5CF27F02750000AD8B4B3D0730A7B
:10F79E00D8B484D7060AD8B4EAD79ED01FC0D9FFF2
:10F7AE0020C0DAFFDECF1CF0DDCF1DF0020E1F26CB
:10F7BE00000E2022010E276E050E2718D8B416D083
:10F7CE0001D014D02750020DCD0EF324F66EFE0E8E
:10F7DE00F420F76E0900F5501C5C0900F5501D5819
:10F7EE00D8A004D001D002D0272AE6D7800E27BE9B
:10F7FE007F0E176E2550275C2650800A1758D8B0FA
:10F80E0007D02750255E000E27BEFF0E265A05D0C4
:10F81E00000E266E000E256E00D01BA415D02550AE
:10F82E002610D8B426D00DC0D9FF0EC0DAFF300E88
:10F83E00DF6E0D4A0E2A2506D8A026062550261064
:10F84E00D8B417D0F0D715D025502610D8B411D073
:10F85E000DC0D9FF0EC0DAFF200EDF6E0D4A0E2A44
:10F86E002506D8A0260625502610D8B402D0F0D7EB
:10F87E0000D027C01EF02AD01E50020DCD0EF3244C
:10F88E00F66EFE0EF420F76E0900F5CF03F00A00B7
:10F89E00F5CF04F01CC001F01DC002F05FEC73F058
:10F8AE0001C008F002C009F0000E0B6E0A0E0A6EBF
:10F8BE0039EC73F00850300F276E0DC0D9FF0EC013
:10F8CE00DAFF27C0DFFF0D4A0E2A00D01E061E28C3
:10F8DE00D8B402D0D1D700D00FC0F6FF10C0F7FFBA
:10F8EE000F4A102A0800F5CF27F02750D8B402D0BF
:10F8FE0071D600D00DC0D9FF0EC0DAFF000EDF6E3C
:10F90E001200120050C047F05CC048F05EC049F0D3
:10F91E005AC04AF0BAC04BF0BCC04CF0000E4E6E4E
:10F92E00000E4D6E0E0ED2EC76F0000E406EEB0E0B
:10F93E00416EFE0E426E020E3CEC74F0000E0001A3
:10F94E007D6F000E7C6F00017DBF0AD000017D51DE
:10F95E0006E11E0E00017C5DD8B0ADD201D0ABD257
:10F96E00EA0E456EC30EE82EFED7452EFCD700F0EC
:10F97E0080B602D0010E01D0000E0001866F00018C
:10F98E008651D8B4F8D0000E00017D6F000E7C6F4A
:10F99E004D504E10D8A41DD0060E476002D0472AF7
:10F9AE0000D0000E406E47C028F0296A43EC76F076
:10F9BE0028C041F029C042F0020E3CEC74F0000E5B
:10F9CE00406EEB0E416EFE0E426E020E3CEC74F07B
:10F9DE00D2D0020E4D184E10D8A425D01F0E48605E
:10F9EE0002D0482A00D0880E0D6E000E0E6ED40E78
:10F9FE000F6EFF0E106E48C011F0126AECEC7AF02A
:10FA0E00000E406E880E416E000E426E030E3CECF0
:10FA1E0074F0000E406EEB0E416EFE0E426E030E43
:10FA2E003CEC74F0A8D0040E4D184E10D8A425D07E
:10FA3E000C0E496002D0492A00D0880E0D6E000EC1
:10FA4E000E6ED40E0F6EFF0E106E49C011F0126ABC
:10FA5E00ECEC7AF0030E406E880E416E000E426E94
:10FA6E00030E3CEC74F0030E406EEB0E416EFE0E78
:10FA7E00426E030E3CEC74F07ED0060E4D184E1006
:10FA8E00D8A425D0630E4A6002D04A2A00D0880E30
:10FA9E000D6E000E0E6ED40E0F6EFF0E106E4AC05F
:10FAAE0011F0126AECEC7AF0060E406E880E416E82
:10FABE00000E426E030E3CEC74F0060E406EEB0E22
:10FACE00416EFE0E426E030E3CEC74F054D0080EE6
:10FADE004D184E10D8A425D0170E4B6002D04B2ACD
:10FAEE0000D0880E0D6E000E0E6ED40E0F6EFF0E31
:10FAFE00106E4BC011F0126AECEC7AF0000E406EF4
:10FB0E00880E416E000E426E040E3CEC74F0000E38
:10FB1E00406EEB0E416EFE0E426E040E3CEC74F027
:10FB2E002AD00A0E4D184E10D8A425D03B0E4C608C
:10FB3E0002D04C2A00D0880E0D6E000E0E6ED40E22
:10FB4E000F6EFF0E106E4CC011F0126AECEC7AF0D4
:10FB5E00030E406E880E416E000E426E040E3CEC9B
:10FB6E0074F0030E406EEB0E416EFE0E426E040EEE
:10FB7E003CEC74F000D080B402D0010E01D0000E27
:10FB8E000001856F00018551D8B42DD0020E4D268F
:10FB9E00000E4E22000E00017D6F000E7C6F4DC0D8
:10FBAE0045F04EC046F0D89045364636020E4526F4
:10FBBE00000E46229C0E4524D96E000E4620DA6EAB
:10FBCE00DF50406EEB0E416EFE0E426ED8904D34FD
:10FBDE00D96E4E34DA6E9C0ED926000EDA22DF5024
:10FBEE003CEC74F000D080B002D0010E01D0000EBB
:10FBFE000001846F00018451D8B42DD0FE0E4D2625
:10FC0E00FF0E4E22000E00017D6F000E7C6F4DC068
:10FC1E0045F04EC046F0D89045364636020E452683
:10FC2E00000E46229C0E4524D96E000E4620DA6E3A
:10FC3E00DF50406EEB0E416EFE0E426ED8904D348C
:10FC4E00D96E4E34DA6E9C0ED926000EDA22DF50B3
:10FC5E003CEC74F000D082B802D0010E01D0000E40
:10FC6E000001836F00018351D8B4F8D0000E00015B
:10FC7E007D6F000E7C6F4D504E10D8A41DD0475096
:10FC8E00D8B402D0470600D0000E406E47C028F010
:10FC9E00296A43EC76F028C041F029C042F0020EEA
:10FCAE003CEC74F0000E406EEB0E416EFE0E426E9A
:10FCBE00020E3CEC74F0D2D0020E4D184E10D8A4A9
:10FCCE0025D0010E486402D0480600D0880E0D6E75
:10FCDE00000E0E6ED40E0F6EFF0E106E48C011F099
:10FCEE00126AECEC7AF0000E406E880E416E000E39
:10FCFE00426E030E3CEC74F0000E406EEB0E416E45
:10FD0E00FE0E426E030E3CEC74F0A8D0040E4D189D
:10FD1E004E10D8A425D0010E496402D0490600D059
:10FD2E00880E0D6E000E0E6ED40E0F6EFF0E106E40
:10FD3E0049C011F0126AECEC7AF0030E406E880E98
:10FD4E00416E000E426E030E3CEC74F0030E406EDC
:10FD5E00EB0E416EFE0E426E030E3CEC74F07ED046
:10FD6E00060E4D184E10D8A425D0140E4A6402D09B
:10FD7E004A0600D0880E0D6E000E0E6ED40E0F6E5B
:10FD8E00FF0E106E4AC011F0126AECEC7AF0060EFD
:10FD9E00406E880E416E000E426E030E3CEC74F007
:10FDAE00060E406EEB0E416EFE0E426E030E3CECE6
:10FDBE0074F054D0080E4D184E10D8A425D04B50C8
:10FDCE00D8B402D04B0600D0880E0D6E000E0E6E0B
:10FDDE00D40E0F6EFF0E106E4BC011F0126AECECCB
:10FDEE007AF0000E406E880E416E000E426E040ECA
:10FDFE003CEC74F0000E406EEB0E416EFE0E426E49
:10FE0E00040E3CEC74F02AD00A0E4D184E10D8A4F5
:10FE1E0025D04C50D8B402D04C0600D0880E0D6EB2
:10FE2E00000E0E6ED40E0F6EFF0E106E4CC011F043
:10FE3E00126AECEC7AF0030E406E880E416E000EE4
:10FE4E00426E040E3CEC74F0030E406EEB0E416EEF
:10FE5E00FE0E426E040E3CEC74F000D080BA02D05E
:10FE6E00010E01D0000E0001826F00018251D8B444
:10FE7E0017D047C050F0516A48C05CF05D6A49C067
:10FE8E005EF05F6A4AC05AF05B6A4BC0BAF000017E
:10FE9E00BB6B4CC0BCF00001BD6B29EC79F00BD0F4
:10FEAE0000017C4B7D2B00017DBF5AD500017D5199
:10FEBE0002E14FD500D00C0ED2EC76F0120000010C
:10FECE00000A006400E803102720202020202020B4
:10FEDE0020202020202020202020202020004C75B3
:10FEEE006E6573202020202020202020202020201E
:10FEFE0020200053616261646F202020202020208A
:10FF0E0020202020202020004D6172746573202057
:10FF1E00202020202020202020202020004A75652F
:10FF2E0076657320202020202020202020202020D5
:10FF3E002000446F6D696E676F20202020202020E6
:10FF4E0020202020202000566965726E65732020C7
:10FF5E002020202020202020202020004D696572A6
:10FF6E00636F6C657320202020202020202020200D
:10FF7E000043454E54455220202020202020202092
:10FF8E0020202020005249474854202020202020A5
:10FF9E00202020202020200055502020202020200E
:10FFAE002020202020202020200050726F677261B8
:10FFBE006D2064656C2072656C6F6A002530327539
:10FFCE002F253032752F2530327500253032753A97
:10FFDE00253032753A2530327500286E756C6C29D5
:0AFFEE000025303375002573000074
:08FFF800AEF718FFF3F8FFF16A
:00000001FF
