:0400000012EF6FF09C
:10DC5A00140017003A0017173B3BF29C550EA76EAB
:10DC6A00AA0EA76E0F013F8BF28C1200C280C282ED
:10DC7A0000D0C2B2FED7030E016E980EE82EFED770
:10DC8A00012EFCD7C4CF8AF0C2901200036E000E98
:10DC9A00026E3A0E036006D02F0E036403D0010E03
:10DCAA00026E00D002C001F00130120012000150D1
:10DCBA000302F3CF05F0F4CF06F001500402F3504B
:10DCCA00062602500302F350062605C001F006C0DC
:10DCDA0002F0120012000200050002000800020011
:10DCEA000F000200120004000500040008000400EE
:10DCFA000F000400120002000000030000000300ED
:10DD0A00030003000600040000000400030000A052
:10DD1A004100B44106000B000A500B10D8B41DD0C4
:10DD2A00010E0C6E05D0D8900A360B360C2A00D09C
:10DD3A000BBE02D0F8D700D00A50085C0B50095825
:10DD4A00D8A005D00A50085E0B50095A00D0D890C6
:10DD5A000B320A320C2EF0D700D008C008F009C0E6
:10DD6A0009F012005850016E026A5450011810E16D
:10DD7A0055500218D8A40CD05A50016E026A565057
:10DD8A00011806E157500218D8A402D08A8E00D092
:10DD9A005C50016E026A5450011810E15550021885
:10DDAA00D8A412005E50016E026A5650011806E1AC
:10DDBA0057500218D8A412008A9E12001200000EB0
:10DDCA00066E000E056E03500410D8B421D0010E61
:10DDDA00076E05D0D89003360436072A00D004BE51
:10DDEA0002D0F8D700D0D890053606360350015C29
:10DDFA0004500258D8A006D00350015E0450025ABB
:10DE0A00058000D0D89004320332072EECD700D018
:10DE1A0005C001F006C002F0120000EE60F0470EE5
:10DE2A00EE6AE806FDE15F6A5E6A5D6A5C6AE00EB8
:10DE3A00F66EDC0EF76E000EF86E00EEA7F010EE2E
:10DE4A0042F00900F5CFEEFFE550E150FAE15A0E33
:10DE5A00F66EDC0EF76E000EF86E00EE52F010EE63
:10DE6A000AF00900F5CFEEFFE550E150FAE1000EA5
:10DE7A00F86E0001BCEF75F0FC0E0F013F170F01A1
:10DE8A003F8198CF0FF099CF10F098CF11F099CF2A
:10DE9A0012F0FC0E0F013F170F013F8198CF07F0D8
:10DEAA0099CF08F098CF09F099CF0AF009501118C4
:10DEBA00D8A4E2D720EE03F00150D9260250DA2284
:10DECA000FC0DFFF20EE02F00150D9260250DA22FD
:10DEDA0012C0DFFF20EE01F00150D9260250DA22EB
:10DEEA0011C0DFFF12005950016E026A5450011826
:10DEFA001BE155500218D8A417D05B50016E026A74
:10DF0A005650011811E157500218D8A40DD082BEFC
:10DF1A0002D0010E01D0000E0001846F000184516D
:10DF2A00D8B402D08A8C00D05D50016E026A545077
:10DF3A00011810E155500218D8A412005F50016E62
:10DF4A00026A5650011806E157500218D8A4120066
:10DF5A008A9C12001200FC0E0F013F17030E0F01DC
:10DF6A003F1398CF0BF099CF0CF098CF0DF099CFC3
:10DF7A000EF098CF0FF099CF10F0FC0E0F013F175B
:10DF8A00030E0F013F1398CF03F099CF04F098CFF7
:10DF9A0005F099CF06F098CF07F099CF08F0055011
:10DFAA000D18D8A4D8D720EE01F00150D926025076
:10DFBA00DA220DC0DFFF20EE02F00150D92602500E
:10DFCA00DA220EC0DFFF01C0D9FF02C0DAFF10C09B
:10DFDA00DFFF20EE03F00150D9260250DA220BC0EF
:10DFEA00DFFF1200436E0DD04050800F08D0405022
:10DFFA00C00F05D04050940F02D04050D40F446E49
:10E00A000ED04350010AD8B4EFD7030AD8B4EFD7D9
:10E01A00010AD8B4EFD7070AD8B4EFD700D04450D2
:10E02A008DEC72F015D041C0F6FF42C0F7FFF86AD6
:10E03A000E0EF76403D00800F55005D0F6CFD9FFCD
:10E04A00F7CFDAFFDF501DEC73F0414A422A00D0C5
:10E05A0041C0F6FF42C0F7FFF86A0E0EF76403D01C
:10E06A000800F55005D0F6CFD9FFF7CFDAFFDF5019
:10E07A000009D8A4D8D71200000E066E04AE07D045
:10E08A00036C041ED8B0042A010E066E00D002AE3C
:10E09A0007D0016C021ED8B0022A010E061A00D05F
:10E0AA00000E086E000E076E03500410D8B421D07B
:10E0BA00010E056E05D0D89003360436052A00D025
:10E0CA0004BE02D0F8D700D0D890073608360350DD
:10E0DA00015C04500258D8A006D00350015E0450D7
:10E0EA00025A078000D0D89004320332052EECD7AA
:10E0FA0000D00650D8B405D0076C081ED8B0082A3C
:10E10A0000D007C001F008C002F012001200B1EC02
:10E11A0073F03BEC6EF0000E406ED70E416EFE0EB1
:10E12A00426E010EF7EC6FF07CC028F07DC029F03A
:10E13A00FEEC71F028C045F029C046F0000E406E92
:10E14A0045C041F046C042F0020EF7EC6FF08B0E6C
:10E15A000D6E000E0E6E9F0E0F6EFE0E106EE5C057
:10E16A0011F0E6C012F0E7C013F0E8C014F052C094
:10E17A0015F053C016F097EC76F0000E406E8B0E39
:10E18A00416E000E426E030EF7EC6FF08B0E0D6EB1
:10E19A00000E0E6EBB0E0F6EFE0E106E54C011F006
:10E1AA0055C012F056C013F057C014F080C015F0D5
:10E1BA0081C016F097EC76F0000E406E8B0E416E21
:10E1CA00000E426E040EF7EC6FF01200000E066E9F
:10E1DA0020EE02F00150D9260250DA225A0EDF60F0
:10E1EA00120020EE01F00150D9260250DA225A0E0E
:10E1FA00DF60120020EE03F00150D9260250DA2225
:10E20A00240EDF6402D01200120020EE02F0015048
:10E21A00D9260250DA22DF50096E20EE01F00150B1
:10E22A00D9260250DA22DF50086E0350D8B402D041
:10E23A00F29C00D0000E3FBB010E076E0750D8A417
:10E24A0003D032EC6EF000D0000E3FBF010E056E17
:10E25A000550D8B407D0000E91BE010E066E0F010C
:10E26A003F9F00D0FC0E0F013F170F013F8198CF4F
:10E27A000AF099CF0BF020EE03F00150D926025094
:10E28A00DA22DF500A6EFC0E0F013F170F013F81A1
:10E29A000AC098FF0BC099FF08C098FF09C099FFF0
:10E2AA000550D8B40DD00F013F8F0650D8B402D014
:10E2BA00918E00D00750D8B409D032EC6EF006D057
:10E2CA000750D8A403D00F013F9B00D00350D8B405
:10E2DA001200F28C120012009390939293949396E8
:10E2EA009398939A8A908A928A948A968A988A9A12
:10E2FA000F0E046E480EE82EFED7042EFCD70F0E22
:10E30A00046E480EE82EFED7042EFCD70F0E046EBC
:10E31A00480EE82EFED7042EFCD70F0E046E480EC8
:10E32A00E82EFED7042EFCD70F0E046E480EE82EF8
:10E33A00FED7042EFCD70F0E046E480EE82EFED729
:10E34A00042EFCD7010E056E1FD021D08A908A9226
:10E35A008A848A868A988A9A8A908A928A848A86FB
:10E36A008A888A9A030EE82EFED700F08A908A924B
:10E37A008A848A868A988A9A0F0E046E480EE82E34
:10E38A00FED7042EFCD7052A030E0564DFD78A9030
:10E39A008A928A848A968A988A9A8A908A928A849F
:10E3AA008A968A888A9A030EE82EFED700F08A9007
:10E3BA008A928A848A968A988A9A0F0E046E480EDE
:10E3CA00E82EFED7042EFCD7280E056E05508DECDC
:10E3DA0072F0100E056E05508DEC72F0010E056E8E
:10E3EA0005508DEC72F00F0E056E05508DEC72F033
:10E3FA00120069D02C0E0D6E000E0E6EF30E0F6E0B
:10E40A00FF0E106E400E116EFF0E126E97EC76F034
:10E41A0079D02C0E0D6E000E0E6EF30E0F6EFF0EDF
:10E42A00106EEC0E116EFE0E126E97EC76F06AD03C
:10E43A002C0E0D6E000E0E6EF30E0F6EFF0E106E8A
:10E44A00160E116EFF0E126E97EC76F05BD02C0E44
:10E45A000D6E000E0E6EF30E0F6EFF0E106E6A0E2C
:10E46A00116EFF0E126E97EC76F04CD02C0E0D6EDC
:10E47A00000E0E6EF30E0F6EFF0E106E2B0E116E47
:10E48A00FF0E126E97EC76F03DD02C0E0D6E000E3C
:10E49A000E6EF30E0F6EFF0E106E550E116EFF0EFE
:10E4AA00126E97EC76F02ED02C0E0D6E000E0E6EBC
:10E4BA00F30E0F6EFF0E106E010E116EFF0E126E2E
:10E4CA0097EC76F01FD028C02AF029C02BF02B50E9
:10E4DA00000AD8A417D02A50000AD8B48BD7010A48
:10E4EA00D8B497D7030AD8B4A3D7010AD8B4AFD7F8
:10E4FA00070AD8B4BBD7010AD8B4C7D7030AD8B415
:10E50A00D3D700D02C0E286E000E296E12001200EE
:10E51A00036E8A988A9A016A03AE01D0012A010E13
:10E52A0001168A500118FE0B01188A6E03C001F009
:10E53A00060E026ED8900132022EFCD7010E011689
:10E54A0001468A500118FD0B01188A6E03C001F0BA
:10E55A00050E026ED8900132022EFCD7010E01166A
:10E56A00014601468A500118FB0B01188A6E03C046
:10E57A0001F0013A0F0E0116010E0116014601467D
:10E58A0001468A500118F70B01188A6E030EE82E0D
:10E59A00FED700F08A88030EE82EFED700F08A988C
:10E5AA0003C001F0D8900132D8900132D8900132DC
:10E5BA00010E01168A500118FE0B01188A6E03C05B
:10E5CA0001F0D8900132D8900132010E01160146AD
:10E5DA008A500118FD0B01188A6E03C001F0D89009
:10E5EA000132010E0116014601468A500118FB0B41
:10E5FA0001188A6E03C001F0010E01160146014698
:10E60A0001468A500118F70B01188A6E030EE82E8C
:10E61A00FED700F08A88030EE82EFED700F08A980B
:10E62A000F0E016E480EE82EFED7012EFCD71200FF
:10E63A00036E8A988A8A016A03AE01D0012A010E02
:10E64A0001168A500118FE0B01188A6E03C001F0E8
:10E65A00060E026ED8900132022EFCD7010E011668
:10E66A0001468A500118FD0B01188A6E03C001F099
:10E67A00050E026ED8900132022EFCD7010E011649
:10E68A00014601468A500118FB0B01188A6E03C025
:10E69A0001F0013A0F0E0116010E0116014601465C
:10E6AA0001468A500118F70B01188A6E030EE82EEC
:10E6BA00FED700F08A88030EE82EFED700F08A986B
:10E6CA0003C001F0D8900132D8900132D8900132BB
:10E6DA00010E01168A500118FE0B01188A6E03C03A
:10E6EA0001F0D8900132D8900132010E011601468C
:10E6FA008A500118FD0B01188A6E03C001F0D890E8
:10E70A000132010E0116014601468A500118FB0B1F
:10E71A0001188A6E03C001F0010E01160146014676
:10E72A0001468A500118F70B01188A6E030EE82E6B
:10E73A00FED700F08A88030EE82EFED700F08A98EA
:10E74A00030EE82EFED700F00F0E016E480EE82EDB
:10E75A00FED7012EFCD71200A30E016E000E026E28
:10E76A0041EC6FF00001A4510F0B0001F56F00019D
:10E77A00A4390F0B0F0B0001F46F0001A5510F0B09
:10E78A000001F36F0001A5390F0B0F0B0001F26FA7
:10E79A000001A6510F0B0001EF6F0001A6390F0B04
:10E7AA000F0B0001EE6F9F0E016E000E026EB0ECB1
:10E7BA006FF00001A0510F0B0001ED6F0001A039AD
:10E7CA000F0B0F0B0001EC6F0001A1510F0B0001A1
:10E7DA00F16F0001A1390F0B0F0B0001F06F9FC001
:10E7EA00EBF00001A2510F0B0001EA6F0001A23900
:10E7FA000F0B0F0B0001E96F0001F4510A0D000124
:10E80A00F551F3240001806F0001000EF42000018D
:10E81A00816F0001F2510A0D0001F351F324566E83
:10E82A000001000EF420576E0001EE510A0D00019E
:10E83A00EF51F324546E0001000EF420556E0001CE
:10E84A00EC510A0D0001ED51F3240001E56F0001BE
:10E85A00000EF4200001E66FEBC07CF000017D6B36
:10E86A000001F0510A0D0001F151F3240001E76F94
:10E87A000001000EF4200001E86F0001E9510A0DC1
:10E88A000001EA51F324526E0001000EF420536E87
:10E89A001200000E066E20EE02F00150D926025038
:10E8AA00DA22130EDF60120020EE02F00150D926A0
:10E8BA000250DA22DF50D8B4120020EE01F00150E3
:10E8CA00D9260250DA22320EDF60120020EE01F061
:10E8DA000150D9260250DA22DF50D8B4120020EEB5
:10E8EA0003F00150D9260250DA22990EDF6402D0D1
:10E8FA001200120020EE03F00150D9260250DA224B
:10E90A00DF50076E20EE01F00150D9260250DA22BC
:10E91A00DF500A6E20EE02F00150D9260250DA22A8
:10E92A00DF500B6E0350D8B402D0F29C00D0000E18
:10E93A003FBB010E096E0950D8A403D032EC6EF029
:10E94A0000D0000E3FBF010E056E0550D8B407D0A7
:10E95A00000E91BE010E066E0F013F9F00D0FC0E05
:10E96A000F013F170F013F8198CF0CF099CF0DF09F
:10E97A0001C0D9FF02C0DAFFDF500D6EFC0E0F0195
:10E98A003F17030E0F013F1307C098FF08C099FFF6
:10E99A000AC098FF0BC099FF0CC098FF0DC099FFE1
:10E9AA000550D8B40DD00F013F8F0650D8B402D00D
:10E9BA00918E00D00950D8B409D032EC6EF006D04E
:10E9CA000950D8A403D00F013F9B00D00350D8B4FC
:10E9DA001200F29C1200120032EC6EF0A38080C08A
:10E9EA0001F081C002F0000E046E0A0E036E41ECC3
:10E9FA0070F001500001F46F0001F4510A0DF35058
:10EA0A000008000180250001F56F0001F451100D86
:10EA1A00F3500001F5250001A46F56C001F057C05C
:10EA2A0002F0000E046E0A0E036E41EC70F0015003
:10EA3A000001F26F0001F2510A0DF350000856244A
:10EA4A000001F36F0001F251100DF3500001F3259C
:10EA5A000001A56F54C001F055C002F0000E046E0B
:10EA6A000A0E036E41EC70F001500001EE6F0001D6
:10EA7A00EE510A0DF350000854240001EF6F000113
:10EA8A00EE51100DF3500001EF250001A66F52C0A0
:10EA9A0001F053C002F0000E046E0A0E036E41EC40
:10EAAA0070F001500001E96F0001E9510A0DF350BD
:10EABA00000852240001EA6F0001E951100DF350D9
:10EACA000001EA250001A26FE7C001F0E8C002F0E8
:10EADA00000E046E0A0E036E41EC70F00150000144
:10EAEA00F06F0001F0510A0DF35000080001E7250C
:10EAFA000001F16F0001F051100DF3500001F125F2
:10EB0A000001A16FE5C001F0E6C002F0000E046E3C
:10EB1A000A0E036E41EC70F001500001EC6F000127
:10EB2A00EC510A0DF35000080001E5250001ED6FD4
:10EB3A000001EC51100DF3500001ED250001A06F0A
:10EB4A007CC0EBF07CC09FF0A30E016E000E026E3B
:10EB5A00010E036EEBEC70F09F0E016E000E026E5A
:10EB6A00010E036E4EEC74F00F013F8F12009B8E64
:10EB7A009B9CD388D38AD38CD390D3920F013F8F97
:10EB8A000F013F8BCD86FD0E926E000E936E946838
:10EB9A000F014869F70E0F01496F2F0EC26E390E29
:10EBAA00C16EF1EC74F071EC71F0010E8DEC72F043
:10EBBA000C0E8DEC72F0FF0E516E8A0EE82EFED707
:10EBCA00512EFCD700D0FF0E516E8A0EE82EFED7CA
:10EBDA00512EFCD700D0FF0E516E8A0EE82EFED7BA
:10EBEA00512EFCD700D0FF0E516E8A0EE82EFED7AA
:10EBFA00512EFCD700D0FF0E516E8A0EE82EFED79A
:10EC0A00512EFCD700D0FF0E516E8A0EE82EFED789
:10EC1A00512EFCD700D0FF0E516E8A0EE82EFED779
:10EC2A00512EFCD700D0FF0E516E8A0EE82EFED769
:10EC3A00512EFCD700D0010E8DEC72F000D08CEC76
:10EC4A0070F0B7EC6EF078EC6FF080B002D0010E85
:10EC5A0001D0000E0001876F00018751D8B403D09C
:10EC6A0034EC78F000D082B802D0010E01D0000E48
:10EC7A000001866F00018651D8B417D08B0E0D6E35
:10EC8A00000E0E6EEE0E0F6EFF0E106E8AC011F0A1
:10EC9A00126A97EC76F0000E406E8B0E416E000EF3
:10ECAA00426E040EF7EC6FF000D080B402D0010E71
:10ECBA0001D0000E0001886F00018851D8B40AD033
:10ECCA00000E406E930E416EFF0E426E030EF7EC7D
:10ECDA006FF000D080B602D0010E01D0000E000104
:10ECEA00896F00018951D8B403D02DEC7BF000D094
:10ECFA0080BA02D0010E01D0000E0001856F00011A
:10ED0A008551D8B49CD7010E8DEC72F0000E406E7E
:10ED1A007F0E416EFF0E426E020EF7EC6FF08FD738
:10ED2A0000EF00F0110E1F6E000E206E82D1250E2C
:10ED3A002718D8B409D00DC0D9FF0EC0DAFF27C0F2
:10ED4A00DFFF0D4A0E2A75D1000E266E000E256EC3
:10ED5A00000E1B6E05D01B840F4A102A01D00BD05F
:10ED6A000FC0F6FF10C0F7FF0800F550300AD8B4FC
:10ED7A00F2D701D0F5D70FC0F6FF10C0F7FF080091
:10ED8A00F5504BEC6EF0D8A0A2D0000E266E000E05
:10ED9A00256E00D025C001F026C002F0000E046ED8
:10EDAA000A0E036E5CEC6EF001C025F002C026F07C
:10EDBA00D00E176EFF0E186E0FC0F6FF10C0F7FFC9
:10EDCA000800F550196E1A6A1750192618501A2297
:10EDDA00195025261A5026220F4A102A0FC0F6FF6C
:10EDEA0010C0F7FF0800F5504BEC6EF0D8A06FD0BA
:10EDFA00D1D76DD02CD11FC0D9FF20C0DAFFDECF0A
:10EE0A0021F0DDCF22F0020E1F26000E2022215013
:10EE1A002210D8A405D0E10E216EFF0E226E00D07A
:10EE2A00000E246E000E236E03D0234A242A00D03B
:10EE3A0023502124176E24502220186E17C0F6FF83
:10EE4A0018C0F7FF0800F5500009D8A4EED72550DE
:10EE5A00235C26502458D8B005D02350255E245070
:10EE6A00265A0ED0000E266E000E256E09D00DC051
:10EE7A00D9FF0EC0DAFF200EDF6E0D4A0E2A00D02F
:10EE8A002506D8A026062528F2E12628D8B412D0CD
:10EE9A00EED710D021C0F6FF22C0F7FF0DC0D9FF70
:10EEAA000EC0DAFF0800F5CFDFFF214A222A0D4AF9
:10EEBA000E2A00D02306D8A024062328EBE1242812
:10EECA00D8B4B7D0E7D7B5D0C00E1B1214D00FC034
:10EEDA00F6FF10C0F7FF0F4A102A0800F5CF27F0F7
:10EEEA002750000AD8B4B3D0730AD8B484D7060A14
:10EEFA00D8B4EAD79ED01FC0D9FF20C0DAFFDECF30
:10EF0A001CF0DDCF1DF0020E1F26000E2022010E7E
:10EF1A00276E050E2718D8B416D001D014D0275062
:10EF2A00020D950EF324F66EFE0EF420F76E09001C
:10EF3A00F5501C5C0900F5501D58D8A004D001D02A
:10EF4A0002D0272AE6D7800E27BE7F0E176E2550DD
:10EF5A00275C2650800A1758D8B007D02750255E5C
:10EF6A00000E27BEFF0E265A05D0000E266E000E92
:10EF7A00256E00D01BA415D025502610D8B426D053
:10EF8A000DC0D9FF0EC0DAFF300EDF6E0D4A0E2A11
:10EF9A002506D8A0260625502610D8B417D0F0D7B3
:10EFAA0015D025502610D8B411D00DC0D9FF0EC0E7
:10EFBA00DAFF200EDF6E0D4A0E2A2506D8A0260695
:10EFCA0025502610D8B402D0F0D700D027C01EF0A2
:10EFDA002AD01E50020D950EF324F66EFE0EF42072
:10EFEA00F76E0900F5CF03F00A00F5CF04F01CC054
:10EFFA0001F01DC002F0E4EC6EF001C008F002C09E
:10F00A0009F0000E0B6E0A0E0A6E91EC6EF00850B3
:10F01A00300F276E0DC0D9FF0EC0DAFF27C0DFFF01
:10F02A000D4A0E2A00D01E061E28D8B402D0D1D707
:10F03A0000D00FC0F6FF10C0F7FF0F4A102A0800D1
:10F04A00F5CF27F02750D8B402D071D600D00DC022
:10F05A00D9FF0EC0DAFF000EDF6E12001200000E9A
:10F06A00406EA60E416EFF0E426E010EF7EC6FF077
:10F07A007CC047F0E5C048F0E7C049F052C04AF00A
:10F08A0054C04BF056C04CF0000E4E6E000E4D6E42
:10F09A000E0E8DEC72F0000E406EEB0E416EFE0EFF
:10F0AA00426E020EF7EC6FF0000E00017F6F000E49
:10F0BA007E6F00017FBF0AD000017F5106E11E0E5C
:10F0CA0000017E5DD8B0C0D201D0BED2EA0E456E34
:10F0DA00C30EE82EFED7452EFCD700F080B602D02C
:10F0EA00010E01D0000E0001896F00018951D8B4C8
:10F0FA00F8D0000E00017F6F000E7E6F4D504E104B
:10F10A00D8A41DD0060E476002D0472A00D0000EB0
:10F11A00406E47C028F0296AFEEC71F028C041F021
:10F12A0029C042F0020EF7EC6FF0000E406EEB0EB3
:10F13A00416EFE0E426E020EF7EC6FF0D2D0020E56
:10F14A004D184E10D8A425D01F0E486002D0482A68
:10F15A0000D08B0E0D6E000E0E6EC20E0F6EFF0EDD
:10F16A00106E48C011F0126A97EC76F0000E406EED
:10F17A008B0E416E000E426E030EF7EC6FF0000E1E
:10F18A00406EEB0E416EFE0E426E030EF7EC6FF010
:10F19A00A8D0040E4D184E10D8A425D00C0E4960E4
:10F1AA0002D0492A00D08B0E0D6E000E0E6EC20ED2
:10F1BA000F6EFF0E106E49C011F0126A97EC76F0CE
:10F1CA00030E406E8B0E416E000E426E030EF7EC7C
:10F1DA006FF0030E406EEB0E416EFE0E426E030E92
:10F1EA00F7EC6FF07ED0060E4D184E10D8A425D03D
:10F1FA00630E4A6002D04A2A00D08B0E0D6E000EB2
:10F20A000E6EC20E0F6EFF0E106E4AC011F0126A19
:10F21A0097EC76F0060E406E8B0E416E000E426E33
:10F22A00030EF7EC6FF0060E406EEB0E416EFE0E0B
:10F23A00426E030EF7EC6FF054D0080E4D184E10C4
:10F24A00D8A425D0170E4B6002D04B2A00D08B0EC3
:10F25A000D6E000E0E6EC20E0F6EFF0E106E4BC0BC
:10F26A0011F0126A97EC76F0000E406E8B0E416E2A
:10F27A00000E426E040EF7EC6FF0000E406EEB0EBD
:10F28A00416EFE0E426E040EF7EC6FF02AD00A0EA3
:10F29A004D184E10D8A425D03B0E4C6002D04C2AF3
:10F2AA0000D08B0E0D6E000E0E6EC20E0F6EFF0E8C
:10F2BA00106E4CC011F0126A97EC76F0030E406E95
:10F2CA008B0E416E000E426E040EF7EC6FF0030EC9
:10F2DA00406EEB0E416EFE0E426E040EF7EC6FF0BE
:10F2EA0000D080B402D0010E01D0000E0001886F58
:10F2FA0000018851D8B436D04EBE06D04E5009E12E
:10F30A000A0E4D5CD8B005D0020E4D26000E4E22D4
:10F31A0000D0000E00017F6F000E7E6F4DC045F0D9
:10F32A004EC046F0D89045364636020E4526000EA7
:10F33A004622C70E4524D96E000E4620DA6EDF50EB
:10F34A00406EEB0E416EFE0E426ED8904D34D96E71
:10F35A004E34DA6EC70ED926000EDA22DF50F7ECE9
:10F36A006FF000D080B002D0010E01D0000E000173
:10F37A00876F00018751D8B436D04EBE0BD04E509D
:10F38A0004E1020E4D5CD8A005D0FE0E4D26FF0EFC
:10F39A004E2200D0000E00017F6F000E7E6F4DC01E
:10F3AA0045F04EC046F0D89045364636020E452600
:10F3BA00000E4622C70E4524D96E000E4620DA6E8C
:10F3CA00DF50406EEB0E416EFE0E426ED8904D3409
:10F3DA00D96E4E34DA6EC70ED926000EDA22DF5005
:10F3EA00F7EC6FF000D082B802D0010E01D0000E07
:10F3FA000001866F00018651D8B4F8D0000E0001D2
:10F40A007F6F000E7E6F4D504E10D8A41DD047500E
:10F41A00D8B402D0470600D0000E406E47C028F08C
:10F42A00296AFEEC71F028C041F029C042F0020EB0
:10F43A00F7EC6FF0000E406EEB0E416EFE0E426E60
:10F44A00020EF7EC6FF0D2D0020E4D184E10D8A46F
:10F45A0025D0010E486402D0480600D08B0E0D6EEE
:10F46A00000E0E6EC20E0F6EFF0E106E48C011F027
:10F47A00126A97EC76F0000E406E8B0E416E000E0B
:10F48A00426E030EF7EC6FF0000E406EEB0E416E0B
:10F49A00FE0E426E030EF7EC6FF0A8D0040E4D1864
:10F4AA004E10D8A425D0010E496402D0490600D0D6
:10F4BA008B0E0D6E000E0E6EC20E0F6EFF0E106ECC
:10F4CA0049C011F0126A97EC76F0030E406E8B0E6B
:10F4DA00416E000E426E030EF7EC6FF0030E406EA3
:10F4EA00EB0E416EFE0E426E030EF7EC6FF07ED00D
:10F4FA00060E4D184E10D8A425D0140E4A6402D018
:10F50A004A0600D08B0E0D6E000E0E6EC20E0F6EE6
:10F51A00FF0E106E4AC011F0126A97EC76F0060ED2
:10F52A00406E8B0E416E000E426E030EF7EC6FF0CA
:10F53A00060E406EEB0E416EFE0E426E030EF7ECA7
:10F54A006FF054D0080E4D184E10D8A425D04B5049
:10F55A00D8B402D04B0600D08B0E0D6E000E0E6E84
:10F56A00C20E0F6EFF0E106E4BC011F0126A97ECAE
:10F57A0076F0000E406E8B0E416E000E426E040E47
:10F58A00F7EC6FF0000E406EEB0E416EFE0E426E0F
:10F59A00040EF7EC6FF02AD00A0E4D184E10D8A4BC
:10F5AA0025D04C50D8B402D04C0600D08B0E0D6E2C
:10F5BA00000E0E6EC20E0F6EFF0E106E4CC011F0D2
:10F5CA00126A97EC76F0030E406E8B0E416E000EB7
:10F5DA00426E040EF7EC6FF0030E406EEB0E416EB6
:10F5EA00FE0E426E040EF7EC6FF000D080BA02D025
:10F5FA00010E01D0000E0001856F00018551D8B4BB
:10F60A0018D047C07CF000017D6B48C0E5F00001CE
:10F61A00E66B49C0E7F00001E86B4AC052F0536A52
:10F62A004BC054F0556A4CC056F0576AF1EC74F06E
:10F63A000BD000017E4B7F2B00017FBF47D5000115
:10F64A007F5102E13CD500D00C0E8DEC72F0120015
:10F65A00000E406EE80E416EFF0E426E010EF7EC90
:10F66A006FF08B0E0D6E000E0E6EB80E0F6EFF0E43
:10F67A00106E59C011F0126A5BC013F0146A97EC4D
:10F68A0076F0000E406E8B0E416E000E426E020E38
:10F69A00F7EC6FF08B0E0D6E000E0E6EC70E0F6E2E
:10F6AA00FF0E106E5DC011F0126A5FC013F0146A8B
:10F6BA0097EC76F00B0E406E8B0E416E000E426E8A
:10F6CA00020EF7EC6FF0000E406ED50E416EFF0E83
:10F6DA00426E030EF7EC6FF08B0E0D6E000E0E6E7F
:10F6EA00B80E0F6EFF0E106E58C011F0126A5AC093
:10F6FA0013F0146A97EC76F0000E406E8B0E416E92
:10F70A00000E426E040EF7EC6FF08B0E0D6E000EBB
:10F71A000E6EC70E0F6EFF0E106E5CC011F0126AED
:10F72A005EC013F0146A97EC76F00B0E406E8B0EE7
:10F73A00416E000E426E040EF7EC6FF058C047F0AF
:10F74A005AC048F05CC049F05EC04AF059C04BF05C
:10F75A005BC04CF05DC04DF05FC04EF0000E506EC5
:10F76A00000E4F6E0E0E8DEC72F0050E406EEB0E13
:10F77A00416EFE0E426E020EF7EC6FF0000E0001B3
:10F78A007F6F000E7E6F00017FBF0AD000017F519C
:10F79A0006E11E0E00017E5DD8B073D301D071D38D
:10F7AA00EA0E456EC30EE82EFED7452EFCD700F0B2
:10F7BA0080B602D0010E01D0000E0001896F00014F
:10F7CA008951D8B454D1000E00017F6F000E7E6FAC
:10F7DA004F505010D8A425D0170E4B6002D04B2A98
:10F7EA0000D08B0E0D6E000E0E6EC20E0F6EFF0E47
:10F7FA00106E4BC011F0126A97EC76F0050E406E4F
:10F80A008B0E416E000E426E020EF7EC6FF0050E83
:10F81A00406EEB0E416EFE0E426E020EF7EC6FF07A
:10F82A0026D1020E4F185010D8A425D03B0E4C609A
:10F83A0002D04C2A00D08B0E0D6E000E0E6EC20E38
:10F84A000F6EFF0E106E4CC011F0126A97EC76F034
:10F85A00080E406E8B0E416E000E426E020EF7ECE1
:10F86A006FF0080E406EEB0E416EFE0E426E020EF7
:10F87A00F7EC6FF0FCD0040E4F185010D8A425D026
:10F88A00030E4D6002D04D2A00D08B0E0D6E000E75
:10F89A000E6EC20E0F6EFF0E106E4DC011F0126A80
:10F8AA0097EC76F00F0E406E8B0E416E000E426E94
:10F8BA00020EF7EC6FF00F0E406EEB0E416EFE0E6D
:10F8CA00426E020EF7EC6FF0D2D0060E4F185010AF
:10F8DA00D8A425D03B0E4E6002D04E2A00D08B0E03
:10F8EA000D6E000E0E6EC20E0F6EFF0E106E4EC023
:10F8FA0011F0126A97EC76F0120E406E8B0E416E82
:10F90A00000E426E020EF7EC6FF0120E406EEB0E16
:10F91A00416EFE0E426E020EF7EC6FF0A8D0080E92
:10F92A004F185010D8A425D0170E476002D0472A86
:10F93A0000D08B0E0D6E000E0E6EC20E0F6EFF0EF5
:10F94A00106E47C011F0126A97EC76F0050E406E01
:10F95A008B0E416E000E426E040EF7EC6FF0050E30
:10F96A00406EEB0E416EFE0E426E040EF7EC6FF027
:10F97A007ED00A0E4F185010D8A425D03B0E4860EE
:10F98A0002D0482A00D08B0E0D6E000E0E6EC20EEB
:10F99A000F6EFF0E106E48C011F0126A97EC76F0E7
:10F9AA00080E406E8B0E416E000E426E040EF7EC8E
:10F9BA006FF0080E406EEB0E416EFE0E426E040EA4
:10F9CA00F7EC6FF054D00C0E4F185010D8A425D075
:10F9DA000B0E496002D0492A00D08B0E0D6E000E24
:10F9EA000E6EC20E0F6EFF0E106E49C011F0126A33
:10F9FA0097EC76F00F0E406E8B0E416E000E426E43
:10FA0A00040EF7EC6FF00F0E406EEB0E416EFE0E19
:10FA1A00426E040EF7EC6FF02AD00E0E4F185010FB
:10FA2A00D8A425D03B0E4A6002D04A2A00D08B0EB9
:10FA3A000D6E000E0E6EC20E0F6EFF0E106E4AC0D5
:10FA4A0011F0126A97EC76F0120E406E8B0E416E30
:10FA5A00000E426E040EF7EC6FF0120E406EEB0EC3
:10FA6A00416EFE0E426E040EF7EC6FF000D080B4C9
:10FA7A0002D0010E01D0000E0001886F00018851EA
:10FA8A00D8B436D050BE06D0505009E10E0E4F5CA5
:10FA9A00D8B005D0020E4F26000E502200D0000E1C
:10FAAA0000017F6F000E7E6F4FC045F050C046F0D8
:10FABA00D89045364636020E4526000E4622A70E37
:10FACA004524D96E000E4620DA6EDF50406EEB0EEA
:10FADA00416EFE0E426ED8904F34D96E5034DA6EB3
:10FAEA00A70ED926000EDA22DF50F7EC6FF000D00D
:10FAFA0080B002D0010E01D0000E0001876F000114
:10FB0A008751D8B436D050BE0BD0505004E1020E03
:10FB1A004F5CD8A005D0FE0E4F26FF0E502200D013
:10FB2A00000E00017F6F000E7E6F4FC045F050C07F
:10FB3A0046F0D89045364636020E4526000E462235
:10FB4A00A70E4524D96E000E4620DA6EDF50406EAD
:10FB5A00EB0E416EFE0E426ED8904F34D96E503481
:10FB6A00DA6EA70ED926000EDA22DF50F7EC6FF014
:10FB7A0000D082B802D0010E01D0000E0001866FBB
:10FB8A0000018651D8B454D1000E00017F6F000ED7
:10FB9A007E6F4F505010D8A425D04B50D8B402D005
:10FBAA004B0600D08B0E0D6E000E0E6EC20E0F6E3F
:10FBBA00FF0E106E4BC011F0126A97EC76F0050E2C
:10FBCA00406E8B0E416E000E426E020EF7EC6FF025
:10FBDA00050E406EEB0E416EFE0E426E020EF7EC03
:10FBEA006FF026D1020E4F185010D8A425D04C50D1
:10FBFA00D8B402D04C0600D08B0E0D6E000E0E6EDD
:10FC0A00C20E0F6EFF0E106E4CC011F0126A97EC06
:10FC1A0076F0080E406E8B0E416E000E426E020E9A
:10FC2A00F7EC6FF0080E406EEB0E416EFE0E426E60
:10FC3A00020EF7EC6FF0FCD0040E4F185010D8A447
:10FC4A0025D04D50D8B402D04D0600D08B0E0D6E83
:10FC5A00000E0E6EC20E0F6EFF0E106E4DC011F02A
:10FC6A00126A97EC76F00F0E406E8B0E416E000E04
:10FC7A00426E020EF7EC6FF00F0E406EEB0E416E05
:10FC8A00FE0E426E020EF7EC6FF0D2D0060E4F183F
:10FC9A005010D8A425D04E50D8B402D04E0600D069
:10FCAA008B0E0D6E000E0E6EC20E0F6EFF0E106ED4
:10FCBA004EC011F0126A97EC76F0120E406E8B0E5F
:10FCCA00416E000E426E020EF7EC6FF0120E406E9D
:10FCDA00EB0E416EFE0E426E020EF7EC6FF0A8D0EC
:10FCEA00080E4F185010D8A425D04750D8B402D0C7
:10FCFA00470600D08B0E0D6E000E0E6EC20E0F6EF2
:10FD0A00FF0E106E47C011F0126A97EC76F0050EDE
:10FD1A00406E8B0E416E000E426E040EF7EC6FF0D1
:10FD2A00050E406EEB0E416EFE0E426E040EF7ECAF
:10FD3A006FF07ED00A0E4F185010D8A425D0485024
:10FD4A00D8B402D0480600D08B0E0D6E000E0E6E8F
:10FD5A00C20E0F6EFF0E106E48C011F0126A97ECB9
:10FD6A0076F0080E406E8B0E416E000E426E040E47
:10FD7A00F7EC6FF0080E406EEB0E416EFE0E426E0F
:10FD8A00040EF7EC6FF054D00C0E4F185010D8A494
:10FD9A0025D04950D8B402D0490600D08B0E0D6E3A
:10FDAA00000E0E6EC20E0F6EFF0E106E49C011F0DD
:10FDBA00126A97EC76F00F0E406E8B0E416E000EB3
:10FDCA00426E040EF7EC6FF00F0E406EEB0E416EB2
:10FDDA00FE0E426E040EF7EC6FF02AD00E0E4F188C
:10FDEA005010D8A425D04A50D8B402D04A0600D020
:10FDFA008B0E0D6E000E0E6EC20E0F6EFF0E106E83
:10FE0A004AC011F0126A97EC76F0120E406E8B0E11
:10FE1A00416E000E426E040EF7EC6FF0120E406E49
:10FE2A00EB0E416EFE0E426E040EF7EC6FF000D040
:10FE3A0080BA02D0010E01D0000E0001856F0001C8
:10FE4A008551D8B413D047C058F048C05AF049C0B9
:10FE5A005CF04AC05EF04BC059F04CC05BF04DC03C
:10FE6A005DF04EC05FF0F1EC74F00BD000017E4BF8
:10FE7A007F2B00017FBF94D400017F5102E189D416
:10FE8A0000D00C0E8DEC72F012000001000A006422
:10FE9A0000E8031027253032752F253032752F25BB
:10FEAA0030327520202020202020202020202020D1
:10FEBA0000253032753A253032753A2530327520B0
:10FECA002020202020202020202020200020202048
:10FEDA002020202020202020202020202020202018
:10FEEA0020004C756E6573202020202020202020C1
:10FEFA002020202020200053616261646F2020208E
:10FF0A002020202020202020202020004D617274F3
:10FF1A00657320202020202020202020202020203F
:10FF2A00004A756576657320202020202020202035
:10FF3A00202020202000446F6D696E676F202020EA
:10FF4A002020202020202020202000566965726E63
:10FF5A00657320202020202020202020202020001F
:10FF6A004D696572636F6C65732020202020202004
:10FF7A00202020200043454E544552202020202096
:10FF8A0020202020202020200052494748542020A9
:10FF9A0020202020202020202020200050726F675F
:10FFAA0072616D2064656C2072656C6F6A00496EBF
:10FFBA00696320253032753A253032750046696EFC
:10FFCA0020253032753A2530327500496C756D69D5
:10FFDA006E6163696F6E00286E756C6C29005269D8
:0EFFEA0065676F002530337500257300000039
:08FFF800AEF718FFF3F8FFF16A
:00000001FF
